:1000000000000220B5340000EB340000ED340000A5
:10001000EF340000F1340000F3340000E934000054
:10002000E9340000E9340000E9340000A9170000B9
:10003000F7340000E93400001519000051190000E0
:10004000FD340000FF3400000135000003350000DE
:100050000535000007350000093500000B350000AC
:100060000D3500000F35000011350000133500007C
:100070001535000017350000193500001B3500004C
:100080001D3500001F35000021350000233500001C
:100090002535000027350000293500002B350000EC
:1000A0002D3500002F3500003135000033350000BC
:1000B0003535000037350000393500007903000080
:1000C0003D3500003F35000041350000433500005C
:1000D00045350000473500004935000000000000AC
:1000E0000000000000000000000000000000000010
:1000F0000000000000000000000000000000000000
:1001000010B5054C237833B9044B13B10448AFF351
:1001100000800123237010BD880000200000000033
:100120006C3F000008B5064B1BB106480649AFF30B
:1001300000800648036813B1054B03B1984708BD1A
:10014000000000006C3F00008C00002088000020B0
:1001500000000000154B002B08BF134B9D46A3F574
:10016000803A00218B460F461348144A121A03F0B6
:100170003EFC0F4B002B00D098470E4B002B00D0BD
:1001800098470020002104000D000D48002802D0EF
:100190000C48AFF3008003F0FBFB2000290000F0C7
:1001A00081F903F0E1FB00BF00000800000002201D
:1001B000000000000000000088000020042500204E
:1001C000000000000000000080B483B000AF0346D0
:1001D000FB71084B97F907205209F97901F01F01CB
:1001E000012000FA01F143F822100C37BD465DF8FA
:1001F000047B704700E100E080B483B000AF0346A9
:10020000FB71094B97F907205209F97901F01F0199
:10021000012000FA01F1603243F822100C37BD468C
:100220005DF8047B704700BF00E100E080B483B05C
:1002300000AF03463960FB7197F90730002B0BDAEA
:100240000D49FB7903F00F03043B3A68D2B2520127
:10025000D2B20B441A7609E0084997F907303A6898
:10026000D2B25201D2B20B4483F800230C37BD4600
:100270005DF8047B704700BF00ED00E000E100E0A6
:1002800080B487B000AFF860B9607A60FB6803F1B2
:100290000473DA00BB6813449B007B617B697A6856
:1002A0001A601C37BD465DF8047B704780B483B08C
:1002B00000AF7860034B7A681A630C37BD465DF86F
:1002C000047B70470010084080B483B000AF7860B2
:1002D000054B054A516B7A68D2430A405A630C3782
:1002E000BD465DF8047B70470010084080B483B0C1
:1002F00000AF7860054B054A516B7A680A435A6330
:100300000C37BD465DF8047B704700BF0010084005
:1003100080B582B000AF0346FB71FB7983F0010327
:10032000DBB2002B05D10F4B1B6803F00303002B3E
:1003300007D1FB79002B04D00B484FF4917100F0EA
:10034000F1F8FB79002B05D0064803210022FFF7C6
:1003500097FF04E0034803210122FFF791FF0837CC
:10036000BD4680BD001008401C3A000080B500AFBB
:1003700003F012F880BD00BF80B500AF0D4B4FF009
:1003800080521A600020FFF7C3FF0B4B1B68002050
:10039000194600F0EBF900F003FA01F0ADFA02F0B3
:1003A0009FF8002001F0B2FA0720FFF77FFF00F06E
:1003B000F7F980BD04ED00E0A4000020B0B586B0E0
:1003C00000AF1C4B32221A601B48012100F092FB47
:1003D0000120002101F006F8184B3C1D1D460FCDF1
:1003E0000FC42B68236002237B714FF440533B8181
:1003F0000123FB603B1D184600F02AF90220FFF79D
:1004000063FF1F20FF21FFF711FF1F20FFF7F4FEFE
:100410001F20FFF7D9FE0020322100F0A7F90220AB
:10042000FFF744FF0220FFF761FF00F0B9F918372A
:10043000BD46B0BDA4000020004304006C3A00009B
:1004400080B582B000AF0C4B1B687B603B46184602
:1004500001F038F87B681B0E0F2B0AD93B78032B71
:1004600007D1064B054A126822F0500242F01002F2
:100470001A600837BD4680BDFC81E00FC0800C408B
:1004800080B584B000AF78607B68FB60FB681B6858
:10049000BB60FB685B68184603F0C4F9B86801F0FC
:1004A0000BFFF6E780B584B004AFFFF7C9FF03F098
:1004B00047FA03F067F9002003F092F9012003F0F6
:1004C0008FF90020002102F039FF0123009300235F
:1004D000019300230293002303930D480D499622B4
:1004E0000D4B01F031FE0123009300230193002303
:1004F000029300230393064808499622084B01F013
:1005000023FE01F001FF00231846BD4680BD00BF59
:1005100081040000803A0000000000208C3A0000B6
:100520000800002080B483B000AF78603960FEE737
:1005300080B487B000AFF860B9607A60FB6803F1FF
:100540000473DA00BB6813449B007B617B697A68A3
:100550001A601C37BD465DF8047B704780B582B0D9
:1005600000AF0346FB71FB7983F00103DBB2002B84
:1005700005D10F4B1B6803F00303002B07D1FB7958
:10058000002B04D00B484FF49171FFF7CBFFFB79A0
:10059000002B05D0064803210022FFF7C9FF04E025
:1005A000034803210122FFF7C3FF0837BD4680BD82
:1005B00000100840983A000080B582B000AF0346B2
:1005C000FB71FB79034800211A46FFF7B1FF08379A
:1005D000BD4680BD3810084080B586B000AF786059
:1005E0007B68002B03D07B68B3F5004F03D90A4822
:1005F0004721FFF797FF7B683B613B69B3FA83F3C1
:10060000FB60FB68DBB2C3F11F037B617B691846AB
:100610001837BD4680BD00BFE83A000080B483B003
:1006200000AF7860094B9B6B03F00103002B00D0F7
:1006300006E000BF054BDA6B7B681340002BF9D155
:100640000C37BD465DF8047B704700BF00100840C2
:1006500080B584B000AF78607B68002B03D141483F
:100660008221FFF75FFF7B689B68002B03D07B68CC
:100670009B68802B03D93B488421FFF753FF7B689D
:10068000DB68062B03D937488721FFF74BFF7B68D0
:100690001B78002B0ED07B681B7883F00103DBB244
:1006A000002B03D17B685B78002B03D12D488A2176
:1006B000FFF738FF7B689B88B3F5405F0CD17B6800
:1006C0009B88B3F5405F03D17B689B7C002B03D0F4
:1006D00024488D21FFF726FF7B689B681846FFF7AB
:1006E0007BFFF8607B681B78002B02D00120FFF7AE
:1006F00063FF0120FFF792FF1B4B7A68927C5A60E0
:100700007B685B7843F00803DBB21A467B689B7812
:100710009B001A437B685B7C1B011A437B68DB6888
:100720005B011A43FB681B021A437B689B881A43D0
:100730007B681B7C9B031343BB600B4B4FF0FF326A
:100740001A63094BBA681A607B681B78002B05D0C6
:100750000120FFF703FF0020FFF72EFF1037BD46F3
:1007600080BD00BFE83A00000010084080B582B0AC
:1007700000AF786039607B68002B03D00648C92140
:10078000FFF7D0FE0220FFF749FF044B3A68DA601A
:100790000837BD4680BD00BFE83A000000100840A1
:1007A00080B500AF054803210122FFF7C1FE0348D1
:1007B00003210022FFF7BCFE80BD00BF00100840EF
:1007C00080B487B000AFF860B9607A60FB6803F16D
:1007D0000473DA00BB6813449B007B617B697A6811
:1007E0001A601C37BD465DF8047B704780B582B047
:1007F00000AF1E4BDB6C03F47F031B0CFB71FB791A
:100800004A2B04D04B2B26D0482B22D025E0184B66
:100810001B699BB203F03F039BB21B02BB80144BCE
:100820009B699BB203F0F0039AB2BB881343BB8071
:100830000F4BDB6903F0F0031B099AB2BB8813432B
:10084000BB80BB88B3F5017F01D30A4B0AE00A4B9A
:1008500008E0094B06E0074B04E008487C21FFF75D
:1008600061FE002318460837BD4680BDB081E00F09
:10087000D0FF0FE000366E010048E801383B000071
:1008800080B586B000AF78607B68002B03D07B68B2
:10089000B3F5004F03D90A48BB21FFF743FE7B683D
:1008A0003B613B69B3FA83F3FB60FB68DBB2C3F1E6
:1008B0001F037B617B6918461837BD4680BD00BFAA
:1008C000383B000080B582B000AF104800F08EFACF
:1008D0000346FB70FB78032B07D0082B09D0022BB3
:1008E0000BD102F0F7FE78600AE002F0DFFE7860DC
:1008F00006E002F05DFE786002E000237B6000BF4E
:100900007B6818460837BD4680BD00BF05231C0024
:1009100080B483B000AF1A4B5B6903F4E063B3F5B6
:10092000007F14D0B3F5007F05D8002B15D0B3F5A8
:10093000807F0FD01AE0B3F5C06F14D0B3F5E06F2D
:100940000ED0B3F5407F11D10E4B7B6011E00E4B02
:100950007B600EE00D4B7B600BE00D4B7B6008E095
:100960000C4B7B6005E00C4B7B6002E000237B605E
:1009700000BF7B6818460C37BD465DF8047B7047A6
:1009800000800C4040420F00C0CF6A00C0D8A700D2
:10099000809FD500406F4001003FAB0180B582B021
:1009A00000AF144800F022FA0346FB70FB78072BD7
:1009B0000FD0082B11D102F0FBFD78600E4B1B68A5
:1009C00003F4E0339B0B01337A68B2FBF3F37B60F3
:1009D0000BE0FFF79DFF786007E008484FF4CA710D
:1009E000FFF7A0FD00237B6000BF7B681846083737
:1009F000BD4680BD0400180000800C40383B00005C
:100A000080B584B000AF78607B68002B07D07B682E
:100A1000012B04D0284840F2AB11FFF783FD274B90
:100A20009A6A7B685B0022FA03F303F00303032B4B
:100A30003AD801A252F823F0890A0000490A0000BE
:100A4000510A0000590A000002F030FEF8602EE062
:100A500002F040FEF8602AE0184B5B6803F48073F4
:100A6000002B05D1154B1B6803F08043002B05D0EC
:100A700002F07AFD03469B08FB6018E002F074FD6B
:100A800003465B08FB6012E00C4B9A6A7B680433F8
:100A90009B0022FA03F3002B03D002F011FEF86052
:100AA00005E00023FB6002E00023FB6000BFFB6861
:100AB00018461037BD4680BD383B000000800C4012
:100AC00080B483B000AF7860094B5B6D03F0010325
:100AD000002B00D006E000BF054B1A6D7B68134069
:100AE000002BF9D10C37BD465DF8047B704700BF81
:100AF00000800C4090B587B000AF78600B46FB706B
:100B000000233B617B681B0A03F00F03013B052BAD
:100B100038D801A252F823F0310B0000370B000047
:100B20003D0B00006B0B0000750B00007F0B0000FD
:100B3000214B7B612CE0214B7B6129E0204B7B61C9
:100B4000204800F04DF80446FFF750FE03469C4253
:100B50000AD91D481E210122FFF732FE1B48082139
:100B60000122FFF72DFE13E012E0194B7B610123F8
:100B70003B610DE0174B7B6110233B6108E0164B96
:100B80007B6105E0154840F23E41FFF7CBFC10E0E9
:100B90007B681B0B03F01F03FB603B69002B02D03B
:100BA0003869FFF78DFFFB787869F9681A46FFF717
:100BB00007FE1C37BD4690BD08800C4044800C40A9
:100BC00040800C402000040000800C4004800C4059
:100BD00058800C4060800C4078800C40383B00000E
:100BE00090B585B000AF78607B6803F47813B3F5F7
:100BF000602F00F09980B3F5602F18D8B3F5C02F9F
:100C00005ED0B3F5C02F08D8B3F5003F3ED0B3F5A2
:100C1000802F51D0002B2BD0D6E0B3F5202F62D0FF
:100C2000B3F5402F6DD0B3F5002F4ED0CCE0B3F527
:100C3000B01F00F0AF80B3F5B01F0CD8B3F5901F14
:100C400000F09680B3F5A01F00F09780B3F5801FE9
:100C500000F08180B8E0B3F5D01F00F0AD80B3F5AF
:100C6000E01F00F0AD80B3F5C01F00F0A180ABE045
:100C700002F09EFCF8605B4B1B6803F4E0339B0BB7
:100C80000133FA68B2FBF3F3FB60A5E002F090FCDD
:100C9000F860544B1B6803F4E0339B0B0133FA6894
:100CA000B2FBF3F3FB604F4B9B6803F00F03FA6852
:100CB00022FA03F3FB608FE002F056FCF8608BE051
:100CC0000020FFF79DFEF86086E00020FFF798FE09
:100CD000F860444B9B6E03F0F0031B09FA6822FA9C
:100CE00003F3FB6078E00020FFF78AFEF8603D4BDD
:100CF0009B6E03F470631B0AFA6822FA03F3FB602D
:100D00006AE00020FFF77CFEF860364B9B6E03F430
:100D100040531C0B1020FFF7B3FD03462344FA6831
:100D200022FA03F3FB6057E00020FFF769FEF8604A
:100D30002C4B9B6E03F440531B0BFA6822FA03F30F
:100D4000FB60284BDB6F03F007030133FA68B2FB4B
:100D5000F3F3FB6040E00020FFF752FEF860214B08
:100D60009B6E03F00303FA6822FA03F3FB6033E09F
:100D70000120FFF745FEF8602EE00120FFF740FE5E
:100D8000F860184B1B6F03F00303FA6822FA03F3B1
:100D9000FB6021E00120FFF733FEF860114B1B6F71
:100DA00003F030031B09FA6822FA03F3FB6013E037
:100DB000FFF7F4FDF8600FE0FFF7AAFDF8600BE025
:100DC000FFF780FDF86007E007484FF49D61FFF7EB
:100DD000A9FB0023FB6000BFFB6818461437BD4623
:100DE00090BD00BF00800C40383B000080B584B04F
:100DF00000AF78600123FB737B6803F00F03BB60D7
:100E0000BB68013B042B00F28F8001A252F823F053
:100E1000250E00005B0E0000970E0000D30E0000B0
:100E2000F50E0000474BDB6A03F47053B3F5805FA7
:100E300009D0B3F5005F03D0B3F5006F06D008E02A
:100E40000223FB7308E00323FB7305E00423FB7319
:100E500002E00523FB7300BF6EE03A4B9B6A03F090
:100E60000303022B06D0032B07D0012B08D1032349
:100E7000FB730FE00223FB730CE00623FB7309E016
:100E8000304B9B6A03F48033002B02D00923FB73A1
:100E900000E000BF50E02B4B9B6A03F00C03082BD3
:100EA00006D00C2B07D0042B08D10323FB730FE0D3
:100EB0000223FB730CE00623FB7309E0214B9B6AC2
:100EC00003F48013002B02D00923FB7300E000BF62
:100ED00032E01C4B1B6803F08053002B03D0B3F1AE
:100EE000805F03D028E00723FB7302E00823FB7335
:100EF00000BF21E0134BDB6A03F46033B3F5803F9E
:100F000008D0B3F5003F08D0B3F5004F08D108234F
:100F1000FB7308E00223FB7305E00323FB7302E08D
:100F20000123FB7300BF07E0074840F28751FFF73A
:100F3000F9FA0023FB7300BFFB7B18461037BD4650
:100F400080BD00BF00800C40383B000080B500AF82
:100F500002F00AFB80BD00BF80B400AF034B00224B
:100F6000C3F88420BD465DF8047B704700800C40C8
:100F700080B400AF044B45F60E02C3F88420BD4692
:100F80005DF8047B704700BF00800C4080B582B0E4
:100F900000AF274BD3F8843003F001037B60FFF7E9
:100FA000E7FF234B234A128802F4AA721A62214BEC
:100FB0001B8803F47053B3F5805F06D0B3F5005F70
:100FC0000ED0B3F5006F16D020E000BF184BDB6ADF
:100FD00003F08003002BF9D0154B03225A6215E071
:100FE00000BF134BDB6A03F40073002BF9D0104BE6
:100FF00004225A620AE000BF0D4BDB6A03F00803CB
:10100000002BF9D00A4B02225A6200BF094B1B8801
:1010100003F00103002B02D1054B02221A627B6808
:10102000002B01D0FFF798FF0837BD4680BD00BFF9
:1010300000800C40A800002080B483B000AF174BA4
:101040001B699BB203F03F039BB21B02FB80134B57
:101050009B699BB203F0F0039AB2FB881343FB80B9
:101060000E4BDB6903F0F0031B099AB2FB881343B4
:10107000FB80FB88B3F5827F03D3FB88B3F5017F48
:1010800001D1012300E0002303F00103DBB2184685
:101090000C37BD465DF8047B704700BFD0FF0FE002
:1010A00080B586B000AF0346FB711F4BDB6A9AB276
:1010B0001E4B1A801E4B1E4A126942F004021A612E
:1010C000FFF7BAFF0346FB75FB7D002B11D0194BD0
:1010D0001A68194B1340FB60164BFA68C3F880205E
:1010E000144B5B6823F046033B61124B3A69C3F82B
:1010F000842030BFFB7D002B05D00E4BFA681A60B0
:101100000C4B3A695A60FB79002B02D0FFF73EFF87
:1011100007E0064B1B8803F48063002B01D1FFF727
:1011200015FF1837BD4680BD00800C40A800002088
:1011300000ED00E000E100E09CF1FD0080B586B02C
:1011400000AF0346FB71284BDB6A9AB2274B1A802B
:10115000254BD3F8843003F001037B61FFF708FFD0
:10116000214B4FF420721A627B69002B01D0FFF7EC
:10117000F3FE1F4B1E4A126942F004021A61FFF788
:101180005BFF0346FB74FB7C002B11D0194B1A68E4
:10119000194B1340BB60174BBA68C3F88020154B3E
:1011A0005B6823F04603FB60124BFA68C3F88420A7
:1011B00030BFFB7C002B05D00E4BBA681A600D4B7C
:1011C000FA685A60FB79002B02D0FFF7DFFE07E0D8
:1011D000064B1B8803F48063002B01D1FFF7B6FE9A
:1011E0001837BD4680BD00BF00800C40A80000201D
:1011F00000ED00E000E100E09CF1FD0080B483B070
:1012000000AF0D4B4AF6E8529A6000237B6008E07D
:10121000094B08221A60084B0C221A607B680133C4
:101220007B607B68032BF3DD034B08221A600C37CD
:10123000BD465DF8047B704700600C4090B585B0FA
:1012400000AFB9607B600346FB731346BB73FB7B47
:10125000052B02D8BB680F2B03D94948CC21FFF7D7
:1012600061F9BB7B002B1FD07B68002B0ED045485B
:10127000FA7BBB68012101FA03F319461346DB0030
:1012800013449B000344103319600DE03D48FA7B82
:10129000BB68012101FA03F319461346DB0013442E
:1012A0009B00034410335960BB68072B1DD8354899
:1012B000FA7B344CF97B0B46DB000B449B00234448
:1012C0005968BB689B000F2404FA03F3DB43194001
:1012D000BC7BBB689B0004FA03F319431346DB0095
:1012E00013449B000344596024E02648FA7B254CB4
:1012F000F97B0B46DB000B449B0023440833196841
:10130000BB6803F18043083B9B000F2404FA03F3FE
:10131000DB431940BC7BBB6803F18043083B9B0067
:1013200004FA03F319431346DB0013449B00034400
:1013300008331960BB7B002B1FD17B68002B0ED0BC
:101340001048FA7BBB68012101FA03F319461346E2
:10135000DB0013449B000344103319600DE009487F
:10136000FA7BBB68012101FA03F319461346DB003F
:1013700013449B000344103359601437BD4690BD9D
:10138000883B00000060004080B487B000AFF86088
:10139000B9607A60FB6803F10473DA00BB68134438
:1013A0009B007B617B697A681A601C37BD465DF8DB
:1013B000047B704780B400AF034B00229A60BD46A7
:1013C0005DF8047B704700BF00600C4080B400AF44
:1013D000034B4AF6E8529A60BD465DF8047B7047BD
:1013E00000600C4080B582B000AF02460B46FA7137
:1013F000BB71FA79BB79044811461A46FFF7C4FF5E
:101400000837BD4680BD00BF00A00C4080B582B04B
:1014100000AF0F4B01229A600E4B9B6803F0010353
:101420007B607B68002B01D0FFF7D0FF0A480021CA
:101430000122FFF7A9FF084800210022FFF7A4FFBF
:101440007B68002B01D0FFF7B5FF0837BD4680BD94
:1014500000A00C4000600C4024600C4080B485B0BB
:1014600000AF164B5B687B600023FB600023BB6012
:101470001AE0134BBA6853F832207B681340002BF4
:101480000FD00F4ABB68DB0013445A687B681340D7
:10149000002B06D10A4BBA6853F83230FA6813436E
:1014A000FB60BB680133BB60BB680F2BE1DDFB68F1
:1014B00018461437BD465DF8047B704700A00C4009
:1014C000D83B000080B584B000AF78607B68002B0B
:1014D00003D11A483F21FFF725F8194B5B69DBB2AE
:1014E00003F00F03DBB29B00FB73154B1B6903F08A
:1014F000C0039B09DAB2FB7B1343FB737B68FA7B67
:101500009A700F4B1B69DBB203F03F03DAB27B68C2
:101510005A700B4B9B69DBB223F00F03FB73084B34
:10152000DB6903F0F0031B09DAB2FB7B1343FB73A7
:101530007B68FA7B1A701037BD4680BD583C0000AE
:10154000D0FF0FE080B584B000AF78600023FB606F
:101550007B6803F00703002B04D07B6823F00703AC
:1015600008337B6000F00CFF164B1B68002B05D185
:10157000154B23F007031A46124B1A60134B1A68D7
:101580007B681A4442F21F339A4213D80F4B1A68F1
:101590007B681A440D4B1B689A420BD9094B1A6899
:1015A0000A4B1B681344FB60084B1A687B681A449B
:1015B000064B1A6000F0F2FEFB6818461037BD4675
:1015C00080BD00BFDC230020B8000020D82300200D
:1015D00080B582B000AF78607B68002B03D00348F1
:1015E0009621FEF79FFF0837BD4680BDAC3C00004A
:1015F00080B483B000AF78607B6803F108027B6839
:101600005A607B684FF0FF329A607B6803F10802F2
:101610007B68DA607B6803F108027B681A617B688B
:1016200000221A600C37BD465DF8047B704700BF8E
:1016300080B483B000AF78607B6800221A610C37F9
:10164000BD465DF8047B704780B485B000AF78601C
:1016500039607B685B68FB603B68FA685A60FB68CE
:101660009A683B689A60FB689B683A685A60FB68B6
:101670003A689A603B687A681A617B681B685A1CF2
:101680007B681A601437BD465DF8047B704700BF65
:1016900080B485B000AF786039603B681B68BB6080
:1016A000BB68B3F1FF3F03D17B681B69FB600CE0B3
:1016B0007B680833FB6002E0FB685B68FB60FB68EB
:1016C0005B681A68BB689A42F6D9FB685A683B683F
:1016D0005A603B685B683A689A603B68FA689A604F
:1016E000FB683A685A603B687A681A617B681B68D5
:1016F0005A1C7B681A601437BD465DF8047B70473E
:1017000080B485B000AF78607B685B687A68926867
:101710009A607B689B687A6852685A607B681B692C
:10172000FB60FB685A687B689A4203D17B689A68C1
:10173000FB685A607B6800221A61FB681B685A1EAE
:10174000FB681A60FB681B6818461437BD465DF8D5
:10175000047B704780B485B000AFF860B9607A60F0
:10176000FB68043BFB60FB684FF080721A60FB680B
:10177000043BFB60BA68FB681A60FB68043BFB60D3
:10178000FB6800221A60FB68143BFB607A68FB6808
:101790001A60FB68203BFB60FB6818461437BD46A7
:1017A0005DF8047B704700BF064B19680868B0E815
:1017B000F00F80F309884FF0000080F311884EF09D
:1017C0000D0E7047E823002003480068006880F38E
:1017D000088862B600DF00BF08ED00E080B584B085
:1017E00000AF274BFB60FB681B78DBB2BB60FB687C
:1017F000FF221A70FB681B78DBB2FB71FB79DBB24E
:1018000023F04003DAB21F4B1A701F4B07221A60F5
:1018100009E01D4B1B685A1E1B4B1A60FB79DBB29B
:101820005B00DBB2FB71FB79DBB2DBB25BB2002B9E
:10183000EFDB154B1B681A02134B1A60124B1B6827
:1018400003F4E062104B1A60BB68DAB2FB681A70EE
:101850000E4B0E4A126842F47F021A600B4B0B4A81
:10186000126842F07F421A60FEF7A8FD084B002282
:101870001A60FFF7A9FF002318461037BD4680BD48
:1018800000E400E0E0230020E423002020ED00E05D
:101890001000002080B400AF054B4FF080521A605A
:1018A000BFF34F8FBFF36F8FBD465DF8047B70476A
:1018B00004ED00E080B500AF00F01EF8044B1B689B
:1018C0005A1C034B1A60BFF34F8FBFF36F8F80BD5D
:1018D0001000002080B500AF064B1B685A1E054B58
:1018E0001A60044B1B68002B02D1002000F00EF898
:1018F00080BD00BF10000020EFF311804FF0BF014A
:1019000081F3118870470023184600BF80F31188C7
:10191000704700BFEFF309800C4B1A6820E9F00F05
:1019200010602DE908404FF0BF0080F3118800F0EF
:10193000A1FE4FF0000080F31188BDE8084019684F
:101940000868B0E8F00F80F309887047E8230020AA
:1019500080B500AFFFF7D0FF00F0C2FD0346002BBB
:1019600003D0044B4FF080521A600020FFF7CEFFE7
:1019700080BD00BF04ED00E080B582B000AFEFF3A2
:1019800005837B607B680F2B0ED90F4A7B6813445D
:101990001B78FB700D4B1B78FA789A4204D20C48E6
:1019A00040F26F21FEF7BEFD0A4B1B6803F4E062B4
:1019B000094B1B689A4204D9054840F27F21FEF783
:1019C000B1FD0837BD4680BDF0E300E0E023002014
:1019D0001C3D00000CED00E0E423002080B584B045
:1019E00000AF786039607B68FB60FB68002B03D137
:1019F0002748F221FEF796FDFFF75CFFFB681A68A7
:101A0000FB68DB6BF968096C01FB03F31A44FB68A4
:101A10005A60FB6800229A63FB681A68FB689A6048
:101A2000FB681A68FB68DB6B013BF968096C01FB1A
:101A300003F31A44FB68DA60FB684FF0FF325A6424
:101A4000FB684FF0FF329A643B68002B0ED1FB68B5
:101A50001B69002B14D0FB681033184600F0C2FE3F
:101A60000346012B0CD1FFF715FF09E0FB6810338B
:101A70001846FFF7BDFDFB6824331846FFF7B8FD95
:101A8000FFF728FF012318461037BD4680BD00BF71
:101A90008C3D000080B588B000AFF860B960134697
:101AA000FB710023FB61FB68002B26D04C20FFF765
:101AB00049FDB861BB69002B1FD0FB68BA6802FB07
:101AC00003F301337B617869FFF73CFD0246BB6994
:101AD0001A60BB691B68002B0CD0BB69FA68DA631B
:101AE000BB69BA681A64B8690121FFF777FFBB695F
:101AF000FB6102E0B869FFF76BFDFB69002B04D1C5
:101B0000044840F24F11FEF70DFDFB6918462037DF
:101B1000BD4680BD8C3D000080B588B000AFF86048
:101B2000B9607A603B600023FB61FB68BB61BB6905
:101B3000002B04D14E4840F22F21FEF7F3FCBB6886
:101B4000002B08D1BB691B6C002B04D048484FF414
:101B50000C71FEF7E7FC3B68022B08D1BB69DB6B1D
:101B6000012B04D0424840F23121FEF7DBFCFFF7A5
:101B7000A1FEBB699A6BBB69DB6B9A4202D33B68DF
:101B8000022B16D1B869B9683A6800F0A9F9BB69A7
:101B90005B6A002B09D0BB692433184600F022FE93
:101BA0000346012B01D1FFF775FEFFF793FE0123DA
:101BB00059E07B68002B03D1FFF78CFE002352E035
:101BC000FB69002B06D107F11003184600F064FEF4
:101BD0000123FB61FFF77EFE00F0D2FBFFF76AFEF8
:101BE000BB695B6CB3F1FF3F02D1BB6900225A6451
:101BF000BB699B6CB3F1FF3F02D1BB6900229A64C1
:101C0000FFF768FE07F110023B1D1046194600F071
:101C100061FE0346002B1ED1B86900F051FA03465D
:101C2000002B12D0BB6903F110027B6810461946E5
:101C300000F072FDB86900F0E1F900F0AFFB034677
:101C4000002B0FD1FFF726FE0CE0B86900F0D6F9A3
:101C500000F0A4FB8BE7B86900F0D0F900F09EFB20
:101C6000002300E083E718462037BD4680BD00BF53
:101C70008C3D000080B588B000AFF860B9607A6034
:101C80003B60FB68BB61BB69002B04D12C4840F270
:101C9000A131FEF747FCBB68002B08D1BB691B6C68
:101CA000002B04D0264840F2A231FEF73BFC3B68F3
:101CB000022B08D1BB69DB6B012B04D0204840F21A
:101CC000A331FEF72FFCFFF757FEFFF715FE7861F3
:101CD000BB699A6BBB69DB6B9A4202D33B68022BF0
:101CE00024D1B869B9683A6800F0FAF8BB699B6C0E
:101CF000B3F1FF3F12D1BB695B6A002B13D0BB6904
:101D00002433184600F06EFD0346002B0BD07B6891
:101D1000002B08D07B6801221A6004E0BB699B6C31
:101D20005A1CBB699A640123FB6101E00023FB613B
:101D30007869FFF7EBFDFB6918462037BD4680BD8B
:101D40008C3D000080B58AB000AFF860B9607A6061
:101D50003B6000237B62FB683B623B6A002B04D143
:101D60005E4840F21241FEF7DDFBBB68002B08D154
:101D70003B6A1B6C002B04D0584840F21341FEF71D
:101D8000D1FBFFF797FD3B6A9B6B002B3BD03B6A77
:101D9000DB68FB61386AB96800F00AF93B68002B20
:101DA0001CD13B6A9B6B5A1E3B6A9A633B6A1B6859
:101DB000002B04D100F032FF02463B6A5A603B6AB6
:101DC0001B69002B1BD03B6A1033184600F00AFD3C
:101DD0000346012B13D1FFF75DFD10E03B6AFA6962
:101DE000DA603B6A5B6A002B09D03B6A24331846F1
:101DF00000F0F8FC0346002B01D0FFF74BFDFFF786
:101E000069FD012366E07B68002B03D1FFF762FDCB
:101E100000235FE07B6A002B06D107F1140318460C
:101E200000F03AFD01237B62FFF754FD00F0A8FAB1
:101E3000FFF740FD3B6A5B6CB3F1FF3F02D13B6AA9
:101E400000225A643B6A9B6CB3F1FF3F02D13B6AAC
:101E500000229A64FFF73EFD07F114023B1D104675
:101E6000194600F037FD0346002B2BD1386A00F0ED
:101E700011F90346002B1FD03B6A1B68002B08D1C9
:101E8000FFF718FD3B6A5B68184600F0F5FEFFF7A8
:101E900021FD3B6A03F124027B681046194600F0DD
:101EA0003BFC386A00F0AAF800F078FA0346002BF1
:101EB0000FD1FFF7EFFC0CE0386A00F09FF800F05C
:101EC0006DFA5EE7386A00F099F800F067FA0023CF
:101ED00000E056E718462837BD4680BD8C3D00001F
:101EE00080B584B000AFF860B9607A60FB681B6CA5
:101EF000002B0CD1FB681B68002B51D1FB685B6881
:101F0000184600F013FFFB6800225A6048E07B6827
:101F1000002B1AD1FB689A68FB681B6C1046B968E5
:101F20001A4601F05BFDFB689A68FB681B6C1A445B
:101F3000FB689A60FB689A68FB685B689A422FD3DB
:101F4000FB681A68FB689A602AE0FB68DA68FB683D
:101F50001B6C1046B9681A4601F040FDFB68DA6850
:101F6000FB681B6C5B421A44FB68DA60FB68DA684A
:101F7000FB681B689A4207D2FB685A68FB681B6CB7
:101F80005B421A44FB68DA607B68022B08D1FB686D
:101F90009B6B002B04D0FB689B6B5A1EFB689A63FB
:101FA000FB689B6B5A1CFB689A631037BD4680BD6B
:101FB00080B582B000AF786039607B681B68002B09
:101FC00019D07B68DA687B681B6C1A447B68DA601E
:101FD0007B68DA687B685B689A4203D37B681A681F
:101FE0007B68DA607B68DA687B681B6C386811464E
:101FF0001A4601F0F3FC0837BD4680BD80B582B0BB
:1020000000AF7860FFF756FC14E07B685B6A002B3A
:102010000AD07B682433184600F0E4FB0346002B0B
:1020200003D000F0ADFC00E008E07B689B6C5A1E1A
:102030007B689A647B689B6C002BE6DC7B684FF0C6
:10204000FF329A64FFF746FCFFF734FC14E07B682C
:102050001B69002B0FD07B681033184600F0C2FBC1
:102060000346002B01D000F08BFC7B685B6C5A1E92
:102070007B685A6400E003E07B685B6C002BE6DC65
:102080007B684FF0FF325A64FFF724FC0837BD46E7
:1020900080BD00BF80B584B000AF7860FFF70AFC58
:1020A0007B689B6B002B02D10123FB6001E00023C6
:1020B000FB60FFF70FFCFB6818461037BD4680BD7C
:1020C00080B584B000AF7860FFF7F4FB7B689A6B53
:1020D0007B68DB6B9A4202D10123FB6001E00023A5
:1020E000FB60FFF7F7FBFB6818461037BD4680BD65
:1020F00080B584B000AF786039607B68FB60FFF723
:10210000D9FBFB685B6CB3F1FF3F02D1FB68002297
:102110005A64FB689B6CB3F1FF3F02D1FB6800225D
:102120009A64FFF7D7FBFB689B6B002B05D1FB681C
:1021300024331846396800F029FBF868FFF75EFF82
:102140001037BD4680BD00BF80B58AB002AFF860D1
:10215000B9603B601346FB80FB68002B04D14F48FD
:1021600040F2E311FEF7DEF9BB6A022B04D94B48BB
:102170004FF4F271FEF7D6F9FB881846396B00F080
:102180000BFDB861BB69002B70D0BB691A6BFB8873
:1021900003F18043013B9B0013447B617B6923F087
:1021A00007037B617B6903F00703002B04D03B48E6
:1021B00040F20621FEF7B6F9FB880093B869B968CA
:1021C000BA6A7B6B00F0F2FB7869F9683A68FFF74E
:1021D000C1FA0246BB691A60FB6A002B02D0FB6A97
:1021E000BA691A60FFF766FB2D4B1B685A1C2C4B13
:1021F0001A602C4B1B68002B09D12A4BBA691A6054
:10220000274B1B68012B0FD100F018FC0CE0264B6C
:102210001B68002B08D1234B1B68DA6ABB6A9A4201
:1022200002D8204BBA691A60204B1B685A1C1F4BFE
:102230001A60BB69DA6A1E4B1B689A4203D9BB69F4
:10224000DA6A1B4B1A60BB69DA6A13469B001344B7
:102250009B00184A1A44BB69043310461946FFF71D
:10226000F3F90123FB61FFF735FB02E04FF0FF3389
:10227000FB61FB69012B0BD10B4B1B68002B07D0BB
:10228000084B1B68DA6ABB6A9A4201D2FFF702FB6D
:10229000FB6918462037BD4680BD00BFE83D000001
:1022A00098240020E8230020A4240020B824002043
:1022B000A0240020EC23002080B584B000AF78601B
:1022C0000023FB607B68002B12D000F059F80C4B08
:1022D0001A687B681344BB600A4B1B6804331846BA
:1022E000FFF70EFAB86800F021FC00F057F8F8602C
:1022F000FB68002B01D1FFF7CDFA1037BD4680BD3A
:102300009C240020E823002080B586B004AF002381
:1023100000930023019300230293002303931348A7
:1023200013498C220023FFF70FFF78607B68012B95
:1023300002D100F039FD78607B68012B0AD1FFF7EC
:10234000DBFA0C4B01221A600B4B00221A60FFF7DC
:1023500045FA07E07B68002B04D1084840F204519D
:10236000FEF7E0F80837BD4680BD00BF99290000A0
:10237000443E0000A42400209C240020E83D0000EE
:1023800080B400AF044B1B685A1C034B1A60BD4657
:102390005DF8047B704700BFA824002080B584B09E
:1023A00000AF0023FB600023BB603B4B1B68002B8E
:1023B00004D13A484FF4A861FEF7B4F8FFF77AFA6F
:1023C000354B1B685A1E344B1A60334B1B68002B6D
:1023D0005AD1334B1B68002B56D02EE0314BDB68B3
:1023E000DB687B607B6818331846FFF789F97B68E8
:1023F00004331846FFF784F97B68DA6A2A4B1B68B6
:102400009A4203D97B68DA6A274B1A607B68DA6ADA
:1024100013469B0013449B00244A1A447B680433F0
:1024200010461946FFF710F97B68DA6A204B1B68E3
:10243000DB6A9A4201D30123BB601A4B1B68002B55
:10244000CCD11C4B1B68002B10D00BE000F048F8DF
:102450000346002B01D00123BB60164B1B685A1E9C
:10246000144B1A60134B1B68002BEFD1BB68012B78
:1024700003D0114B1B68012B06D10123FB600E4BCF
:1024800000221A60FFF706FAFFF724FAFB681846E5
:102490001037BD4680BD00BFA8240020E83D0000E5
:1024A0009824002058240020A0240020EC230020A1
:1024B000E8230020AC240020B024002080B582B0A6
:1024C00000AFFFF7F7F9054B1B687B60FFF702FAD7
:1024D0007B6818460837BD4680BD00BF9C2400209D
:1024E00080B586B000AF00237B61574B1B68002B83
:1024F00040F0A080554B1B685A1C544B1A60534B3C
:102500001B683B613B69002B30D1514B1B681B683A
:10251000002B04D04F4840F23A61FEF703F84C4BD1
:102520001B68FB604C4B1A68494B1A604A4BFA68AF
:102530001A604A4B1B685A1C484B1A60444B1B6874
:102540001B68002B01D1012300E00023002B04D0E5
:10255000434B4FF0FF321A6008E03D4B1B68DB68CD
:10256000DB68BB60BB685A683D4B1A603C4B1B681C
:102570003A699A424FD3364B1B681B68002B01D136
:10258000012300E00023002B04D0354B4FF0FF3235
:102590001A6040E02E4B1B68DB68DB68BB60BB68E1
:1025A0005B687B603A697B689A4203D22C4B7A68FD
:1025B0001A6030E0BB6804331846FFF7A1F8BB6827
:1025C0009B6A002B04D0BB6818331846FFF798F8B5
:1025D000BB68DA6A234B1B689A4203D9BB68DA6A84
:1025E000204B1A60BB68DA6A13469B0013449B00B9
:1025F0001D4A1A44BB68043310461946FFF724F8F5
:10260000BB68DA6A194B1B68DB6A9A4202D3012362
:102610007B61B0E7AFE7154B1B68DA6A12491346D6
:102620009B0013449B000B441B68012B07D901231B
:102630007B6104E00E4B1B685A1C0D4B1A607B69D2
:1026400018461837BD4680BDA82400209C240020D1
:1026500050240020E83D000054240020B424002031
:1026600014000020A0240020EC230020E8230020F8
:10267000AC24002080B582B000AF214B1B68002B3A
:1026800003D0204B01221A6037E00DE01E4B1B687F
:10269000002B04D11D4840F22771FDF743FF1A4B70
:1026A0001B685A1E184B1A60174B1A6818491346B4
:1026B0009B0013449B000B441B68002BE6D0124B7D
:1026C0001A6813469B0013449B00114A13447B6015
:1026D0007B685B685A687B685A607B685A687B686D
:1026E00008339A4204D17B685B685A687B685A60F9
:1026F0007B685B68DA68074B1A600837BD4680BDA7
:10270000A8240020B0240020A0240020E83D0000E0
:10271000EC230020E823002080B584B000AF78606F
:1027200039607B68002B04D1144840F23A71FDF700
:10273000F9FE134B1B68183378681946FEF7A8FF9B
:102740000F4B1B6804331846FEF7DAFF3B68B3F102
:10275000FF3F07D10A4B1B6804330A481946FEF7AE
:1027600073FF07E0084B1A683B681344FB60F86886
:1027700000F0DCF91037BD4680BD00BFE83D000029
:10278000E8230020842400209C24002080B584B00D
:1027900000AF786039607B68002B04D10E484FF49D
:1027A000EE61FDF7BFFE0D4B1B68183378681946C4
:1027B000FEF74AFF094B1B6804331846FEF7A0FFDB
:1027C000074B1A683B681344FB60F86800F0AEF9E9
:1027D0001037BD4680BD00BFE83D0000E823002063
:1027E0009C24002080B584B000AF78607B68DB68F3
:1027F000DB68BB60BB68002B04D1214840F2A671A6
:10280000FDF790FEBB6818331846FEF779FF1D4BA5
:102810001B68002B1DD1BB6804331846FEF770FF00
:10282000BB68DA6A184B1B689A4203D9BB68DA6A3C
:10283000154B1A60BB68DA6A13469B0013449B0071
:10284000124A1A44BB68043310461946FEF7FCFED0
:1028500005E0BB6818330E481946FEF7F5FEBB6865
:10286000DA6A0C4B1B68DB6A9A4202D30123FB60D5
:1028700001E00023FB60FB6818461037BD4680BDB1
:10288000E83D0000A8240020A0240020EC23002024
:1028900058240020E823002080B582B000AF786083
:1028A0007B68002B04D108484FF4F961FDF73AFE2C
:1028B000064B1A687B681A60054B1A687B685A6079
:1028C0000837BD4680BD00BFE83D0000B4240020AD
:1028D0009C24002080B584B000AF786039607B68AC
:1028E000002B04D1234840F2D271FDF71BFE3B6858
:1028F000002B04D11F4840F2D371FDF713FEFEF701
:10290000D9FF1D4B1B68BB603B681B68B3F1FF3FE1
:1029100002D10023FB6026E07B681A68174B1B6816
:102920009A4207D07B685A68BB689A4202D8012352
:10293000FB6018E07B685B68BA68D21A3B681B686A
:102940009A420ED23B681A687B685968BB68CB1AFA
:102950001A443B681A607868FFF79EFF0023FB600B
:1029600001E00123FB60FEF7B5FFFB681846103756
:10297000BD4680BDE83D00009C240020B42400201A
:1029800080B400AF034B01221A60BD465DF8047BA2
:10299000704700BFB024002080B582B000AF7860DF
:1029A00000F08AF8FDF7E2FCFAE700BF80B586B0D8
:1029B00000AFF860B9607A603B6000237B6112E091
:1029C000BA687B6913441A78F9687B690B44303321
:1029D0001A71BA687B6913441B78002B00D105E09B
:1029E0007B6901337B617B69092BE9D9FB68002294
:1029F00083F83D207B68022B01D902237B60FB68B2
:102A00007A68DA62FB687A681A64FB6804331846ED
:102A1000FEF70EFEFB6818331846FEF709FEFB684A
:102A2000FA681A617B68C3F10302FB689A61FB686C
:102A3000FA685A621837BD4680BD00BF80B582B0C3
:102A400000AF00237B600CE07A6813469B001344C0
:102A50009B00114A13441846FEF7CAFD7B680133F8
:102A60007B607B68022BEFD90C48FEF7C1FD0C4858
:102A7000FEF7BEFD0B48FEF7BBFD0B48FEF7B8FDA9
:102A80000A48FEF7B5FD0A4B044A1A60094B044A8E
:102A90001A600837BD4680BDEC23002028240020A2
:102AA0003C240020582400206C2400208424002092
:102AB000502400205424002080B582B000AF28E0CC
:102AC000FFF75EFC164B1B68002B14BF002301238D
:102AD000DBB27B60FFF762FC7B68002B19D1FEF74D
:102AE000E9FE0F4BDB68DB683B603B68043318464C
:102AF000FEF706FE0B4B1B685A1E0A4B1A600A4B68
:102B00001B685A1E084B1A60FEF7E4FE386800F096
:102B100075F8054B1B68002BD2D10837BD4680BD28
:102B20006C240020982400208024002080B582B0EE
:102B300000AF7860134B1B687A685A60124B1B68B1
:102B40007A689A4209D2114B1A680E4B1B680433FB
:102B500010461946FEF79CFD10E00D4B1A68094B14
:102B60001B68043310461946FEF792FD094B1B689B
:102B70007A689A4202D2074B7A681A600837BD46D3
:102B800080BD00BFE82300209C24002054240020A6
:102B9000502400201400002080B584B000AF03460C
:102BA0003960FB804420FEF7CDFCF860FB68002B09
:102BB0001FD03B68002B06D1FB889B001846FEF710
:102BC000C1FC034600E03B68FA681363FB681B6BBB
:102BD000002B05D1F868FEF7FBFC0023FB6008E042
:102BE000FB681A6BFB889B001046A5211A4600F073
:102BF000FEFEFB6818461037BD4680BD80B582B02A
:102C000000AF78607B681B6B1846FEF7E1FC7868C4
:102C1000FEF7DEFC0837BD4680BD00BF80B483B040
:102C200000AF054B1B687B607B6818460C37BD46C0
:102C30005DF8047B704700BFE823002080B483B0B8
:102C400000AF0B4B1B68002B02D100237B6008E018
:102C5000084B1B68002B02D101237B6001E002239B
:102C60007B607B6818460C37BD465DF8047B704777
:102C7000A4240020A824002080B584B000AF786090
:102C80007B68FB607B68002B46D0FB68DA6A244BCC
:102C90001B68DB6A9A423FD2214B1B68DB6AC3F197
:102CA0000302FB689A61FB685969FB68DA6A13469C
:102CB0009B0013449B001B4A1344994201D10123FA
:102CC00000E00023002B22D0FB6804331846FEF7F7
:102CD00017FD134B1B68DA6AFB68DA62FB68DA6A75
:102CE000114B1B689A4203D9FB68DA6A0E4B1A60D3
:102CF000FB68DA6A13469B0013449B00094A1A4496
:102D0000FB68043310461946FEF79EFC04E0044BB2
:102D10001B68DA6AFB68DA621037BD4680BD00BF07
:102D2000E8230020EC230020A024002080B584B0FC
:102D300000AF78607B68FB607B68002B2CD0FB6861
:102D4000DA6AFB681B6C9A4226D0FB68043318468B
:102D5000FEF7D6FCFB681A6CFB68DA62FB68DB6A7C
:102D6000C3F10302FB689A61FB68DA6A0C4B1B68CB
:102D70009A4203D9FB68DA6A094B1A60FB68DA6A7F
:102D800013469B0013449B00064A1A44FB68043315
:102D900010461946FEF758FC1037BD4680BD00BFEF
:102DA000A0240020EC23002080B586B004AF0023CF
:102DB0007B6000F055FA0F4B1B68002B0ED00223EE
:102DC00000930023019300230293002303930A48F6
:102DD0000A498C220023FFF7B7F978607B68002B43
:102DE00003D10748DF21FDF79DFB7B6818460837B4
:102DF000BD4680BDEC240020092F00004C3E0000A1
:102E0000543E000080B588B000AFF860B9607A60C9
:102E10003B600023FB611D4B1B68002B30D0BB685F
:102E20003B617B687B61FB68BB613B68002B1CD10D
:102E3000FFF704FF0346012B0BD1144B1A6807F16F
:102E4000100310461946BA6A0023FEF765FEF861C2
:102E500016E00E4B1A6807F11003104619460022BF
:102E60000023FEF759FEF8610AE0084B1A6807F1E3
:102E70001003104619463A680023FEF7FBFEF8617E
:102E8000FB6918462037BD4680BD00BFEC240020FA
:102E900080B586B002AF78603960194B1B68DB687B
:102EA000DB68FB60FB6804331846FEF729FCFB680F
:102EB000DB69012B1DD1FB689A697B681344F868B4
:102EC00019463A687B6800F0ADF80346012B10D133
:102ED00000230093F86800217A680023FFF792FF2F
:102EE000B860BB68002B04D1064840F25711FDF7CB
:102EF00019FBFB685B6AF86898471037BD4680BDD0
:102F0000E4240020543E000080B584B000AF786017
:102F100007F10803184600F03FF8F860BB68F8684E
:102F2000194600F003F800F0BFF8F1E780B584B06F
:102F300000AF78603960FFF723FA07F108031846FD
:102F400000F04EF8F860BB68002B1ED13B68002BE8
:102F50000AD17A68FB689A4206D8FFF71FFA7868A8
:102F6000F968FFF795FF12E00A4B1A687968FB6869
:102F7000CB1A10461946FFF7BBF8FFF70FFA0346C6
:102F8000002B04D1FEF786FC01E0FFF707FA1037AB
:102F9000BD4680BDEC24002080B485B000AF7860D1
:102FA0000E4B1B681B68002B14BF00230123DBB2F0
:102FB0001A467B681A607B681B68002B05D1074B9B
:102FC0001B68DB681B68FB6001E00023FB60FB689B
:102FD00018461437BD465DF8047B7047E424002092
:102FE00080B584B000AF7860FFF768FAF8600C4BEA
:102FF0001B68FA689A4208D2094B1B68184600F011
:10300000D1F87B6801221A6002E07B6800221A6016
:10301000034BFA681A60FB6818461037BD4680BD3E
:10302000F024002080B586B000AFF860B9607A6007
:103030003B6000237B61FB68BA685A60FB68FA68F2
:103040001A61BA687B689A4212D87A683B68D21AC9
:10305000FB689B699A4202D301237B611BE0104B02
:103060001A68FB68043310461946FEF711FB12E09C
:103070007A683B689A4206D2BA683B689A4202D3A1
:1030800001237B6107E0074B1A68FB680433104695
:103090001946FEF7FDFA7B6918461837BD4680BD14
:1030A000E8240020E424002080B58AB002AF64E068
:1030B0003B69FB61FB695B69002B04D0FB6904334E
:1030C0001846FEF71DFB3B1D1846FFF789FFB86148
:1030D000BB68032B50D801A252F823F0ED3000005A
:1030E000793100004331000071310000FA68FB695A
:1030F0009B691A44FB68F8691146BA69FFF792FFA9
:103100000346012B1CD1FB695B6AF8699847FB6990
:10311000DB69012B14D1FA68FB699B691344002217
:103120000092F86900211A460023FFF76BFE7861D0
:103130007B69002B04D119484FF40B71FDF7F2F9AC
:103140001BE0FA68FB699A61FB699B69002B04D15B
:10315000124840F23921FDF7E5F9FB699A69BB692C
:103160001344F8691946BA69BB69FFF75BFF04E0CD
:10317000F869FEF72DFA00E000BF094B1A6807F165
:1031800008031046194600220023FEF7DBFD034624
:10319000002B8DD12037BD4680BD00BF543E0000BE
:1031A000EC24002080B58AB002AF78603FE0294B64
:1031B0001B68DB681B68FB61264B1B68DB68DB68F0
:1031C000BB61BB6904331846FEF79AFABB695B6AB8
:1031D000B8699847BB69DB69012B28D1BB699A693B
:1031E000FB6913447B617A69FB699A420ED9BB691A
:1031F0007A695A60BB69BA691A61164B1A68BB6969
:10320000043310461946FEF743FA10E000230093FA
:10321000B8690021FA690023FFF7F4FD38613B69C2
:10322000002B04D10C484FF41E71FDF77BF9094BBC
:103230001B681B68002BBAD1064B1B68FB60074B51
:103240001A68044B1A60054BFA681A602037BD46AD
:1032500080BD00BFE4240020543E0000E82400208C
:1032600080B500AFFEF726FB0D4B1B68002B13D17A
:103270000C48FEF7BDF90C48FEF7BAF90B4B094AAA
:103280001A600B4B084A1A600A200C210022FEF734
:1032900001FC0246024B1A60FEF71CFB80BD00BF1A
:1032A000EC240020BC240020D0240020E4240020B2
:1032B000E824002080B400AF72B6084B1B68B3F15D
:1032C000FF3F04D0054B1B685A1C044B1A60034B8C
:1032D0001B681846BD465DF8047B7047AC000020B3
:1032E00080B483B000AF0C4B1B68002B0DD00A4B91
:1032F0001B685A1E084B1A60074B1B687B607B6873
:10330000002B00D162B67B6800E0002318460C3722
:10331000BD465DF8047B7047AC00002080B400AF70
:10332000054B054A126922F004021A6130BFBD46FE
:103330005DF8047B704700BF00ED00E080B582B00F
:1033400000AF78603960114B7A681A60104B3A68A8
:103350001A60104B00221A700E4B00225A700D4B4F
:1033600000229A70FEF77AF8034603F48073002B6C
:1033700009D0FEF74BF8064B1B68002B03D0044B1B
:103380001B68042098470837BD4680BDF424002000
:10339000F8240020FC24002080B582B000AFFFF7A5
:1033A00089FF00F017F80346FB71FB79002B07D06B
:1033B000FB79032B04D8FB79184600F031F801E0C3
:1033C0000023FB71FFF78CFFFB7918460837BD46D9
:1033D00080BD00BF80B483B000AF0023FB710F4BF2
:1033E0001B78002B0DD10123FB710C4B5B78002B5C
:1033F00007D10223FB71094B9B78002B01D10323DA
:10340000FB71FB79032B01D90323FB71FB79184670
:103410000C37BD465DF8047B704700BFFC240020DC
:1034200080B582B000AF0346FB71FB79002B02D060
:10343000FB79042B04D91C484FF4BE71FDF772F8D8
:103440001A4B1B68002B04D0184B1B68FA791046E6
:103450009847FB79013B032B18D801A252F823F0BF
:1034600071340000773400007F340000873400009E
:10347000FFF754FF0BE00120FDF712FE07E00120EB
:10348000FDF75CFE03E0FDF7B9FE00E000BF084B6E
:103490001B68002B04D0064B1B68FA79104698472E
:1034A0000837BD4680BD00BFB03E0000F4240020B8
:1034B000F8240020074880470749084A084B9B1A10
:1034C00040F30580043BC858D0503FF7FBAF054898
:1034D00000470000A1360000783F000000000020F7
:1034E0008800002055010000FEE7FEE7FEE7FEE74A
:1034F000FEE7FEE7FEE7FEE7FEE7FEE7FEE7FEE7A4
:10350000FEE7FEE7FEE7FEE7FEE7FEE7FEE7FEE793
:10351000FEE7FEE7FEE7FEE7FEE7FEE7FEE7FEE783
:10352000FEE7FEE7FEE7FEE7FEE7FEE7FEE7FEE773
:10353000FEE7FEE7FEE7FEE7FEE7FEE7FEE7FEE763
:10354000FEE7FEE7FEE7FEE7FEE700BF80B400AF60
:10355000044BDB6C1B0EDBB21846BD465DF8047BEA
:10356000704700BFB081E00F80B582B000AF00F0BF
:103570001FF878600C4B1B6803F4E0339B0B01339E
:103580007A68B2FBF3F37B60074B5B6803F00F03D1
:103590007A6822FA03F37B60044B7A681A607B68CE
:1035A00018460837BD4680BD00800C40002500202D
:1035B00080B582B000AF2F4BDB6A03F47053B3F5D4
:1035C000805F0AD0B3F5005F03D0B3F5006F08D079
:1035D0000BE0294B1B687B6047E04FF400437B60A6
:1035E00043E0264B1B687B603FE0224BDB6803F423
:1035F000E063B3F5007F1BD0B3F5007F05D8002B47
:1036000024D0B3F5807F16D02BE0B3F5806F09D0BE
:10361000B3F5A06F03D0B3F5407F06D021E0184B7F
:103620007B6021E0174B7B601EE0174B7B601BE04B
:10363000164B7B6018E0FFF789FF0346122B02D977
:10364000134B7B6010E0134B7B600DE0FFF77EFFB8
:103650000346122B02D9104B7B6005E00F4B7B60B9
:1036600002E000237B6000BF00BF7B68184608377C
:10367000BD4680BD00800C401C00002018000020CA
:10368000003FAB01406F4001809FD500C0D8A7002C
:1036900040B56400C0CF6A00804F120040420F0066
:1036A00080B400AFBD465DF8047B704780B400AFC6
:1036B0004FF400431846BD465DF8047B704700BFD9
:1036C00080B400AF4FF47A731846BD465DF8047BB2
:1036D000704700BF80B400AF034B1B681846BD465F
:1036E0005DF8047B704700BF1C00002080B582B0ED
:1036F00000AF03463960FB71FB79052B02D83B68AC
:103700000F2B04D90A4840F20B21FCF70BFF0948A4
:10371000FA793B68012101FA03F319461346DB00ED
:1037200013449B000344103319600837BD4680BD25
:10373000043F00000060004080B582B000AF034647
:103740003960FB71FB79052B02D83B680F2B04D93C
:103750000A4840F22221FCF7E5FE0948FA793B6865
:10376000012101FA03F319461346DB0013449B00C1
:103770000344183319600837BD4680BD043F00007C
:103780000060004080B582B000AF12480121FDF713
:10379000B1F911480121FDF7ADF900237B6011E07B
:1037A0000E4B7A6813F832200C497B68DB000B441F
:1037B0005B681046194604220023FDF73FFD7B6835
:1037C00001337B607B68012BEADD00231846083754
:1037D000BD4680BD1081020000D20200543F0000AF
:1037E00080B582B000AF78607B68002B11DB7B680E
:1037F000012B0EDC0A4B7A6813F8322008497B68EB
:10380000DB000B445B6810461946FFF76FFF00238F
:1038100001E04FF0FF3318460837BD4680BD00BFBA
:10382000543F000080B582B000AF78607B68002B09
:1038300011DB7B68012B0EDC0A4B7A6813F832200F
:1038400008497B68DB000B445B6810461946FFF7AC
:1038500073FF002301E04FF0FF3318460837BD46E1
:1038600080BD00BF543F000080B400AF2C4B2C4AF9
:10387000526C42F400525A642A4B2A4AD2F8202150
:1038800042F00402C3F82021264B264AD2F8202118
:1038900022F44072C3F82021224B224AD2F8B820E9
:1038A00022F47062C3F8B8201E4B1E4AD2F8B8202A
:1038B00042F48062C3F8B820194B10221A6200BF8C
:1038C000174BDB6A03F02003002BF9D0164BDB68A3
:1038D00003F08073002B1ED1134B134AD26842F0C1
:1038E0008072DA60114B124A1A60124B0F221A6171
:1038F000104B0222C3F8F0200E4B4FF48072C3F835
:1039000004234FF060430C4AC3F8B02F4FF06043DC
:103910000A4AC3F8802EBD465DF8047B704700BF9D
:1039200000800C4000600040F0ED00E0001000E07E
:10393000FF130140000004E055CEACC509000100B2
:1039400080B582B000AF4FF07E637B607B681B6800
:10395000002B01D1002302E0FFF786FF0123184668
:103960000837BD4680BD00BF08B5074B044613B1FC
:103970000021AFF30080054B1868836A03B19847B4
:10398000204600F03DF800BF00000000683F000046
:1039900070B50E4B0E4D0024ED1AAD101E46AC4214
:1039A00004D056F8242090470134F8E700F02AF8B4
:1039B000084D094B0024ED1AAD101E46AC4204D050
:1039C00056F8242090470134F8E770BD80000020AD
:1039D00080000020840000208000002010B500231B
:1039E000934203D0CC5CC4540133F9E710BD0244C8
:1039F0000346934202D003F8011BFAE77047000028
:103A0000FEE700BFF8B500BFF8BC08BC9E46704793
:103A1000F8B500BFF8BC08BC9E467047433A5C53FB
:103A2000696C69636F6E4C6162735C53696D706C35
:103A3000696369747953747564696F5C76325C6428
:103A40006576656C6F7065725C73646B735C6566DC
:103A50006D33325C76322F656D6C69622F696E63EF
:103A60002F656D5F62757274632E6800010100003E
:103A70000030000001000000000000000100000014
:103A80004C6564426C696E6B310000004C656442A9
:103A90006C696E6B32000000433A5C53696C696379
:103AA0006F6E4C6162735C53696D706C69636974AD
:103AB0007953747564696F5C76325C646576656CA5
:103AC0006F7065725C73646B735C65666D33325CDA
:103AD00076322F656D6C69622F696E632F656D5F3D
:103AE00062757274632E6800433A2F53696C696380
:103AF0006F6E4C6162732F53696D706C696369748A
:103B00007953747564696F2F76322F646576656CAE
:103B10006F7065722F73646B732F65666D33322F10
:103B200076322F656D6C69622F7372632F656D5FDE
:103B300062757274632E6300433A2F53696C696334
:103B40006F6E4C6162732F53696D706C6963697439
:103B50007953747564696F2F76322F646576656C5E
:103B60006F7065722F73646B732F65666D33322FC0
:103B700076322F656D6C69622F7372632F656D5F8E
:103B8000636D752E63000000433A2F53696C6963BF
:103B90006F6E4C6162732F53696D706C69636974E9
:103BA0007953747564696F2F76322F646576656C0E
:103BB0006F7065722F73646B732F65666D33322F70
:103BC00076322F656D6C69622F7372632F656D5F3E
:103BD0006770696F2E6300000100000000000000A4
:103BE00002000000810000000400000091000000BD
:103BF00008000000010000001000000003000000A9
:103C000020000000DFEF0000400000009FEF0000F8
:103C100080000000190700000001000019060000E4
:103C2000000200001F040000000400001F0200004A
:103C3000000800000100000000100000010000006A
:103C40000020000001000000004000000100000012
:103C50000080000001000000433A2F53696C696343
:103C60006F6E4C6162732F53696D706C6963697418
:103C70007953747564696F2F76322F646576656C3D
:103C80006F7065722F73646B732F65666D33322F9F
:103C900076322F656D6C69622F7372632F656D5F6D
:103CA00073797374656D2E6300000000433A2F53DF
:103CB000696C69636F6E4C6162732F53696D706CD0
:103CC000696369747953747564696F2F76322F64F0
:103CD0006576656C6F7065722F73646B732F6566A4
:103CE0006D33322F76322F72657074696C652F4692
:103CF00072656552544F532F536F757263652F7001
:103D00006F727461626C652F4D656D4D616E672FCA
:103D1000686561705F312E6300000000433A2F53E5
:103D2000696C69636F6E4C6162732F53696D706C5F
:103D3000696369747953747564696F2F76322F647F
:103D40006576656C6F7065722F73646B732F656633
:103D50006D33322F76322F72657074696C652F4621
:103D600072656552544F532F536F757263652F7090
:103D70006F727461626C652F4743432F41524D5FF0
:103D8000434D332F706F72742E630000433A2F53EC
:103D9000696C69636F6E4C6162732F53696D706CEF
:103DA000696369747953747564696F2F76322F640F
:103DB0006576656C6F7065722F73646B732F6566C3
:103DC0006D33322F76322F72657074696C652F46B1
:103DD00072656552544F532F536F757263652F711F
:103DE000756575652E630000433A2F53696C6963EE
:103DF0006F6E4C6162732F53696D706C6963697487
:103E00007953747564696F2F76322F646576656CAB
:103E10006F7065722F73646B732F65666D33322F0D
:103E200076322F72657074696C652F4672656552C3
:103E3000544F532F536F757263652F7461736B7397
:103E40002E63000049444C4500000000546D722070
:103E500053766300433A2F53696C69636F6E4C610C
:103E600062732F53696D706C6963697479537475EB
:103E700064696F2F76322F646576656C6F7065723A
:103E80002F73646B732F65666D33322F76322F720A
:103E9000657074696C652F4672656552544F532F77
:103EA000536F757263652F74696D6572732E63004D
:103EB000433A2F53696C69636F6E4C6162732F5381
:103EC000696D706C696369747953747564696F2F77
:103ED00076322F646576656C6F7065722F73646BD4
:103EE000732F65666D33322F76322F656D6472766F
:103EF0002F736C6565702F7372632F736C656570BB
:103F00002E630000433A5C53696C69636F6E4C61C9
:103F100062735C53696D706C69636974795374750D
:103F200064696F5C76325C646576656C6F7065722F
:103F30005C73646B735C65666D33325C76322F65DF
:103F40006D6C69622F696E632F656D5F6770696F55
:103F50002E680000040000000200000004000000C1
:103F600003000000430000002000002000000000CB
:083F7000E4C1FF7F0100000025
:103F780028000000000000001400000001000000FC
:103F8800AAAAAAAAFFFFFFFF006CDC0200800000BB
:103F98000000000000000000000000000000000019
:103FA8000000000000000000000000000000000009
:103FB800643F000000000000000000000000000056
:103FC80000000000000000000000000000000000E9
:103FD80000000000000000000000000000000000D9
:103FE80000000000000000000000000000000000C9
:083FF800250100000101000099
:04000003000034B510
:00000001FF
