:1000000000000220153900004B3900004D39000076
:100010004F390000513900005339000049390000C0
:10002000493900004939000049390000B51C000079
:100030005739000049390000211E00005D1E0000F4
:100040005D3900005F39000061390000633900004C
:100050006539000067390000693900006B3900001C
:100060006D3900006F3900007139000073390000EC
:100070007539000077390000793900007B390000BC
:100080007D3900007F39000081390000833900008C
:100090008539000087390000893900008B3900005C
:1000A0008D3900008F39000091390000933900002C
:1000B0009539000097390000050500009B390000C4
:1000C0009D3900009F390000A1390000A3390000CC
:1000D000A5390000A7390000A93900000000000080
:1000E0000000000000000000000000000000000010
:1000F0000000000000000000000000000000000000
:1001000010B5054C237833B9044B13B10448AFF351
:1001100000800123237010BD880000200000000033
:10012000C83C000008B5064B1BB106480649AFF3B2
:1001300000800648036813B1054B03B1984708BD1A
:1001400000000000C83C00008C0000208800002057
:1001500000000000154B002B08BF134B9D46A3F574
:10016000803A00218B460F461348144A121A03F0B6
:100170003CFD0F4B002B00D098470E4B002B00D0BE
:1001800098470020002104000D000D48002802D0EF
:100190000C48AFF3008003F0F9FC2000290000F0C8
:1001A0007FF803F0DFFC00BF000008000000022021
:1001B0000000000000000000880000201025002042
:1001C000000000000000000080B582B000AF0C4BC2
:1001D0001B687B603B46184601F006FC7B681B0EE3
:1001E0000F2B0AD93B78032B07D1064B054A12681F
:1001F00022F0500242F010021A600837BD4680BD5E
:10020000FC81E00FC0800C4090B484B000AF034686
:10021000B9607A60FB730E48FA7B0D4CF97B0B4694
:10022000DB000B449B002344083359687B68DB43A5
:100230001940BC687B68234019431346DB00134414
:100240009B000344083359601037BD4690BC70478B
:100250000060004080B500AF0548012100F05CFD62
:10026000042002210422002301F014FA80BD00BF03
:1002700000D2020080B584B000AF78607B68FB607C
:10028000FB681B68BB60FB685B689B000420194629
:100290000422FFF7B9FFB86802F01AFAF3E700BFCB
:1002A00080B584B004AFFFF78FFF0020002103F07A
:1002B0005DFA032003F0A6FA00F036F8FFF7CAFF54
:1002C000134B134A526C42F020025A6401230093EC
:1002D0000023019300230293002303930D480E494A
:1002E00096220E4B02F058F901230093002301934C
:1002F0000023029300230393064809499622094BE1
:1003000002F04AF902F00CFA00231846BD4680BDFF
:1003100000800C4075020000183C00000000002026
:10032000243C00000800002080B500AF51200521CA
:1003300000F0B0FE0A4B0A4A12681A60084B084ADD
:10034000126842F400521A60064B064A526A42F49E
:1003500080725A6200200121012200F0B3FF80BDAB
:1003600000800C4000600C4080B483B000AF0346B6
:10037000FB71084B97F907205209F97901F01F0129
:10038000012000FA01F143F822100C37BD465DF858
:10039000047B704700E100E080B483B000AF034607
:1003A000FB71094B97F907205209F97901F01F01F8
:1003B000012000FA01F1603243F822100C37BD46EB
:1003C0005DF8047B704700BF00E100E080B483B0BB
:1003D00000AF03463960FB7197F90730002B0BDA49
:1003E0000D49FB7903F00F03043B3A68D2B2520186
:1003F000D2B20B441A7609E0084997F907303A68F7
:10040000D2B25201D2B20B4483F800230C37BD465E
:100410005DF8047B704700BF00ED00E000E100E004
:1004200080B400AF034B5B681846BD465DF8047BA3
:10043000704700BF0000084080B483B000AF786010
:10044000034B7A689A610C37BD465DF8047B7047B0
:100450000000084080B483B000AF7860054B054AC7
:10046000D1697A68D2430A40DA610C37BD465DF83B
:10047000047B70470000084080B483B000AF786010
:10048000054B054AD1697A680A43DA610C37BD46E3
:100490005DF8047B704700BF0000084080B400AFE7
:1004A00072B6084B1B68B3F1FF3F04D0054B1B68C5
:1004B0005A1C044B1A60034B1B681846BD465DF876
:1004C000047B7047B800002080B483B000AF0C4BB1
:1004D0001B68002B0DD00A4B1B685A1E084B1A6074
:1004E000074B1B687B607B68002B00D162B67B6882
:1004F00000E0002318460C37BD465DF8047B7047CA
:10050000B800002080B500AF0E4B4FF080521A604B
:10051000002001F027FA0C4B1B680020194601F05F
:10052000FBF90A4B01221A7001F06CFC02F00EFA82
:10053000002001F071FC0720FFF77EFF01F04AFA6E
:1005400080BD00BF04ED00E0A8000020A400002052
:1005500080B582B000AF264BA3221A60254B264AF5
:100560001A60264B00221A60254B254A126822F495
:1005700000521A60234B234A526A42F480725A6234
:100580002148012100F0C8FB2048022100F082FD33
:100590001F48022100F0C4FA1D48012100F0BCFBF5
:1005A00000233B7100237B710023BB713B1D184668
:1005B00001F0E8F90220FFF74DFF1E20FF21FFF7B1
:1005C00005FF1E20FFF7E8FE1E20FFF7CDFE0020EE
:1005D000A32101F0A1F90220FFF72EFF0220FFF76F
:1005E0004BFF012001F0BEF90837BD4680BD00BFBA
:1005F000A8000020AC0000200F920100B0000020F5
:1006000000800C4000600C40004304000200060023
:100610003014080090B587B000AF7860404B1B687D
:100620007A689A4202D93E4B1B687B603D4B1B683F
:100630007A6802FB03F37B613B4B1B687A699A4241
:1006400004D9394B1B687A69D31A7B61002001F009
:1006500089F9FFF723FF354B00221A7002F0AEFB39
:100660000346002B05D1012001F07CF9FFF72CFF98
:1006700053E0FFF7D5FE03467A69D31A7B61002069
:10068000796901F049F901F0A5F97B68FB60FB6825
:10069000002B05D003F098F8BFF34F8FBFF36F8F97
:1006A000FFF7BEFEB860002001F05CF9FFF70CFF19
:1006B0001E4B1B78DBB2002B0FD01A4B1C68FFF7C8
:1006C000AFFE0346E31A23F07F430020194601F0F2
:1006D00023F97B68013B3B611AE0124B1B68BA6847
:1006E000B2FBF3F33B613B69002B05D10D4B1A685C
:1006F000BB68D31A7B6107E00A4B1B683A6902FBAF
:1007000003F3BA68D31A7B610020796901F004F918
:1007100001F060F9386902F001F91C37BD4690BD5F
:10072000AC000020A8000020B0000020A4000020A1
:1007300080B487B000AFF860B9607A60FB6803F1FD
:100740000473DA00BB6813449B007B617B697A68A1
:100750001A601C37BD465DF8047B704780B483B0D7
:1007600000AF1D4BDB6C03F47F031B0CFB71FB79AB
:100770004A2B04D04B2B26D0482B22D025E0174BF8
:100780001B699BB203F03F039BB21B02BB80134B60
:100790009B699BB203F0F0039AB2BB881343BB8002
:1007A0000E4BDB6903F0F0031B099AB2BB881343BD
:1007B000BB80BB88B3F5017F01D3094B06E0094B31
:1007C00004E0084B02E0064B00E0002318460C371B
:1007D000BD465DF8047B7047B081E00FD0FF0FE0AD
:1007E00000366E010048E80180B483B000AF164BBC
:1007F0005B687B607B6803F00703052B1CD801A2B4
:1008000052F823F01D0800001D0800002B0800000E
:100810002B0800001D0800002B0800007B6823F057
:10082000070343F004037B6006E07B6823F00703C3
:1008300043F005037B6000BF034B7A685A600C37B6
:10084000BD465DF8047B704700000C4080B487B063
:1008500000AF78607B68002B04D07B68B3F5004F55
:1008600000D800BF7B683B613B69B3FA83F3FB6050
:10087000FB68DBB2C3F11F037B617B6918461C3741
:10088000BD465DF8047B704780B485B000AF7860EA
:100890002D4B5B68FB607A682C4B9A4213D9FB683E
:1008A00003F00703023B012B06D8FB6823F0070384
:1008B00043F00503FB6006E0FB6823F0070343F009
:1008C0000403FB6000BF7A68214B9A421AD97A6808
:1008D0001E4B9A4216D8FB6803F00703022B0AD37B
:1008E000032B01D9052B06D1FB6823F0070343F046
:1008F0000303FB6006E0FB6823F0070343F00103FA
:10090000FB6000BF7A68124B9A4214D8FB6803F070
:100910000703022B0AD3032B01D9052B06D1FB6851
:1009200023F0070343F00203FB6004E0FB6823F0BD
:100930000703FB6000BF044BFA685A601437BD46DA
:100940005DF8047B704700BF00000C400048E801E0
:100950000024F40080B483B000AF1A4B5B6903F449
:10096000E063B3F5007F14D0B3F5007F05D8002B0A
:1009700015D0B3F5807F0FD01AE0B3F5C06F14D057
:10098000B3F5E06F0ED0B3F5407F11D10E4B7B6015
:1009900011E00E4B7B600EE00D4B7B600BE00D4BCE
:1009A0007B6008E00C4B7B6005E00C4B7B6002E059
:1009B00000237B6000BF7B6818460C37BD465DF89E
:1009C000047B704700800C4040420F00C0CF6A009B
:1009D000C0D8A700809FD500406F4001003FAB0109
:1009E00080B582B000AF124800F0C6FA0346FB7033
:1009F000FB78072B0FD0082B11D103F009F8786092
:100A00000C4B1B6803F4E0339B0B01337A68B2FB99
:100A1000F3F37B6006E0FFF79DFF786002E00023C0
:100A20007B6000BF7B6818460837BD4680BD00BFAD
:100A30000400180000800C4080B584B000AF7860DE
:100A40007B68002B02D07B68012B00D100BF264BB6
:100A50009A6A7B685B0022FA03F303F00303032B1B
:100A60003AD801A252F823F0B90A0000790A00002E
:100A7000810A0000890A000003F054F8F8602EE0B3
:100A800003F064F8F8602AE0174B5B6803F48073A6
:100A9000002B05D1144B1B6803F08043002B05D0BD
:100AA00002F092FF03469B08FB6018E002F08CFF07
:100AB00003465B08FB6012E00B4B9A6A7B680433C9
:100AC0009B0022FA03F3002B03D003F035F8F86003
:100AD00005E00023FB6002E00023FB6000BFFB6831
:100AE00018461037BD4680BD00800C4080B483B0EE
:100AF00000AF7860094B5B6D03F00103002B00D061
:100B000006E000BF054B1A6D7B681340002BF9D13E
:100B10000C37BD465DF8047B704700BF00800C4079
:100B200090B585B000AF786039607B681B0903F031
:100B30000F03FB60FB68013B042B00F2DA8001A28B
:100B400052F823F08D0B0000B70B0000230C0000BF
:100B50009F0C0000590B00003B68002B03D03B6842
:100B6000082B00D800BFFFF73FFE644B634A1268B2
:100B700022F4E0313A68013A92030A431A6002F023
:100B800023FFB860B868FFF77FFEB3E03B68002B37
:100B900004D03B68B3F5007F00D800BF3868FFF78A
:100BA00055FE3860554B554A926822F00F013A685D
:100BB0000A439A609EE0FFF717FE512000F01CF9EF
:100BC00002463B68B2FBF3F4FFF7C8FD03469C42C4
:100BD0000AD84A481E210022FFF7AAFD48480821EA
:100BE0000022FFF7A5FD09E044481E210122FFF77E
:100BF0009FFD434808210122FFF79AFD3868FFF75F
:100C000025FE38603D4B3D4A526822F00F013A689C
:100C10000A435A6002F0D8FEB860B868FFF734FEA5
:100C200068E07B68374A934217D0374A934225D011
:100C3000364A934200D031E00420FFF757FF38686E
:100C4000FFF704FE38602D4B2C4A926E22F0F00123
:100C50003A6812010A439A6620E00420FFF746FF33
:100C60003868FFF7F3FD3860244B244A926E22F473
:100C700070613A6812020A439A660FE00420FFF797
:100C800035FF3868FFF7E2FD38601C4B1B4A926E57
:100C900022F003013A680A439A6600BF2AE07B68A3
:100CA0001B4A934203D01B4A934210D020E04020BD
:100CB000FFF71CFF3868FFF7C9FD38600F4B0F4A7C
:100CC000126F22F003013A680A431A6710E04020CD
:100CD000FFF70CFF3868FFF7B9FD3860074B074A8C
:100CE000126F22F030013A6812010A431A6700BFFE
:100CF00000E000BF1437BD4690BD00BF00800C402F
:100D000004800C4030240A00300410003014080025
:100D1000400514004015160090B587B000AF78600C
:100D20000B46FB7000233B617B681B0A03F00F033B
:100D3000013B052B4AD801A252F823F0550D0000C3
:100D40005B0D0000610D00008F0D0000990D00008B
:100D5000A30D00001F4B7B6126E01F4B7B6123E04E
:100D60001E4B7B611E4800F047F80446FFF7F6FC77
:100D700003469C420AD91B481E210122FFF7D8FCDA
:100D8000194808210122FFF7D3FC0DE00CE0174BB6
:100D90007B6101233B6107E0154B7B6110233B61C5
:100DA00002E0144B7B6100BF7B681B0B03F01F0349
:100DB000FB603B69002B02D03869FFF797FEFB7898
:100DC0007869F9681A46FFF7B3FC00E000BF1C37EA
:100DD000BD4690BD08800C4044800C4040800C40D3
:100DE0002000040000800C4004800C4058800C401F
:100DF00060800C4078800C4080B584B000AF786093
:100E00007B6803F47813B3F5202F67D0B3F5202F58
:100E100012D8B3F5802F4AD0B3F5802F05D8002B18
:100E200021D0B3F5003F2CD09BE0B3F5C02F42D0CA
:100E3000B3F5002F44D094E0B3F5A01F6ED0B3F506
:100E4000A01F06D8B3F5801F56D0B3F5901F60D011
:100E500087E0B3F5C01F7CD0B3F5D01F7DD0B3F5CC
:100E6000B01F68D07DE002F0D3FDF860414B1B68F5
:100E700003F4E0339B0B0133FA68B2FBF3F3FB603E
:100E800072E002F0C5FDF8603A4B1B6803F4E033F2
:100E90009B0B0133FA68B2FBF3F3FB60354B9B68A5
:100EA00003F00F03FA6822FA03F3FB605CE002F040
:100EB0008BFDF86058E00020FFF7BEFDF86053E0BE
:100EC0000020FFF7B9FDF8602A4B9B6E03F0F0039A
:100ED0001B09FA6822FA03F3FB6045E00020FFF7E4
:100EE000ABFDF860234B9B6E03F470631B0AFA683A
:100EF00022FA03F3FB6037E00020FFF79DFDF86066
:100F00001C4B9B6E03F00303FA6822FA03F3FB60A9
:100F10002AE00120FFF790FDF86025E00120FFF7AF
:100F20008BFDF860134B1B6F03F00303FA6822FA82
:100F300003F3FB6018E00120FFF77EFDF8600D4B26
:100F40001B6F03F030031B09FA6822FA03F3FB60FE
:100F50000AE0FFF745FDF86006E0FFF7FBFCF860EC
:100F600002E00023FB6000BFFB6818461037BD4657
:100F700080BD00BF00800C4080B485B000AF7860B9
:100F80000123FB737B6803F00F03BB60BB68013B6D
:100F9000032B73D801A252F823F000BFAD0F00005D
:100FA000E30F00001F1000005B100000384BDB6AED
:100FB00003F47053B3F5805F09D0B3F5005F03D03D
:100FC000B3F5006F06D008E00223FB7308E00323AB
:100FD000FB7305E00423FB7302E00523FB7300BFF2
:100FE0004FE02B4B9B6A03F00303022B06D0032B2D
:100FF00007D0012B08D10323FB730FE00223FB73FF
:101000000CE00623FB7309E0214B9B6A03F4803359
:10101000002B02D00923FB7300E000BF31E01C4B22
:101020009B6A03F00C03082B06D00C2B07D0042B73
:1010300008D10323FB730FE00223FB730CE00623AC
:10104000FB7309E0124B9B6A03F48013002B02D060
:101050000923FB7300E000BF13E00D4B1B6803F096
:101060008053002B03D0B3F1805F03D009E0072346
:10107000FB7302E00823FB7300BF02E00023FB7355
:1010800000BFFB7B18461437BD465DF8047B7047F4
:1010900000800C4090B589B000AF78600B46FB70C3
:1010A0000323FB610323FB7600237B617B6803F052
:1010B0000F03FB60FB68013B032B00F2F48001A2ED
:1010C00052F823F0D5100000A1110000A11100007A
:1010D0007D120000FB78023B072B00F2E68001A2A4
:1010E00052F823F0051100000F1100001911000043
:1010F0006D110000AB120000AB120000AB1200003B
:10110000771100000423FB610023FB7634E0032306
:10111000FB610123FB762FE00223FB610223FB76B8
:1011200002F0EEFC0446FFF719FB03469C4213D97C
:10113000614A614B1B6843F0804343F060031360D6
:101140005D4B1B6C03F01003002B0ED05B48082195
:101150000122FFF7EDFA0FE0574B574A126822F0D1
:10116000600242F020021A6006E005E00123FB6104
:101170000323FB7600E000BFFB7E1846012101221D
:1011800000F0A0F8FFF730FB4B4BFA695A6200F011
:1011900071FA02F019FCB860B868FFF775FB87E0D8
:1011A000FB78013B082B00F2828001A252F823F069
:1011B000D5110000DB110000EB110000AF120000A0
:1011C000AF120000FB110000AF120000AF120000D0
:1011D0003312000000233B6130E000200121012296
:1011E00000F070F802233B6128E001200121012278
:1011F00000F068F801233B6120E03148042101221E
:10120000FFF796FA03233B6102F0DEFBB860FFF7BD
:10121000A5FA0246BB689A420AD227481E2101223B
:10122000FFF786FA254808210122FFF781FA05E039
:1012300004E000233B6101237B6100BFFB68022BBC
:101240000DD11D4A1C4B9B6A23F4803323F003030A
:10125000396919437B691B040B43936228E0164AE2
:10126000154B9B6A23F4801323F00C033969890022
:1012700019437B691B050B43936219E0FB78072B2D
:1012800002D0082B07D013E00B4B0B4A126822F058
:1012900080521A6006E0084B074A126842F08052FA
:1012A0001A6000BF04E000BF02E000BF00E000BF22
:1012B0002437BD4690BD00BF00800C4004800C4028
:1012C00040800C4080B586B000AF13460246FA71EC
:1012D0000A46BA717B71FB79052B4CD801A252F8F2
:1012E00023F000BF35130000271300000B1300008C
:1012F000FD120000191300007713000001233B6169
:101300000223FB6002237B611EE004233B61082370
:10131000FB6008237B6117E010233B612023FB6007
:1013200020237B6110E040233B618023FB6080230E
:101330007B6109E04FF480733B614FF40073FB6005
:101340004FF400737B6100BFBB79002B0DD00C4BB9
:101350003A691A627B79002B0AD000BF084BDA6A1F
:101360007B691340002BF9D002E0054BFA681A6242
:1013700000F080F900E000BF1837BD4680BD00BF17
:1013800000800C4080B500AF02F01EFB80BD00BFA6
:1013900080B400AF034B0022C3F88420BD465DF843
:1013A000047B704700800C4080B400AF044B45F6CE
:1013B0000E02C3F88420BD465DF8047B704700BF71
:1013C00000800C4080B582B000AF274BD3F884304A
:1013D00003F001037B60FFF7E7FF234B234A1288EA
:1013E00002F4AA721A62214B1B8803F47053B3F5FE
:1013F000805F06D0B3F5005F0ED0B3F5006F16D056
:1014000020E000BF184BDB6A03F08003002BF9D00B
:10141000154B03225A6215E000BF134BDB6A03F43D
:101420000073002BF9D0104B04225A620AE000BF6F
:101430000D4BDB6A03F00803002BF9D00A4B0222A4
:101440005A6200BF094B1B8803F00103002B02D135
:10145000054B02221A627B68002B01D0FFF798FF30
:101460000837BD4680BD00BF00800C40B40000209E
:1014700080B483B000AF174B1B699BB203F03F03EE
:101480009BB21B02FB80134B9B699BB203F0F003E2
:101490009AB2FB881343FB800E4BDB6903F0F00329
:1014A0001B099AB2FB881343FB80FB88B3F5827F4C
:1014B00003D3FB88B3F5017F01D1012300E00023B2
:1014C00003F00103DBB218460C37BD465DF8047B20
:1014D000704700BFD0FF0FE080B586B000AF034675
:1014E000FB711F4BDB6A9AB21E4B1A801E4B1E4AC1
:1014F000126942F004021A61FFF7BAFF0346FB7556
:10150000FB7D002B11D0194B1A68194B1340FB605F
:10151000164BFA68C3F88020144B5B6823F046032F
:101520003B61124B3A69C3F8842030BFFB7D002B2E
:1015300005D00E4BFA681A600C4B3A695A60FB7979
:10154000002B02D0FFF73EFF07E0064B1B8803F499
:101550008063002B01D1FFF715FF1837BD4680BD12
:1015600000800C40B400002000ED00E000E100E04D
:101570009CF1FD0080B586B000AF0346FB71284B9F
:10158000DB6A9AB2274B1A80254BD3F8843003F0DC
:1015900001037B61FFF708FF214B4FF420721A62B1
:1015A0007B69002B01D0FFF7F3FE1F4B1E4A126927
:1015B00042F004021A61FFF75BFF0346FB74FB7CF9
:1015C000002B11D0194B1A68194B1340BB60174BF5
:1015D000BA68C3F88020154B5B6823F04603FB60B4
:1015E000124BFA68C3F8842030BFFB7C002B05D077
:1015F0000E4BBA681A600D4BFA685A60FB79002BE3
:1016000002D0FFF7DFFE07E0064B1B8803F4806380
:10161000002B01D1FFF7B6FE1837BD4680BD00BFD5
:1016200000800C40B400002000ED00E000E100E08C
:101630009CF1FD0080B483B000AF0D4B4AF6E85238
:101640009A6000237B6008E0094B08221A60084B6F
:101650000C221A607B6801337B607B68032BF3DD0F
:10166000034B08221A600C37BD465DF8047B7047B7
:1016700000600C4080B400AF044BDB6A9AB2044BAC
:101680001A80BD465DF8047B704700BF00800C40A7
:10169000B400002090B484B000AFB9607B60034612
:1016A000FB731346BB73FB7B052B03D8BB680F2B67
:1016B00000D800BFBB7B002B1FD07B68002B0ED057
:1016C0004448FA7BBB68012101FA03F3194613462B
:1016D000DB0013449B000344103319600DE03D48C8
:1016E000FA7BBB68012101FA03F319461346DB00BC
:1016F00013449B00034410335960BB68072B1DD86B
:101700003448FA7B334CF97B0B46DB000B449B00DF
:1017100023445968BB689B000F2404FA03F3DB439E
:101720001940BC7BBB689B0004FA03F319431346C2
:10173000DB0013449B000344596024E02548FA7BF6
:10174000244CF97B0B46DB000B449B0023440833FD
:101750001968BB6803F18043083B9B000F2404FA1F
:1017600003F3DB431940BC7BBB6803F18043083BB8
:101770009B0004FA03F319431346DB0013449B0058
:10178000034408331960BB7B002B1FD17B68002BFF
:101790000ED01048FA7BBB68012101FA03F3194609
:1017A0001346DB0013449B000344103319600DE023
:1017B0000848FA7BBB68012101FA03F31946134676
:1017C000DB0013449B000344103359601037BD46BF
:1017D00090BC70470060004080B487B000AFF860F4
:1017E000B9607A60FB6803F10473DA00BB681344E4
:1017F0009B007B617B697A681A601C37BD465DF887
:10180000047B704780B400AF034B00229A60BD4652
:101810005DF8047B704700BF00600C4080B400AFEF
:10182000034B4AF6E8529A60BD465DF8047B704768
:1018300000600C4080B582B000AF0F4B01229A606F
:101840000E4B9B6803F001037B607B68002B01D08B
:10185000FFF7E4FF0A4800210122FFF7BDFF084817
:1018600000210022FFF7B8FF7B68002B01D0FFF7B3
:10187000C9FF0837BD4680BD00A00C4000600C4089
:1018800024600C4080B485B000AF164B5B687B6071
:101890000023FB600023BB601AE0134BBA6853F8C7
:1018A00032207B681340002B0FD00F4ABB68DB004F
:1018B00013445A687B681340002B06D10A4BBA6860
:1018C00053F83230FA681343FB60BB680133BB60E6
:1018D000BB680F2BE1DDFB6818461437BD465DF889
:1018E000047B704700A00C40303C000080B487B0FF
:1018F00000AFF860B9607A60FB6803F10473DA0046
:10190000BB6813449B007B617B697A681A601C3753
:10191000BD465DF8047B704780B485B000AF786049
:1019200039607B68012B05D83B6803F07F43002BAF
:1019300000D100BF7B68002B02D0012B03D008E050
:10194000064BFB6002E0064BFB6000BFFB683A6899
:101950001A601437BD465DF8047B704708000840E4
:101960000C00084080B582B000AF0346FB71FB79E4
:10197000034800211A46FFF7B9FF0837BD4680BD6E
:101980000000084080B485B000AF78607B681B78A9
:10199000002B02D00123FB6001E00023FB607B6889
:1019A0005B78002B03D0FB6843F00203FB607B688D
:1019B0009B78002B03D0FB6843F00403FB60044BCF
:1019C000FA681A601437BD465DF8047B704700BFA3
:1019D0000000084080B500AF0020FFF7C3FF0120E2
:1019E000FFF7C0FF80BD00BF80B485B000AF786056
:1019F000194B5B69DBB203F00F03DBB29B00FB7397
:101A0000154B1B6903F0C0039B09DAB2FB7B134340
:101A1000FB737B68FA7B9A700F4B1B69DBB203F098
:101A20003F03DAB27B685A700B4B9B69DBB223F041
:101A30000F03FB73084BDB6903F0F0031B09DAB2F9
:101A4000FB7B1343FB737B68FA7B1A701437BD462C
:101A50005DF8047B704700BFD0FF0FE080B584B015
:101A600000AF78600023FB607B6803F00703002B66
:101A700004D07B6823F0070308337B6000F080FE0E
:101A8000164B1B68002B05D1154B23F007031A4694
:101A9000124B1A60134B1A687B681A4442F21F33C8
:101AA0009A4213D80F4B1A687B681A440D4B1B6877
:101AB0009A420BD9094B1A680A4B1B681344FB6006
:101AC000084B1A687B681A44064B1A6000F08EFEB9
:101AD000FB6818461037BD4680BD00BFE8230020D4
:101AE000C4000020E423002080B483B000AF7860FD
:101AF0000C37BD465DF8047B704700BF80B483B0EF
:101B000000AF78607B6803F108027B685A607B68ED
:101B10004FF0FF329A607B6803F108027B68DA605D
:101B20007B6803F108027B681A617B6800221A60F7
:101B30000C37BD465DF8047B704700BF80B483B0AE
:101B400000AF78607B6800221A610C37BD465DF8F3
:101B5000047B704780B485B000AF786039607B68E3
:101B60005B68FB603B68FA685A60FB689A683B6890
:101B70009A60FB689B683A685A60FB683A689A60AA
:101B80003B687A681A617B681B685A1C7B681A601C
:101B90001437BD465DF8047B704700BF80B485B044
:101BA00000AF786039603B681B68BB60BB68B3F10D
:101BB000FF3F03D17B681B69FB600CE07B68083347
:101BC000FB6002E0FB685B68FB60FB685B681A68AF
:101BD000BB689A42F6D9FB685A683B685A603B6812
:101BE0005B683A689A603B68FA689A60FB683A6892
:101BF0005A603B687A681A617B681B685A1C7B686C
:101C00001A601437BD465DF8047B704780B485B018
:101C100000AF78607B685B687A6892689A607B68DE
:101C20009B687A6852685A607B681B69FB60FB6836
:101C30005A687B689A4203D17B689A68FB685A604D
:101C40007B6800221A61FB681B685A1EFB681A60D9
:101C5000FB681B6818461437BD465DF8047B704767
:101C600080B485B000AFF860B9607A60FB68043B6F
:101C7000FB60FB684FF080721A60FB68043BFB60FE
:101C8000BA68FB681A60FB68043BFB60FB680022D3
:101C90001A60FB68143BFB607A68FB681A60FB689B
:101CA000203BFB60FB6818461437BD465DF8047B9B
:101CB000704700BF064B19680868B0E8F00F80F362
:101CC00009884FF0000080F311884EF00D0E704728
:101CD000F423002003480068006880F3088862B697
:101CE00000DF00BF08ED00E080B584B000AF274BF7
:101CF000FB60FB681B78DBB2BB60FB68FF221A70DD
:101D0000FB681B78DBB2FB71FB79DBB223F040038D
:101D1000DAB21F4B1A701F4B07221A6009E01D4BE5
:101D20001B685A1E1B4B1A60FB79DBB25B00DBB2EF
:101D3000FB71FB79DBB2DBB25BB2002BEFDB154B47
:101D40001B681A02134B1A60124B1B6803F4E06203
:101D5000104B1A60BB68DAB2FB681A700E4B0E4A61
:101D6000126842F47F021A600B4B0B4A126842F071
:101D70007F421A60FEF7ECFB084B00221A60FFF767
:101D8000A9FF002318461037BD4680BD00E400E0DF
:101D9000EC230020F023002020ED00E010000020C4
:101DA00080B400AF054B4FF080521A60BFF34F8FE5
:101DB000BFF36F8FBD465DF8047B704704ED00E014
:101DC00080B500AF00F01EF8044B1B685A1C034B93
:101DD0001A60BFF34F8FBFF36F8F80BD10000020DC
:101DE00080B500AF064B1B685A1E054B1A60044BAA
:101DF0001B68002B02D1002000F00EF880BD00BF50
:101E000010000020EFF311804FF0BF0181F3118823
:101E100070470023184600BF80F31188704700BF49
:101E2000EFF309800C4B1A6820E9F00F10602DE9E0
:101E300008404FF0BF0080F3118800F047FE4FF0DC
:101E4000000080F31188BDE8084019680868B0E810
:101E5000F00F80F309887047F423002080B500AFAD
:101E6000FFF7D0FF00F072FD0346002B03D0044BB8
:101E70004FF080521A600020FFF7CEFF80BD00BFF8
:101E800004ED00E080B483B000AFEFF305837B6026
:101E90007B680F2B04D9064A7B6813441B78FB70C0
:101EA000044B1B680C37BD465DF8047B704700BFD0
:101EB000F0E300E00CED00E080B584B000AF7860A6
:101EC00039607B68FB60FFF77BFFFB681A68FB6883
:101ED000DB6BF968096C01FB03F31A44FB685A6079
:101EE000FB6800229A63FB681A68FB689A60FB68CB
:101EF0001A68FB68DB6B013BF968096C01FB03F3B3
:101F00001A44FB68DA60FB684FF0FF325A64FB68E2
:101F10004FF0FF329A643B68002B0ED1FB681B69BF
:101F2000002B14D0FB681033184600F06DFE0346FA
:101F3000012B0CD1FFF734FF09E0FB681033184682
:101F4000FFF7DCFDFB6824331846FFF7D7FDFFF7EA
:101F500047FF012318461037BD4680BD80B588B0C5
:101F600000AFF860B9601346FB710023FB61FB68AA
:101F7000002B26D04C20FFF771FDB861BB69002B08
:101F80001FD0FB68BA6802FB03F301337B617869F9
:101F9000FFF764FD0246BB691A60BB691B68002B32
:101FA0000CD0BB69FA68DA63BB69BA681A64B869AD
:101FB0000121FFF781FFBB69FB6102E0B869FFF710
:101FC00093FDFB6918462037BD4680BD80B588B0BB
:101FD00000AFF860B9607A603B600023FB61FB688A
:101FE000BB61BB68002B03D1BB691B6C002B00D10C
:101FF00000BF3B68022B03D1BB69DB6B012B00D117
:1020000000BFFFF7DDFEBB699A6BBB69DB6B9A42D1
:1020100002D33B68022B16D1B869B9683A6800F060
:1020200087F9BB695B6A002B09D0BB69243318466A
:1020300000F0EAFD0346012B01D1FFF7B1FEFFF7E7
:10204000CFFE012359E07B68002B03D1FFF7C8FEC8
:10205000002352E0FB69002B06D107F1100318465C
:1020600000F022FE0123FB61FFF7BAFE00F088FBBF
:10207000FFF7A6FEBB695B6CB3F1FF3F02D1BB6902
:1020800000225A64BB699B6CB3F1FF3F02D1BB696C
:1020900000229A64FFF7A4FE07F110023B1D1046D0
:1020A000194600F017FE0346002B1ED1B86900F058
:1020B0002FFA0346002B12D0BB6903F110027B6894
:1020C0001046194600F04EFDB86900F0BFF900F067
:1020D0008DFB0346002B0FD1FFF762FE0CE0B869C1
:1020E00000F0B4F900F082FB8BE7B86900F0AEF9BC
:1020F00000F07CFB002300E083E718462037BD4654
:1021000080BD00BF80B588B000AFF860B9607A606C
:102110003B60FB68BB61BB68002B03D1BB691B6CD8
:10212000002B00D100BF3B68022B03D1BB69DB6BE6
:10213000012B00D100BFFFF7A5FEFFF763FE78611A
:10214000BB699A6BBB69DB6B9A4202D33B68022B7B
:1021500024D1B869B9683A6800F0EAF8BB699B6CA9
:10216000B3F1FF3F12D1BB695B6A002B13D0BB698F
:102170002433184600F048FD0346002B0BD07B6843
:10218000002B08D07B6801221A6004E0BB699B6CBD
:102190005A1CBB699A640123FB6101E00023FB61C7
:1021A0007869FFF739FEFB6918462037BD4680BDC8
:1021B00080B58AB000AFF860B9607A603B600023F8
:1021C0007B62FB683B62BB68002B03D13B6A1B6CE4
:1021D000002B00D100BFFFF7F3FD3B6A9B6B002B88
:1021E0003BD03B6ADB68FB61386AB96800F008F9EC
:1021F0003B68002B1CD13B6A9B6B5A1E3B6A9A635F
:102200003B6A1B68002B04D100F02EFF02463B6A9C
:102210005A603B6A1B69002B1BD03B6A103318467F
:1022200000F0F2FC0346012B13D1FFF7B9FD10E0DB
:102230003B6AFA69DA603B6A5B6A002B09D03B6A49
:102240002433184600F0E0FC0346002B01D0FFF7D2
:10225000A7FDFFF7C5FD012366E07B68002B03D1D6
:10226000FFF7BEFD00235FE07B6A002B06D107F17C
:102270001403184600F018FD01237B62FFF7B0FD40
:1022800000F07EFAFFF79CFD3B6A5B6CB3F1FF3F09
:1022900002D13B6A00225A643B6A9B6CB3F1FF3F58
:1022A00002D13B6A00229A64FFF79AFD07F11402FB
:1022B0003B1D1046194600F00DFD0346002B2BD1A7
:1022C000386A00F00FF90346002B1FD03B6A1B68E9
:1022D000002B08D1FFF774FD3B6A5B68184600F0DD
:1022E000F1FEFFF77DFD3B6A03F124027B68104697
:1022F000194600F037FC386A00F0A8F800F076FACA
:102300000346002B0FD1FFF74BFD0CE0386A00F0BD
:102310009DF800F06BFA5EE7386A00F097F800F07D
:1023200065FA002300E056E718462837BD4680BD11
:1023300080B584B000AFF860B9607A60FB681B6C50
:10234000002B0CD1FB681B68002B51D1FB685B682C
:10235000184600F011FFFB6800225A6048E07B68D5
:10236000002B1AD1FB689A68FB681B6C1046B96891
:102370001A4601F031FCFB689A68FB681B6C1A4432
:10238000FB689A60FB689A68FB685B689A422FD387
:10239000FB681A68FB689A602AE0FB68DA68FB68E9
:1023A0001B6C1046B9681A4601F016FCFB68DA6827
:1023B000FB681B6C5B421A44FB68DA60FB68DA68F6
:1023C000FB681B689A4207D2FB685A68FB681B6C63
:1023D0005B421A44FB68DA607B68022B08D1FB6819
:1023E0009B6B002B04D0FB689B6B5A1EFB689A63A7
:1023F000FB689B6B5A1CFB689A631037BD4680BD17
:1024000080B582B000AF786039607B681B68002BB4
:1024100019D07B68DA687B681B6C1A447B68DA60C9
:102420007B68DA687B685B689A4203D37B681A68CA
:102430007B68DA607B68DA687B681B6C38681146F9
:102440001A4601F0C9FB0837BD4680BD80B582B091
:1024500000AF7860FFF7B4FC14E07B685B6A002B88
:102460000AD07B682433184600F0CEFB0346002BCD
:1024700003D000F073FC00E008E07B689B6C5A1E00
:102480007B689A647B689B6C002BE6DC7B684FF072
:10249000FF329A64FFF7A4FCFFF792FC14E07B681C
:1024A0001B69002B0FD07B681033184600F0ACFB83
:1024B0000346002B01D000F051FC7B685B6C5A1E78
:1024C0007B685A6400E003E07B685B6C002BE6DC11
:1024D0007B684FF0FF325A64FFF782FC0837BD4635
:1024E00080BD00BF80B584B000AF7860FFF768FCA6
:1024F0007B689B6B002B02D10123FB6001E0002372
:10250000FB60FFF76DFCFB6818461037BD4680BDC9
:1025100080B584B000AF7860FFF752FC7B689A6B9F
:102520007B68DB6B9A4202D10123FB6001E0002350
:10253000FB60FFF755FCFB6818461037BD4680BDB1
:1025400080B584B000AF786039607B68FB60FFF7CE
:1025500037FCFB685B6CB3F1FF3F02D1FB680022E4
:102560005A64FB689B6CB3F1FF3F02D1FB68002209
:102570009A64FFF735FCFB689B6B002B05D1FB6869
:1025800024331846396800F01DFBF868FFF75EFF3A
:102590001037BD4680BD00BF80B58AB002AFF8607D
:1025A000B9603B601346FB80FB881846396B00F02E
:1025B00019FDB861BB69002B66D0BB691A6BFB883B
:1025C00003F18043013B9B0013447B617B6923F053
:1025D00007037B61FB880093B869B968BA6A7B6BB3
:1025E00000F00AFC7869F9683A68FFF739FB02469F
:1025F000BB691A60FB6A002B02D0FB6ABA691A60D9
:10260000FFF7DEFB2C4B1B685A1C2B4B1A602B4B25
:102610001B68002B09D1294BBA691A60264B1B682D
:10262000012B0FD100F030FC0CE0254B1B68002B78
:1026300008D1224B1B68DA6ABB6A9A4202D81F4B48
:10264000BA691A601F4B1B685A1C1E4B1A60BB6983
:10265000DA6A1D4B1B689A4203D9BB69DA6A1A4BC6
:102660001A60BB69DA6A13469B0013449B00174A41
:102670001A44BB69043310461946FFF76BFA01236D
:10268000FB61FFF7ADFB02E04FF0FF33FB61FB693D
:10269000012B0BD10A4B1B68002B07D0074B1B6883
:1026A000DA6ABB6A9A4201D2FFF77AFBFB691846E5
:1026B0002037BD4680BD00BFA4240020F4230020A5
:1026C000B0240020C4240020AC240020F8230020E3
:1026D00080B584B000AF78600023FB607B68002B7E
:1026E00012D000F04DF80C4B1A687B681344BB60A5
:1026F0000A4B1B6804331846FFF788FAB86800F0E5
:102700003BFC00F073F8F860FB68002B01D1FFF789
:1027100047FB1037BD4680BDA8240020F4230020CD
:1027200080B586B004AF00230093002301930023FB
:102730000293002303930E480E498C220023FFF7D7
:102740002BFF78607B68012B02D100F053FD78608D
:102750007B68012B09D1FFF755FB074B01221A605B
:10276000064B00221A60FFF7BFFA0837BD4680BD4E
:10277000752D0000B03C0000B0240020A8240020EB
:1027800080B400AF044B1B685A1C034B1A60BD4653
:102790005DF8047B704700BFB424002080B483B090
:1027A00000AF0E4B1B68DB6A002B02D000237B605E
:1027B0000CE00B4B1B68012B02D900237B6005E06A
:1027C000084B1A68084B1B68D31A7B607B68184655
:1027D0000C37BD465DF8047B704700BFF423002032
:1027E000F823002014000020A824002080B584B025
:1027F00000AF0023FB600023BB60374B1B68FFF773
:10280000DFFA354B1B685A1E334B1A60324B1B687C
:10281000002B5AD1314B1B68002B56D02EE0304B89
:10282000DB68DB687B607B6818331846FFF7EEF9DE
:102830007B6804331846FFF7E9F97B68DA6A294BAD
:102840001B689A4203D97B68DA6A264B1A607B6858
:10285000DA6A13469B0013449B00234A1A447B68A0
:10286000043310461946FFF775F97B68DA6A1F4B87
:102870001B68DB6A9A4201D30123BB60184B1B68BB
:10288000002BCCD11A4B1B68002B10D00BE000F0B2
:102890005DF80346002B01D00123BB60144B1B687D
:1028A0005A1E134B1A60124B1B68002BEFD1BB68EA
:1028B000012B03D00F4B1B68012B06D10123FB60BA
:1028C0000C4B00221A60FFF76BFAFFF789FAFB68DE
:1028D00018461037BD4680BDB4240020A424002033
:1028E00064240020AC240020F8230020F4230020DE
:1028F000B8240020BC24002080B582B000AFFFF7D0
:102900005FFA054B1B687B60FFF76AFA7B68184625
:102910000837BD4680BD00BFA824002080B483B026
:1029200000AF7860074B1B68074B1B68054B1A68A4
:102930007B681A44034B1A600C37BD465DF8047B74
:10294000704700BFA82400201400002080B586B086
:1029500000AF00237B61534B1B68002B40F0988035
:10296000514B1B685A1C504B1A604F4B1B683B6104
:102970003B69002B28D14D4B1B684C4B1B68FB60FF
:102980004B4B1A68494B1A60494BFA681A60494B1D
:102990001B685A1C474B1A60444B1B681B68002B72
:1029A00001D1012300E00023002B04D0424B4FF063
:1029B000FF321A6008E03D4B1B68DB68DB68BB60D8
:1029C000BB685A683C4B1A603B4B1B683A699A4299
:1029D0004FD3364B1B681B68002B01D1012300E04D
:1029E0000023002B04D0344B4FF0FF321A6040E03C
:1029F0002E4B1B68DB68DB68BB60BB685B687B6079
:102A00003A697B689A4203D22B4B7A681A6030E0AD
:102A1000BB6804331846FFF7F9F8BB689B6A002BC4
:102A200004D0BB6818331846FFF7F0F8BB68DA6AC1
:102A3000224B1B689A4203D9BB68DA6A1F4B1A60A3
:102A4000BB68DA6A13469B0013449B001C4A1A4475
:102A5000BB68043310461946FFF77CF8BB68DA6A96
:102A6000184B1B68DB6A9A4202D301237B61B0E7F3
:102A7000AFE7144B1B68DA6A114913469B001344F5
:102A80009B000B441B68012B07D901237B6104E0E9
:102A90000D4B1B685A1C0C4B1A607B691846183783
:102AA000BD4680BDB4240020A82400205C24002062
:102AB00060240020C024002014000020AC2400204A
:102AC000F8230020F4230020B824002080B483B031
:102AD00000AF1F4B1B68002B03D01E4B01221A6056
:102AE00030E006E01C4B1B681B4B1B685A1E1A4B40
:102AF0001A60194B1A68194913469B0013449B002E
:102B00000B441B68002BEDD0134B1A6813469B0037
:102B100013449B00114A13447B607B685B685A68CE
:102B20007B685A607B685A687B6808339A4204D194
:102B30007B685B685A687B685A607B685B68DA68A8
:102B4000074B1A600C37BD465DF8047B704700BF29
:102B5000B4240020BC240020AC240020F823002052
:102B6000F423002080B584B000AF78603960124B48
:102B70001B68183378681946FFF710F80E4B1B686E
:102B800004331846FFF742F83B68B3F1FF3F07D123
:102B9000094B1B68043309481946FEF7DBFF07E0C1
:102BA000074B1A683B681344FB60F86800F0E4F9CF
:102BB0001037BD4680BD00BFF423002090240020C4
:102BC000A824002080B584B000AF786039600C4B39
:102BD0001B68183378681946FEF7BCFF084B1B6862
:102BE00004331846FFF712F8064B1A683B68134483
:102BF000FB60F86800F0C0F91037BD4680BD00BF2B
:102C0000F4230020A824002080B584B000AF7860B1
:102C10007B68DB68DB68BB60BB6818331846FEF76F
:102C2000F5FF1C4B1B68002B1DD1BB6804331846F5
:102C3000FEF7ECFFBB68DA6A174B1B689A4203D9B0
:102C4000BB68DA6A144B1A60BB68DA6A13469B00E9
:102C500013449B00114A1A44BB68043310461946BA
:102C6000FEF778FF05E0BB6818330D481946FEF7FC
:102C700071FFBB68DA6A0B4B1B68DB6A9A4202D3AE
:102C80000123FB6001E00023FB60FB68184610375E
:102C9000BD4680BDB4240020AC240020F8230020D1
:102CA00064240020F423002080B483B000AF786057
:102CB000064B1A687B681A60054B1A687B685A6075
:102CC0000C37BD465DF8047B704700BFC024002070
:102CD000A824002080B584B000AF78603960FFF789
:102CE0006FF81C4B1B68BB603B681B68B3F1FF3F70
:102CF00002D10023FB6026E07B681A68164B1B6834
:102D00009A4207D07B685A68BB689A4202D801236E
:102D1000FB6018E07B685B68BA68D21A3B681B6886
:102D20009A420ED23B681A687B685968BB68CB1A16
:102D30001A443B681A607868FFF7B6FF0023FB600F
:102D400001E00123FB60FFF74BF8FB6818461037E2
:102D5000BD4680BDA8240020C024002080B400AF60
:102D6000034B01221A60BD465DF8047B704700BF2B
:102D7000BC24002080B584B000AF786000F0C2F8B9
:102D8000FFF70CFDF860FB68012B11D9FFF7F8FC89
:102D9000084B1B68084B1B68FFF700FDF860FB68D9
:102DA000012B02D9F868FDF735FCFFF71FFDE5E7B9
:102DB000E4E700BF14000020A824002080B483B002
:102DC00000AF0123FB710A4B1B68002B02D00023CC
:102DD000FB7105E0074B1B68002B01D00023FB7142
:102DE000FB7918460C37BD465DF8047B704700BF81
:102DF00064240020BC24002080B586B000AFF860B9
:102E0000B9607A603B6000237B6112E0BA687B693D
:102E100013441A78F9687B690B4430331A71BA6825
:102E20007B6913441B78002B00D105E07B690133DB
:102E30007B617B69092BE9D9FB68002283F83D207F
:102E40007B68022B01D902237B60FB687A68DA6217
:102E5000FB687A681A64FB6804331846FEF76EFE56
:102E6000FB6818331846FEF769FEFB68FA681A61BA
:102E70007B68C3F10302FB689A61FB68FA685A62D7
:102E80001837BD4680BD00BF80B582B000AF0023BB
:102E90007B600CE07A6813469B0013449B00114A48
:102EA00013441846FEF72AFE7B6801337B607B687B
:102EB000022BEFD90C48FEF721FE0C48FEF71EFE50
:102EC0000B48FEF71BFE0B48FEF718FE0A48FEF7FC
:102ED00015FE0A4B044A1A60094B044A1A60083767
:102EE000BD4680BDF8230020342400204824002063
:102EF0006424002078240020902400205C240020FA
:102F00006024002080B582B000AF28E0FFF738FCD5
:102F1000164B1B68002B14BF00230123DBB27B6020
:102F2000FFF764FC7B68002B19D1FEF749FF0F4BBC
:102F3000DB68DB683B603B6804331846FEF766FEDF
:102F40000B4B1B685A1E0A4B1A600A4B1B685A1E11
:102F5000084B1A60FEF744FF386800F075F8054B1F
:102F60001B68002BD2D10837BD4680BD78240020D5
:102F7000A42400208C24002080B582B000AF7860AB
:102F8000134B1B687A685A60124B1B687A689A4226
:102F900009D2114B1A680E4B1B68043310461946B0
:102FA000FEF7FCFD10E00D4B1A68094B1B6804335B
:102FB00010461946FEF7F2FD094B1B687A689A42E3
:102FC00002D2074B7A681A600837BD4680BD00BF41
:102FD000F4230020A8240020602400205C2400208A
:102FE0001400002080B584B000AF03463960FB8038
:102FF0004420FEF733FDF860FB68002B1FD03B68D0
:10300000002B06D1FB889B001846FEF727FD0346E0
:1030100000E03B68FA681363FB681B6B002B05D16B
:10302000F868FEF761FD0023FB6008E0FB681A6B9F
:10303000FB889B001046A5211A4600F0D6FDFB68D0
:1030400018461037BD4680BD80B582B000AF7860AD
:103050007B681B6B1846FEF747FD7868FEF744FD5A
:103060000837BD4680BD00BF80B483B000AF054BBC
:103070001B687B607B6818460C37BD465DF8047B97
:10308000704700BFF423002080B483B000AF0B4B27
:103090001B68002B02D100237B6008E0084B1B68F3
:1030A000002B02D101237B6001E002237B607B685F
:1030B00018460C37BD465DF8047B7047B0240020ED
:1030C000B424002080B584B000AF78607B68FB60DA
:1030D0007B68002B46D0FB68DA6A244B1B68DB6AEE
:1030E0009A423FD2214B1B68DB6AC3F10302FB68A3
:1030F0009A61FB685969FB68DA6A13469B001344BE
:103100009B001B4A1344994201D1012300E0002394
:10311000002B22D0FB6804331846FEF777FD134BD3
:103120001B68DA6AFB68DA62FB68DA6A114B1B68B3
:103130009A4203D9FB68DA6A0E4B1A60FB68DA6AB6
:1031400013469B0013449B00094A1A44FB6804334E
:1031500010461946FEF7FEFC04E0044B1B68DA6AD1
:10316000FB68DA621037BD4680BD00BFF423002043
:10317000F8230020AC24002080B584B000AF786034
:103180007B68FB607B68002B2CD0FB68DA6AFB68ED
:103190001B6C9A4226D0FB6804331846FEF736FDB6
:1031A000FB681A6CFB68DA62FB68DB6AC3F1030236
:1031B000FB689A61FB68DA6A0C4B1B689A4203D978
:1031C000FB68DA6A094B1A60FB68DA6A13469B00EF
:1031D00013449B00064A1A44FB6804331046194600
:1031E000FEF7B8FC1037BD4680BD00BFAC24002000
:1031F000F823002080B586B004AF00237B6000F088
:1032000027FA0C4B1B68002B0ED0022300930023DF
:1032100001930023029300230393074807498C225C
:103220000023FFF7B9F978607B6818460837BD4678
:1032300080BD00BFF824002031330000B83C0000FE
:1032400080B588B000AFF860B9607A603B60002359
:10325000FB611D4B1B68002B30D0BB683B617B685A
:103260007B61FB68BB613B68002B1CD1FFF70CFF47
:103270000346012B0BD1144B1A6807F110031046BB
:103280001946BA6A0023FEF7A1FEF86116E00E4B5C
:103290001A6807F110031046194600220023FEF7B2
:1032A00095FEF8610AE0084B1A6807F11003104612
:1032B00019463A680023FEF725FFF861FB691846B6
:1032C0002037BD4680BD00BFF824002080B586B001
:1032D00002AF78603960154B1B68DB68DB68FB6008
:1032E000FB6804331846FEF791FCFB68DB69012B91
:1032F00015D1FB689A697B681344F86819463A68E7
:103300007B6800F0A3F80346012B08D1002300934B
:10331000F86800217A680023FFF792FFB860FB6825
:103320005B6AF86898471037BD4680BDF0240020DE
:1033300080B584B000AF786007F10803184600F04C
:103340003FF8F860BB68F868194600F003F800F031
:10335000BFF8F1E780B584B000AF78603960FFF75F
:103360000FFA07F10803184600F04EF8F860BB6842
:10337000002B1ED13B68002B0AD17A68FB689A4269
:1033800006D8FFF733FA7868F968FFF79FFF12E075
:103390000A4B1A687968FB68CB1A10461946FFF782
:1033A000CFF8FFF723FA0346002B04D1FEF7F8FC11
:1033B00001E0FFF71BFA1037BD4680BDF82400205E
:1033C00080B485B000AF78600E4B1B681B68002B83
:1033D00014BF00230123DBB21A467B681A607B68A6
:1033E0001B68002B05D1074B1B68DB681B68FB6063
:1033F00001E00023FB60FB6818461437BD465DF80A
:10340000047B7047F024002080B584B000AF786062
:10341000FFF772FAF8600C4B1B68FA689A4208D200
:10342000094B1B68184600F0BFF87B6801221A6040
:1034300002E07B6800221A60034BFA681A60FB689E
:1034400018461037BD4680BDFC24002080B586B0EC
:1034500000AFF860B9607A603B6000237B61FB6875
:10346000BA685A60FB68FA681A61BA687B689A425F
:1034700012D87A683B68D21AFB689B699A4202D3D9
:1034800001237B611BE0104B1A68FB680433104674
:103490001946FEF783FB12E07A683B689A4206D22F
:1034A000BA683B689A4202D301237B6107E0074B6D
:1034B0001A68FB68043310461946FEF76FFB7B69F8
:1034C00018461837BD4680BDF4240020F0240020A3
:1034D00080B58AB002AF54E03B69FB61FB695B6970
:1034E000002B04D0FB6904331846FEF78FFB3B1D0D
:1034F0001846FFF789FFB861BB68032B40D801A2CB
:1035000052F823F015350000813500005D350000CC
:1035100079350000FA68FB699B691A44FB68F86911
:103520001146BA69FFF792FF0346012B15D1FB69DB
:103530005B6AF8699847FB69DB69012B0DD1FA6872
:10354000FB699B69134400220092F86900211A4626
:103550000023FFF775FE786113E012E0FA68FB695B
:103560009A61FB699A69BB691344F8691946BA699B
:10357000BB69FFF76BFF04E0F869FEF7B5FA00E0FE
:1035800000BF084B1A6807F10803104619460022CD
:103590000023FEF70DFE0346002B9DD12037BD46CC
:1035A00080BD00BFF824002080B58AB002AF7860EB
:1035B00037E0254B1B68DB681B68FB61224B1B68EF
:1035C000DB68DB68BB61BB6904331846FEF71EFB92
:1035D000BB695B6AB8699847BB69DB69012B20D17D
:1035E000BB699A69FB6913447B617A69FB699A42FA
:1035F0000ED9BB697A695A60BB69BA691A61124B04
:103600001A68BB69043310461946FEF7C7FA08E08A
:1036100000230093B8690021FA690023FFF710FE28
:103620003861094B1B681B68002BC2D1064B1B6815
:10363000FB60064B1A68044B1A60044BFA681A6068
:103640002037BD4680BD00BFF0240020F4240020B8
:1036500080B500AFFEF7B4FB0D4B1B68002B13D1F8
:103660000C48FEF74BFA0C48FEF748FA0B4B094A98
:103670001A600B4B084A1A600A200C210022FEF740
:103680006DFC0246024B1A60FEF7AAFB80BD00BF2C
:10369000F8240020C8240020DC240020F02400208E
:1036A000F424002080B400AF72B6084B1B68B3F15D
:1036B000FF3F04D0054B1B685A1C044B1A60034B98
:1036C0001B681846BD465DF8047B7047B8000020B3
:1036D00080B483B000AF0C4B1B68002B0DD00A4B9D
:1036E0001B685A1E084B1A60074B1B687B607B687F
:1036F000002B00D162B67B6800E0002318460C372F
:10370000BD465DF8047B7047B800002080B487B0E8
:1037100000AFF860B9607A60FB6803F10473DA0007
:10372000BB6813449B007B617B697A681A601C3715
:10373000BD465DF8047B704780B400AF054B054A79
:10374000126922F004021A6130BFBD465DF8047BA5
:10375000704700BF00ED00E080B500AF02480121D6
:103760000122FFF7D3FF80BD00600C4080B582B01E
:1037700000AF78603960114B7A681A60104B3A6874
:103780001A60104B00221A700E4B00225A700D4B1B
:1037900000229A70FEF776F8034603F48073002B3C
:1037A00009D0FEF747F8064B1B68002B03D0044BEB
:1037B0001B68042098470837BD4680BD00250020BF
:1037C000042500200825002080B582B000AFFFF757
:1037D00069FF00F035F80346FB71FB79002B07D039
:1037E000FB79032B04D8FB79184600F04FF801E071
:1037F0000023FB71FFF76CFFFB7918460837BD46C5
:1038000080BD00BF80B582B000AF0346FB71FB797D
:10381000002B03D0FB79032B00D800BFFB79013BC1
:10382000064AD25C0132D1B2044AD154FB79022B50
:1038300001D1FFF791FF0837BD4680BD0825002064
:1038400080B483B000AF0023FB710F4B1B78002BBB
:103850000DD10123FB710C4B5B78002B07D10223A8
:10386000FB71094B9B78002B01D10323FB71FB7982
:10387000032B01D90323FB71FB7918460C37BD4696
:103880005DF8047B704700BF0825002080B582B03A
:1038900000AF0346FB71FB79002B03D0FB79042BAF
:1038A00000D800BF194B1B68002B04D0174B1B68B6
:1038B000FA7910469847FB79013B032B18D801A2EF
:1038C00052F823F0D5380000DB380000E338000060
:1038D000EB380000FFF730FF0BE00120FDF7FCFDA7
:1038E00007E00120FDF746FE03E0FDF7A3FE00E040
:1038F00000BF074B1B68002B04D0054B1B68FA79EF
:10390000104698470837BD4680BD00BF00250020FF
:1039100004250020074880470749084A084B9B1A9E
:1039200040F30580043BC858D0503FF7FBAF054833
:1039300000470000193B0000D43C000000000020BC
:103940008800002055010000FEE7FEE7FEE7FEE7E5
:10395000FEE7FEE7FEE7FEE7FEE7FEE7FEE7FEE73F
:10396000FEE7FEE7FEE7FEE7FEE7FEE7FEE7FEE72F
:10397000FEE7FEE7FEE7FEE7FEE7FEE7FEE7FEE71F
:10398000FEE7FEE7FEE7FEE7FEE7FEE7FEE7FEE70F
:10399000FEE7FEE7FEE7FEE7FEE7FEE7FEE7FEE7FF
:1039A000FEE7FEE7FEE7FEE7FEE700BF80B400AFFC
:1039B000044BDB6C1B0EDBB21846BD465DF8047B86
:1039C000704700BFB081E00F80B582B000AF00F05B
:1039D0001FF878600C4B1B6803F4E0339B0B01333A
:1039E0007A68B2FBF3F37B60074B5B6803F00F036D
:1039F0007A6822FA03F37B60044B7A681A607B686A
:103A000018460837BD4680BD00800C400C250020BC
:103A100080B582B000AF2F4BDB6A03F47053B3F56F
:103A2000805F0AD0B3F5005F03D0B3F5006F08D014
:103A30000BE0294B1B687B6047E04FF400437B6041
:103A400043E0264B1B687B603FE0224BDB6803F4BE
:103A5000E063B3F5007F1BD0B3F5007F05D8002BE2
:103A600024D0B3F5807F16D02BE0B3F5806F09D05A
:103A7000B3F5A06F03D0B3F5407F06D021E0184B1B
:103A80007B6021E0174B7B601EE0174B7B601BE0E7
:103A9000164B7B6018E0FFF789FF0346122B02D913
:103AA000134B7B6010E0134B7B600DE0FFF77EFF54
:103AB0000346122B02D9104B7B6005E00F4B7B6055
:103AC00002E000237B6000BF00BF7B681846083718
:103AD000BD4680BD00800C401C0000201800002066
:103AE000003FAB01406F4001809FD500C0D8A700C8
:103AF00040B56400C0CF6A00804F120040420F0002
:103B000080B400AF034B1B681846BD465DF8047BCC
:103B1000704700BF1800002080B400AFBD465DF8BC
:103B2000047B704780B400AF4FF400431846BD4695
:103B30005DF8047B704700BF80B400AF4FF47A7328
:103B40001846BD465DF8047B704700BF80B400AFE7
:103B5000034B1B681846BD465DF8047B704700BFE9
:103B60001C00002008B5074B044613B10021AFF339
:103B70000080054B1868836A03B19847204600F01F
:103B80003DF800BF00000000C43C000070B50E4BC3
:103B90000E4D0024ED1AAD101E46AC4204D056F86E
:103BA000242090470134F8E700F02AF8084D094B2B
:103BB0000024ED1AAD101E46AC4204D056F8242065
:103BC00090470134F8E770BD80000020800000209D
:103BD000840000208000002010B50023934203D011
:103BE000CC5CC4540133F9E710BD02440346934250
:103BF00002D003F8011BFAE770470000FEE700BFA0
:103C0000F8B500BFF8BC08BC9E467047F8B500BFC9
:103C1000F8BC08BC9E4670474C6564426C696E6B8C
:103C2000310000004C6564426C696E6B320000002C
:103C30000100000000000000020000008100000000
:103C400004000000910000000800000001000000D6
:103C5000100000000300000020000000DFEF000063
:103C6000400000009FEF00008000000019070000E6
:103C70000001000019060000000200001F040000FF
:103C8000000400001F020000000800000100000006
:103C900000100000010000000020000001000000F2
:103CA0000040000001000000008000000100000052
:103CB00049444C4500000000546D72205376630067
:0C3CC00043000000200000200000000075
:083CCC0088C4FF7F0100000025
:103CD4006400000000000000320000000100000049
:103CE400AAAAAAAAFFFFFFFF006CDC020080000062
:103CF40000000000000000000000000000000000C0
:103D040000000000000000000000000000000000AF
:103D1400C03C0000000000000000000000000000A3
:103D2400000000000000000000000000000000008F
:103D3400000000000000000000000000000000007F
:103D4400000000000000000000000000000000006F
:083D540025010000010100003F
:0400000300003915AB
:00000001FF
