:100000000000022085100000BB100000BD100000A1
:10001000BF100000C1100000C3100000B9100000A4
:10002000B9100000B9100000B9100000C5100000A0
:10003000C7100000B9100000C9100000CB1000006C
:10004000CD100000CF100000D1100000D310000030
:10005000D5100000D7100000D9100000DB10000000
:10006000DD100000DF100000E1100000E3100000D0
:10007000E5100000E7100000E9100000EB100000A0
:10008000ED100000EF100000F1100000F310000070
:10009000F5100000F7100000F9100000FB10000040
:1000A000FD100000FF10000001110000031100000E
:1000B0000511000007110000091100000B110000DC
:1000C0000D1100000F1100001111000013110000AC
:1000D00015110000171100001911000000000000A8
:1000E0000000000000000000000000000000000010
:1000F0000000000000000000000000000000000000
:1001000010B5054C237833B9044B13B10448AFF351
:1001100000800123237010BD70000020000000004B
:10012000FC13000008B5064B1BB106480649AFF3A7
:1001300000800648036813B1054B03B1984708BD1A
:1001400000000000FC13000074000020700000207C
:1001500000000000154B002B08BF134B9D46A3F574
:10016000803A00218B460F461348144A121A01F0B8
:10017000EBF80F4B002B00D098470E4B002B00D014
:1001800098470020002104000D000D48002802D0EF
:100190000C48AFF3008001F0B1F82000290000F016
:1001A00069F801F097F800BF000008000000022085
:1001B000000000000000000070000020A0000020EF
:1001C000000000000000000080B582B000AF0C4BC2
:1001D0001B687B603B46184600F0AEFE7B681B0E3A
:1001E0000F2B0AD93B78032B07D1064B054A12681F
:1001F00022F0500242F010021A600837BD4680BD5E
:10020000FC81E00FC0800C4090B484B000AF034686
:10021000B9607A60FB730E48FA7B0D4CF97B0B4694
:10022000DB000B449B002344083359687B68DB43A5
:100230001940BC687B68234019431346DB00134414
:100240009B000344083359601037BD4690BC70478B
:100250000060004080B500AF0548012100F0F8F9CA
:10026000002007210422002300F03AFD80BD00BFDA
:1002700000D2020080B582B000AFFFF7A5FF0020DA
:10028000002100F0B3FE032000F0DEFE00F014F8C1
:10029000FFF7E0FF00237B6002E07B6801337B60B7
:1002A0007A68044B9A42F8D9002080218022FFF717
:1002B000ABFFEFE7FEFF0F0080B500AF5120052137
:1002C00000F088FB0A4B0A4A12681A60084B084A79
:1002D000126842F400521A60064B064A526A42F40F
:1002E00080725A6200200121012200F08BFC80BD47
:1002F00000800C4000600C4080B487B000AFF86014
:10030000B9607A60FB6803F10473DA00BB681344D8
:100310009B007B617B697A681A601C37BD465DF87B
:10032000047B704780B483B000AF1D4BDB6C03F4DB
:100330007F031B0CFB71FB794A2B04D04B2B26D07F
:10034000482B22D025E0174B1B699BB203F03F03DB
:100350009BB21B02BB80134B9B699BB203F0F00363
:100360009AB2BB881343BB800E4BDB6903F0F003EA
:100370001B099AB2BB881343BB80BB88B3F5017FCE
:1003800001D3094B06E0094B04E0084B02E0064BA1
:1003900000E0002318460C37BD465DF8047B70472B
:1003A000B081E00FD0FF0FE000366E010048E80199
:1003B00080B485B000AF7860284BDB6B002B0CBF9E
:1003C00000230123BB72254B41F67132DA63234BC4
:1003D0005B6803F00703FB60FB68012B01D9042B6A
:1003E00002D10023FB7202E00123FB7200BF7A6896
:1003F0001B4B9A4207D9FB7A002B01D0052300E062
:100400000423FB6016E07A68154B9A420BD87A6891
:10041000144B9A4207D9FB7A002B01D0032300E04A
:100420000123FB6006E0FB7A002B01D0022300E0F1
:100430000023FB60094B094A526822F00701FA6861
:100440000A435A60BB7A002B02D0044B0022DA63C5
:100450001437BD465DF8047B704700BF00000C40B8
:100460000048E8010024F40080B582B000AF044BDE
:100470007B607868FFF79CFF0837BD4680BD00BFF2
:10048000006CDC0280B483B000AF1A4B5B6903F4EC
:10049000E063B3F5007F14D0B3F5007F05D8002BDF
:1004A00015D0B3F5807F0FD01AE0B3F5C06F14D02C
:1004B000B3F5E06F0ED0B3F5407F11D10E4B7B60EA
:1004C00011E00E4B7B600EE00D4B7B600BE00D4BA3
:1004D0007B6008E00C4B7B6005E00C4B7B6002E02E
:1004E00000237B6000BF7B6818460C37BD465DF873
:1004F000047B704700800C4040420F00C0CF6A0070
:10050000C0D8A700809FD500406F4001003FAB01DD
:1005100080B582B000AF124800F0CAF90346FB7004
:10052000FB78072B0FD0082B11D100F029FE786043
:100530000C4B1B6803F4E0339B0B01337A68B2FB6E
:10054000F3F37B6006E0FFF79DFF786002E0002395
:100550007B6000BF7B6818460837BD4680BD00BF82
:100560000400180000800C4080B584B000AF7860B3
:100570007B68002B02D07B68012B00D100BF264B8B
:100580009A6A7B685B0022FA03F303F00303032BF0
:100590003AD801A252F823F0E9050000A9050000AD
:1005A000B1050000B905000000F074FEF8602EE00F
:1005B00000F084FEF8602AE0174B5B6803F4807358
:1005C000002B05D1144B1B6803F08043002B05D092
:1005D00000F0B2FD03469B08FB6018E000F0ACFDA4
:1005E00003465B08FB6012E00B4B9A6A7B6804339E
:1005F0009B0022FA03F3002B03D000F055FEF860B5
:1006000005E00023FB6002E00023FB6000BFFB6805
:1006100018461037BD4680BD00800C4080B483B0C2
:1006200000AF7860094B5B6D03F00103002B00D035
:1006300006E000BF054B1A6D7B681340002BF9D113
:100640000C37BD465DF8047B704700BF00800C404E
:1006500090B587B000AF78600B46FB7000233B611C
:100660007B681B0A03F00F03013B052B4AD801A24C
:1006700052F823F08D060000930600009906000052
:10068000C7060000D1060000DB0600001F4B7B619F
:1006900026E01F4B7B6123E01E4B7B611E4800F070
:1006A00047F80446FFF73EFE03469C420AD91B4822
:1006B0001E210122FFF720FE194808210122FFF721
:1006C0001BFE0DE00CE0174B7B6101233B6107E053
:1006D000154B7B6110233B6102E0144B7B6100BF33
:1006E0007B681B0B03F01F03FB603B69002B02D0F0
:1006F0003869FFF793FFFB787869F9681A46FFF7C6
:10070000FBFD00E000BF1C37BD4690BD08800C40DB
:1007100044800C4040800C402000040000800C40CD
:1007200004800C4058800C4060800C4078800C4065
:1007300080B584B000AF78607B6803F47813B3F5BC
:10074000202F67D0B3F5202F12D8B3F5802F4AD0D1
:10075000B3F5802F05D8002B21D0B3F5003F2CD066
:100760009BE0B3F5C02F42D0B3F5002F44D094E006
:10077000B3F5A01F6ED0B3F5A01F06D8B3F5801F48
:1007800056D0B3F5901F60D087E0B3F5C01F7CD082
:10079000B3F5D01F7DD0B3F5B01F68D07DE000F079
:1007A000EFFCF860414B1B6803F4E0339B0B013313
:1007B000FA68B2FBF3F3FB6072E000F0E1FCF86072
:1007C0003A4B1B6803F4E0339B0B0133FA68B2FB2E
:1007D000F3F3FB60354B9B6803F00F03FA6822FAD2
:1007E00003F3FB605CE000F0A7FCF86058E0002039
:1007F000FFF7BAFEF86053E00020FFF7B5FEF8609F
:100800002A4B9B6E03F0F0031B09FA6822FA03F3EC
:10081000FB6045E00020FFF7A7FEF860234B9B6ECE
:1008200003F470631B0AFA6822FA03F3FB6037E0F3
:100830000020FFF799FEF8601C4B9B6E03F003034A
:10084000FA6822FA03F3FB602AE00120FFF78CFE2E
:10085000F86025E00120FFF787FEF860134B1B6F5F
:1008600003F00303FA6822FA03F3FB6018E00120A7
:10087000FFF77AFEF8600D4B1B6F03F030031B0986
:10088000FA6822FA03F3FB600AE0FFF741FEF86022
:1008900006E0FFF7F7FDF86002E00023FB6000BF11
:1008A000FB6818461037BD4680BD00BF00800C4075
:1008B00080B487B000AF78600123FB754FF47053AC
:1008C0003B617B6803F00F03FB60FB68013B032B7C
:1008D00074D801A252F823F0E90800001F090000B3
:1008E0005B09000097090000394BDA6A3B69134045
:1008F000B3F5805F09D0B3F5005F03D0B3F5006FA7
:1009000006D008E00223FB7508E00323FB7505E031
:100910000423FB7502E00523FB7500BF51E02C4B5F
:100920009B6A03F00303022B06D0032B07D0012B95
:1009300008D10323FB750FE00223FB750CE00623AF
:10094000FB7509E0224B9B6A03F48033002B02D035
:100950000923FB7500E000BF33E01D4B9B6A03F0E9
:100960000C03082B06D00C2B07D0042B08D1032333
:10097000FB750FE00223FB750CE00623FB7509E015
:10098000134B9B6A03F48013002B02D00923FB75E1
:1009900000E000BF15E00723FB750D4B1B6803F05B
:1009A0008053002B03D0B3F1805F03D009E007230D
:1009B000FB7502E00823FB7500BF02E00023FB7516
:1009C00000BFFB7D18461C37BD465DF8047B7047B1
:1009D00000800C4090B589B000AF78600B46FB708A
:1009E0000323FB610323FB7600237B617B6803F019
:1009F0000F03FB60FB68013B032B00F2F48001A2B4
:100A000052F823F0150A0000E10A0000E10A000094
:100A1000BD0B0000FB78023B072B00F2E68001A231
:100A200052F823F0450A00004F0A0000590A00005E
:100A3000AD0A0000EB0B0000EB0B0000EB0B00001D
:100A4000B70A00000423FB610023FB7634E0032394
:100A5000FB610123FB762FE00223FB610223FB767F
:100A600000F006FC0446FFF75DFC03469C4213D9E8
:100A7000614A614B1B6843F0804343F0600313609D
:100A80005D4B1B6C03F01003002B0ED05B4808215C
:100A90000122FFF731FC0FE0574B574A126822F052
:100AA000600242F020021A6006E005E00123FB61CB
:100AB0000323FB7600E000BFFB7E184601210122E4
:100AC00000F0A0F8FFF7D0FC4B4BFA695A6200F037
:100AD000F9F800F031FBB860B868FFF769FC87E00F
:100AE000FB78013B082B00F2828001A252F823F030
:100AF000150B00001B0B00002B0B0000EF0B000080
:100B0000EF0B00003B0B0000EF0B0000EF0B0000B1
:100B1000730B000000233B6130E000200121012223
:100B200000F070F802233B6128E00120012101223E
:100B300000F068F801233B6120E0314804210122E4
:100B4000FFF7DAFB03233B6100F0F6FAB860FFF72A
:100B5000E9FB0246BB689A420AD227481E210122BD
:100B6000FFF7CAFB254808210122FFF7C5FB05E076
:100B700004E000233B6101237B6100BFFB68022B83
:100B80000DD11D4A1C4B9B6A23F4803323F00303D1
:100B9000396919437B691B040B43936228E0164AA9
:100BA000154B9B6A23F4801323F00C0339698900E9
:100BB00019437B691B050B43936219E0FB78072BF4
:100BC00002D0082B07D013E00B4B0B4A126822F01F
:100BD00080521A6006E0084B074A126842F08052C1
:100BE0001A6000BF04E000BF02E000BF00E000BFE9
:100BF0002437BD4690BD00BF00800C4004800C40EF
:100C000040800C4080B586B000AF13460246FA71B2
:100C10000A46BA717B71FB79052B4CD801A252F8B8
:100C200023F000BF750C0000670C00004B0C0000A7
:100C30003D0C0000590C0000B70C000001233B6183
:100C40000223FB6002237B611EE004233B61082337
:100C5000FB6008237B6117E010233B612023FB60CE
:100C600020237B6110E040233B618023FB608023D5
:100C70007B6109E04FF480733B614FF40073FB60CC
:100C80004FF400737B6100BFBB79002B0DD00C4B80
:100C90003A691A627B79002B0AD000BF084BDA6AE6
:100CA0007B691340002BF9D002E0054BFA681A6209
:100CB00000F008F800E000BF1837BD4680BD00BF57
:100CC00000800C4080B400AF034BDA6A034B1A601B
:100CD000BD465DF8047B704700800C408C0000200E
:100CE00090B484B000AFB9607B600346FB731346D9
:100CF000BB73FB7B052B03D8BB680F2B00D800BF51
:100D0000BB7B002B1FD07B68002B0ED04448FA7BA6
:100D1000BB68012101FA03F319461346DB001344B3
:100D20009B000344103319600DE03D48FA7BBB681B
:100D3000012101FA03F319461346DB0013449B001B
:100D4000034410335960BB68072B1DD83448FA7B25
:100D5000334CF97B0B46DB000B449B002344596862
:100D6000BB689B000F2404FA03F3DB431940BC7BF0
:100D7000BB689B0004FA03F319431346DB001344DA
:100D80009B000344596024E02548FA7B244CF97BFE
:100D90000B46DB000B449B00234408331968BB68F7
:100DA00003F18043083B9B000F2404FA03F3DB4369
:100DB0001940BC7BBB6803F18043083B9B0004FAED
:100DC00003F319431346DB0013449B000344083329
:100DD0001960BB7B002B1FD17B68002B0ED0104805
:100DE000FA7BBB68012101FA03F319461346DB00C5
:100DF00013449B000344103319600DE00848FA7B4C
:100E0000BB68012101FA03F319461346DB001344C2
:100E10009B000344103359601037BD4690BC7047A7
:100E20000060004080B487B000AFF860B9607A60BD
:100E3000FB6803F10473DA00BB6813449B007B6119
:100E40007B697A681A601C37BD465DF8047B704781
:100E500080B400AF034B00229A60BD465DF8047B6E
:100E6000704700BF00600C4080B400AF034B4AF6EF
:100E7000E8529A60BD465DF8047B704700600C4004
:100E800080B582B000AF0F4B01229A600E4B9B6879
:100E900003F001037B607B68002B01D0FFF7E4FFC8
:100EA0000A4800210122FFF7BDFF08480021002267
:100EB000FFF7B8FF7B68002B01D0FFF7C9FF0837A9
:100EC000BD4680BD00A00C4000600C4024600C407A
:100ED00080B485B000AF164B5B687B600023FB607D
:100EE0000023BB601AE0134BBA6853F832207B68CA
:100EF0001340002B0FD00F4ABB68DB0013445A6825
:100F00007B681340002B06D10A4BBA6853F8323085
:100F1000FA681343FB60BB680133BB60BB680F2BEF
:100F2000E1DDFB6818461437BD465DF8047B704769
:100F300000A00C407413000080B485B000AF78604E
:100F4000194B5B69DBB203F00F03DBB29B00FB7351
:100F5000154B1B6903F0C0039B09DAB2FB7B1343FB
:100F6000FB737B68FA7B9A700F4B1B69DBB203F053
:100F70003F03DAB27B685A700B4B9B69DBB223F0FC
:100F80000F03FB73084BDB6903F0F0031B09DAB2B4
:100F9000FB7B1343FB737B68FA7B1A701437BD46E7
:100FA0005DF8047B704700BFD0FF0FE080B487B0CE
:100FB00000AFF860B9607A60FB6803F10473DA008F
:100FC000BB6813449B007B617B697A681A601C379D
:100FD000BD465DF8047B704780B500AF0248012133
:100FE0000122FFF7E3FF80BD00600C4080B582B0B6
:100FF00000AF78603960114B7A681A60104B3A681C
:101000001A60104B00221A700E4B00225A700D4BC2
:1010100000229A70FFF75CFF034603F48073002BF5
:1010200009D0FFF72DFF064B1B68002B03D0044BA4
:101030001B68042098470837BD4680BD90000020FB
:10104000940000209800002080B582B000AF0346D5
:10105000FB71FB79002B03D0FB79032B00D800BF79
:10106000FB79013B064AD25C0132D1B2044AD15429
:10107000FB79022B01D1FFF7AFFF0837BD4680BDDA
:1010800098000020074880470749084A084B9B1AE8
:1010900040F30580043BC858D0503FF7FBAF0548EC
:1010A0000047000089120000081400000000002022
:1010B0007000002055010000FEE7FEE7FEE7FEE7B6
:1010C000FEE7FEE7FEE7FEE7FEE7FEE7FEE7FEE7F8
:1010D000FEE7FEE7FEE7FEE7FEE7FEE7FEE7FEE7E8
:1010E000FEE7FEE7FEE7FEE7FEE7FEE7FEE7FEE7D8
:1010F000FEE7FEE7FEE7FEE7FEE7FEE7FEE7FEE7C8
:10110000FEE7FEE7FEE7FEE7FEE7FEE7FEE7FEE7B7
:10111000FEE7FEE7FEE7FEE7FEE700BF80B400AFB4
:10112000044BDB6C1B0EDBB21846BD465DF8047B3E
:10113000704700BFB081E00F80B582B000AF00F013
:101140001FF878600C4B1B6803F4E0339B0B0133F2
:101150007A68B2FBF3F37B60074B5B6803F00F0325
:101160007A6822FA03F37B60044B7A681A607B6822
:1011700018460837BD4680BD00800C409C0000200A
:1011800080B582B000AF2F4BDB6A03F47053B3F528
:10119000805F0AD0B3F5005F03D0B3F5006F08D0CD
:1011A0000BE0294B1B687B6047E04FF400437B60FA
:1011B00043E0264B1B687B603FE0224BDB6803F477
:1011C000E063B3F5007F1BD0B3F5007F05D8002B9B
:1011D00024D0B3F5807F16D02BE0B3F5806F09D013
:1011E000B3F5A06F03D0B3F5407F06D021E0184BD4
:1011F0007B6021E0174B7B601EE0174B7B601BE0A0
:10120000164B7B6018E0FFF789FF0346122B02D9CB
:10121000134B7B6010E0134B7B600DE0FFF77EFF0C
:101220000346122B02D9104B7B6005E00F4B7B600D
:1012300002E000237B6000BF00BF7B6818460837D0
:10124000BD4680BD00800C4004000020000000204E
:10125000003FAB01406F4001809FD500C0D8A70080
:1012600040B56400C0CF6A00804F120040420F00BA
:1012700080B400AF034B1B681846BD465DF8047B85
:10128000704700BF0000002080B400AFBD465DF88D
:10129000047B704780B400AF4FF400431846BD464E
:1012A0005DF8047B704700BF80B400AF4FF47A73E1
:1012B0001846BD465DF8047B704700BF80B400AFA0
:1012C000034B1B681846BD465DF8047B704700BFA2
:1012D0000400002008B5074B044613B10021AFF30A
:1012E0000080054B1868836A03B19847204600F0D8
:1012F00033F800BF00000000F813000070B50E4B7B
:101300000E4D0024ED1AAD101E46AC4204D056F826
:10131000242090470134F8E700F020F8084D094BED
:101320000024ED1AAD101E46AC4204D056F824201D
:1013300090470134F8E770BD680000206800002085
:101340006C0000206800002002440346934202D053
:1013500003F8011BFAE77047FEE700BFF8B500BFCE
:10136000F8BC08BC9E467047F8B500BFF8BC08BC86
:101370009E467047010000000000000002000000CF
:10138000810000000400000091000000080000003F
:101390000100000010000000030000002000000019
:1013A000DFEF0000400000009FEF00008000000021
:1013B00019070000000100001906000000020000EB
:1013C0001F040000000400001F02000000080000CD
:1013D00001000000001000000100000000200000DB
:1013E000010000000040000001000000008000003B
:1013F0000100000043000000080000200000000081
:0814000054EDFF7F0100000024
:10140800006CDC020080000000000000000000000A
:1014180000000000000000000000000000000000C4
:101428000000000000000000F413000000000000AD
:1014380000000000000000000000000000000000A4
:101448000000000000000000000000000000000094
:101458000000000000000000000000000000000084
:10146800000000000000000025010000010100004C
:040000030000108564
:00000001FF
