:1000000000000220490D00007F0D0000810D00005E
:10001000830D0000850D0000870D00007D0D0000A0
:100020007D0D00007D0D00007D0D0000890D00009C
:100030008B0D00007D0D00008D0D00008F0D000068
:10004000C9070000930D0000950D0000970D0000FA
:10005000990D00009B0D00009D0D00009F0D0000FC
:10006000A10D0000A30D0000A50D0000A70D0000CC
:10007000A90D0000AB0D0000AD0D0000AF0D00009C
:10008000B10D0000B30D0000B50D0000B70D00006C
:10009000B90D0000BB0D0000BD0D0000BF0D00003C
:1000A000C10D0000C30D0000C50D0000C70D00000C
:1000B000C90D0000CB0D0000CD0D0000CF0D0000DC
:1000C000D10D0000D30D0000D50D0000D70D0000AC
:1000D000D90D0000DB0D0000DD0D00000000000068
:1000E0000000000000000000000000000000000010
:1000F0000000000000000000000000000000000000
:1001000010B5054C237833B9044B13B10448AFF351
:1001100000800123237010BD70000020000000004B
:10012000880E000008B5064B1BB106480649AFF320
:1001300000800648036813B1054B03B1984708BD1A
:1001400000000000880E00007400002070000020F5
:1001500000000000154B002B08BF134B9D46A3F574
:10016000803A00218B460F461348144A121A00F0B9
:1001700071FE0F4B002B00D098470E4B002B00D088
:1001800098470020002104000D000D48002802D0EF
:100190000C48AFF3008000F037FE2000290000F08B
:1001A000D5FC00F01DFE00BF00000800000002208A
:1001B00000000000000000007000002090000020FF
:1001C000000000000000000080B487B000AFF860BD
:1001D000B9607A60FB6803F10473DA00BB6813440A
:1001E0009B007B617B697A681A601C37BD465DF8AD
:1001F000047B704780B483B000AF1D4BDB6C03F40D
:100200007F031B0CFB71FB794A2B04D04B2B26D0B0
:10021000482B22D025E0174B1B699BB203F03F030C
:100220009BB21B02BB80134B9B699BB203F0F00394
:100230009AB2BB881343BB800E4BDB6903F0F0031B
:100240001B099AB2BB881343BB80BB88B3F5017FFF
:1002500001D3094B06E0094B04E0084B02E0064BD2
:1002600000E0002318460C37BD465DF8047B70475C
:10027000B081E00FD0FF0FE000366E010048E801CA
:1002800080B483B000AF1A4B5B6903F4E063B3F54D
:10029000007F14D0B3F5007F05D8002B15D0B3F53F
:1002A000807F0FD01AE0B3F5C06F14D0B3F5E06FC4
:1002B0000ED0B3F5407F11D10E4B7B6011E00E4B99
:1002C0007B600EE00D4B7B600BE00D4B7B6008E02C
:1002D0000C4B7B6005E00C4B7B6002E000237B60F5
:1002E00000BF7B6818460C37BD465DF8047B70473D
:1002F00000800C4040420F00C0CF6A00C0D8A70069
:10030000809FD500406F4001003FAB0180B582B0B7
:1003100000AF124800F0CAF90346FB70FB78072BC8
:100320000FD0082B11D100F071FC78600C4B1B68CA
:1003300003F4E0339B0B01337A68B2FBF3F37B6089
:1003400006E0FFF79DFF786002E000237B6000BFBE
:100350007B6818460837BD4680BD00BF0400180002
:1003600000800C4080B584B000AF78607B68002BC3
:1003700002D07B68012B00D100BF264B9A6A7B68B4
:100380005B0022FA03F303F00303032B3AD801A224
:1003900052F823F0E5030000A5030000AD030000C0
:1003A000B503000000F0B0FCF8602EE000F0C0FCE7
:1003B000F8602AE0174B5B6803F48073002B05D1CB
:1003C000144B1B6803F08043002B05D000F0FAFBB0
:1003D00003469B08FB6018E000F0F4FB03465B0853
:1003E000FB6012E00B4B9A6A7B6804339B0022FA95
:1003F00003F3002B03D000F091FCF86005E000232C
:10040000FB6002E00023FB6000BFFB68184610376A
:10041000BD4680BD00800C4080B483B000AF7860E2
:10042000094B5B6D03F00103002B00D006E000BF19
:10043000054B1A6D7B681340002BF9D10C37BD4674
:100440005DF8047B704700BF00800C4090B587B01A
:1004500000AF78600B46FB7000233B617B681B0A92
:1004600003F00F03013B052B4AD801A252F823F0F9
:10047000890400008F04000095040000C3040000FC
:10048000CD040000D70400001F4B7B6126E01F4B0A
:100490007B6123E01E4B7B611E4800F047F8044659
:1004A000FFF7A8FE03469C420AD91B481E210122E1
:1004B000FFF78AFE194808210122FFF785FE0DE0AB
:1004C0000CE0174B7B6101233B6107E0154B7B611F
:1004D00010233B6102E0144B7B6100BF7B681B0B68
:1004E00003F01F03FB603B69002B02D03869FFF764
:1004F00093FFFB787869F9681A46FFF765FE00E01C
:1005000000BF1C37BD4690BD08800C4044800C40A5
:1005100040800C402000040000800C4004800C400F
:1005200058800C4060800C4078800C4080B584B0CE
:1005300000AF78607B6803F47813B3F5202F67D0A1
:10054000B3F5202F12D8B3F5802F4AD0B3F5802F02
:1005500005D8002B21D0B3F5003F2CD09BE0B3F59C
:10056000C02F42D0B3F5002F44D094E0B3F5A01FC4
:100570006ED0B3F5A01F06D8B3F5801F56D0B3F5E3
:10058000901F60D087E0B3F5C01F7CD0B3F5D01FBB
:100590007DD0B3F5B01F68D07DE000F037FBF86088
:1005A000414B1B6803F4E0339B0B0133FA68B2FB49
:1005B000F3F3FB6072E000F029FBF8603A4B1B6834
:1005C00003F4E0339B0B0133FA68B2FBF3F3FB60F7
:1005D000354B9B6803F00F03FA6822FA03F3FB60C4
:1005E0005CE000F0EFFAF86058E00020FFF7BAFE98
:1005F000F86053E00020FFF7B5FEF8602A4B9B6ED1
:1006000003F0F0031B09FA6822FA03F3FB6045E0EC
:100610000020FFF7A7FEF860234B9B6E03F4706386
:100620001B0AFA6822FA03F3FB6037E00020FFF7A9
:1006300099FEF8601C4B9B6E03F00303FA6822FAE4
:1006400003F3FB602AE00120FFF78CFEF86025E051
:100650000120FFF787FEF860134B1B6F03F00303C5
:10066000FA6822FA03F3FB6018E00120FFF77AFE34
:10067000F8600D4B1B6F03F030031B09FA6822FA78
:1006800003F3FB600AE0FFF741FEF86006E0FFF7C6
:10069000F7FDF86002E00023FB6000BFFB6818462E
:1006A0001037BD4680BD00BF00800C4080B485B0CF
:1006B00000AF78600123FB737B6803F00F03BB601E
:1006C000BB68013B032B73D801A252F823F000BF93
:1006D000E106000017070000530700008F07000025
:1006E000384BDB6A03F47053B3F5805F09D0B3F580
:1006F000005F03D0B3F5006F06D008E00223FB7360
:1007000008E00323FB7305E00423FB7302E00523E9
:10071000FB7300BF4FE02B4B9B6A03F00303022BDC
:1007200006D0032B07D0012B08D10323FB730FE066
:100730000223FB730CE00623FB7309E0214B9B6A49
:1007400003F48033002B02D00923FB7300E000BFC9
:1007500031E01C4B9B6A03F00C03082B06D00C2BDA
:1007600007D0042B08D10323FB730FE00223FB7394
:100770000CE00623FB7309E0124B9B6A03F4801321
:10078000002B02D00923FB7300E000BF13E00D4BE8
:100790001B6803F08053002B03D0B3F1805F03D0BC
:1007A00009E00723FB7302E00823FB7300BF02E0AC
:1007B0000023FB7300BFFB7B18461437BD465DF872
:1007C000047B704700800C4080B58AB000AF354B89
:1007D00003F580531B68BB61324B03F580530C3328
:1007E0001B68BA691340BB61BB69002B00DAFEE7E6
:1007F0002C4B9B6B7B61BA697B6913403B62002386
:10080000FB6149E000237B623BE03B6A03F00103AC
:10081000002B30D0234B9B683B6101227B6A02FA9C
:1008200003F3FB601F4B03F580530833FA681A602B
:100830007B6A1B013A691344DB68BB60BB68002B11
:1008400019D0BB681B7A7B60BB681B7A83F00103FD
:10085000DAB2BB681A72BB681B68002B0BD0BB688E
:100860001B68786A7A68002A0CBF00220122D1B284
:10087000BA68526898473B6A5B083B627B6A0133FF
:100880007B623B6A002BC0D17B69DA43BB691340B2
:100890003B62FB690133FB61FB69012BB2DD283749
:1008A000BD4680BD00200C4090B484B000AFB9605C
:1008B0007B600346FB731346BB73FB7B052B03D89E
:1008C000BB680F2B00D800BFBB7B002B1FD07B6801
:1008D000002B0ED04448FA7BBB68012101FA03F3D8
:1008E00019461346DB0013449B0003441033196080
:1008F0000DE03D48FA7BBB68012101FA03F319467C
:100900001346DB0013449B00034410335960BB685B
:10091000072B1DD83448FA7B334CF97B0B46DB00A0
:100920000B449B0023445968BB689B000F2404FAC6
:1009300003F3DB431940BC7BBB689B0004FA03F361
:1009400019431346DB0013449B000344596024E021
:100950002548FA7B244CF97B0B46DB000B449B00BB
:10096000234408331968BB6803F18043083B9B00AC
:100970000F2404FA03F3DB431940BC7BBB6803F18B
:100980008043083B9B0004FA03F319431346DB0042
:1009900013449B00034408331960BB7B002B1FD119
:1009A0007B68002B0ED01048FA7BBB68012101FA4E
:1009B00003F319461346DB0013449B000344103332
:1009C00019600DE00848FA7BBB68012101FA03F3C6
:1009D00019461346DB0013449B000344103359604F
:1009E0001037BD4690BC70470060004080B485B0B1
:1009F00000AF7860194B5B69DBB203F00F03DBB229
:100A00009B00FB73154B1B6903F0C0039B09DAB213
:100A1000FB7B1343FB737B68FA7B9A700F4B1B695C
:100A2000DBB203F03F03DAB27B685A700B4B9B6971
:100A3000DBB223F00F03FB73084BDB6903F0F00319
:100A40001B09DAB2FB7B1343FB737B68FA7B1A70DA
:100A50001437BD465DF8047B704700BFD0FF0FE040
:100A600090B484B000AF0346B9607A60FB730E485F
:100A7000FA7B0D4CF97B0B46DB000B449B002344B7
:100A8000083359687B68DB431940BC687B682340A6
:100A900019431346DB0013449B0003440833596099
:100AA0001037BD4690BC70470060004080B582B0F2
:100AB00000AF0C4B1B687B603B461846FFF796FF68
:100AC0007B681B0E0F2B0AD93B78032B07D1064BF3
:100AD000054A126822F0500242F010021A600837EC
:100AE000BD4680BDFC81E00FC0800C4080B483B067
:100AF00000AF0346FB80134B124A526C42F02002B7
:100B00005A64114B104A126822F0706242F020625F
:100B10001A600D4B00225A620B4B01225A6000BF33
:100B2000094B596AFA8813465B0013449B0013442F
:100B30009942F5D3044B02225A600C37BD465DF84A
:100B4000047B704700800C400000014080B582B0FB
:100B500000AFFFF7ABFF0023FB7112480121FFF745
:100B600075FC0420022104220023FFF79DFEFB797F
:100B7000002B0CBF00230123DBB283F00103DBB2A7
:100B8000FB71FB7903F00103FB714FF4FA70FFF77F
:100B9000ADFFFB799B00042019460422FFF760FF9C
:100BA000E5E700BF00D2020080B400AF044BDB6C6D
:100BB0001B0EDBB21846BD465DF8047B704700BFD4
:100BC000B081E00F80B582B000AF00F01FF8786010
:100BD0000C4B1B6803F4E0339B0B01337A68B2FBC8
:100BE000F3F37B60074B5B6803F00F037A6822FA2C
:100BF00003F37B60044B7A681A607B6818460837F9
:100C0000BD4680BD00800C408C00002080B582B0C5
:100C100000AF2F4BDB6A03F47053B3F5805F0AD04B
:100C2000B3F5005F03D0B3F5006F08D00BE0294B9C
:100C30001B687B6047E04FF400437B6043E0264B3A
:100C40001B687B603FE0224BDB6803F4E063B3F595
:100C5000007F1BD0B3F5007F05D8002B24D0B3F55F
:100C6000807F16D02BE0B3F5806F09D0B3F5A06F6D
:100C700003D0B3F5407F06D021E0184B7B6021E024
:100C8000174B7B601EE0174B7B601BE0164B7B60B5
:100C900018E0FFF789FF0346122B02D9134B7B6044
:100CA00010E0134B7B600DE0FFF77EFF0346122B35
:100CB00002D9104B7B6005E00F4B7B6002E0002304
:100CC0007B6000BF00BF7B6818460837BD4680BD0B
:100CD00000800C400400002000000020003FAB0119
:100CE000406F4001809FD500C0D8A70040B5640088
:100CF000C0CF6A00804F120040420F0080B400AFA6
:100D0000BD465DF8047B704780B400AF4FF40043EC
:100D10001846BD465DF8047B704700BF80B400AF45
:100D20004FF47A731846BD465DF8047B704700BFE8
:100D300080B400AF034B1B681846BD465DF8047BCA
:100D4000704700BF04000020074880470749084A51
:100D5000084B9B1A40F30580043BC858D0503FF71E
:100D6000FBAF054800470000FD0C0000940E00009A
:100D7000000000207000002055010000FEE7FEE7A3
:100D8000FEE7FEE7FEE7FEE7FEE7FEE7FEE7FEE73B
:100D9000FEE7FEE7FEE7FEE7FEE7FEE7FEE7FEE72B
:100DA000FEE7FEE7FEE7FEE7FEE7FEE7FEE7FEE71B
:100DB000FEE7FEE7FEE7FEE7FEE7FEE7FEE7FEE70B
:100DC000FEE7FEE7FEE7FEE7FEE7FEE7FEE7FEE7FB
:100DD000FEE7FEE7FEE7FEE7FEE7FEE7FEE700BF11
:100DE00008B5074B044613B10021AFF30080054B53
:100DF0001868836A03B19847204600F033F800BFB3
:100E000000000000840E000070B50E4B0E4D002453
:100E1000ED1AAD101E46AC4204D056F8242090477F
:100E20000134F8E700F020F8084D094B0024ED1AD2
:100E3000AD101E46AC4204D056F824209047013431
:100E4000F8E770BD68000020680000206C000020FA
:100E50006800002002440346934202D003F8011BBD
:100E6000FAE77047FEE700BFF8B500BFF8BC08BC62
:100E70009E467047F8B500BFF8BC08BC9E46704758
:0C0E8000430000000800002000000000FB
:080E8C00C8F2FF7F0100000025
:100E9400006CDC0200800000000000000000000084
:100EA400000000000000000000000000000000003E
:100EB4000000000000000000800E000000000000A0
:100EC400000000000000000000000000000000001E
:100ED400000000000000000000000000000000000E
:100EE40000000000000000000000000000000000FE
:100EF40000000000000000002501000001010000C6
:0400000300000D49A3
:00000001FF
