:1000000000000220E1170000171800001918000076
:100010001B1800001D1800001F1800001518000014
:100020001518000015180000151800002118000010
:1000300023180000151800002518000027180000DC
:10004000B90A00002B1800002D1800002F1800001E
:100050003118000033180000351800003718000070
:10006000391800003B1800003D1800003F18000040
:100070004118000043180000451800004718000010
:10008000491800004B1800004D1800004F180000E0
:1000900051180000531800005518000057180000B0
:1000A000591800005B1800005D1800005F18000080
:1000B0006118000063180000651800006718000050
:1000C000691800006B1800006D1800006F18000020
:1000D000711800007318000075180000000000007F
:1000E0000000000000000000000000000000000010
:1000F0000000000000000000000000000000000000
:1001000010B5054C237833B9044B13B10448AFF351
:1001100000800123237010BD70000020000000004B
:100120005019000008B5064B1BB106480649AFF34D
:1001300000800648036813B1054B03B1984708BD1A
:100140000000000050190000740000207000002022
:1001500000000000154B002B08BF134B9D46A3F574
:10016000803A00218B460F461348144A121A01F0B8
:10017000BDFB0F4B002B00D098470E4B002B00D03F
:1001800098470020002104000D000D48002802D0EF
:100190000C48AFF3008001F083FB2000290000F041
:1001A00047FE01F069FB00BF0000080000000220CC
:1001B00000000000000000007000002090000020FF
:1001C000000000000000000080B485B000AF78603F
:1001D0000B46FB70FB78062B00F28C8001A252F8D4
:1001E00023F000BF01020000330200006B02000098
:1001F0009D020000F5020000F5020000D50200009B
:100200007B685B6B23F4FE4323F07F03FB603C4B76
:100210005B6803F4FE43FA681343FB60384B5B688A
:1002200003F07F03FA681343FB607B68FA685A6344
:1002300061E07B685B6B23F4FE4323F07F03FB608C
:100240002F4B5B6803F0FE431B0E1B02FA6813433F
:10025000FB602B4B5B6803F4FE031B0CFA68134333
:10026000FB607B68FA685A6345E07B685B6B23F44C
:10027000FE4323F07F03FB60214B9B6803F4FE43A6
:10028000FA681343FB601E4B9B6803F07F03FA6818
:100290001343FB607B68FA685A632CE07B685B6BF6
:1002A00023F4FE4323F07F03FB60154B9B6803F0B0
:1002B000FE431B0E1B02FA681343FB60104B9B6846
:1002C00003F4FE031B0CFA681343FB607B68FA68B7
:1002D0005A6310E07B685B6B23F07F03FB60084B85
:1002E000DB6803F07F03FA681343FB607B68FA68FE
:1002F0005A6300E000BF1437BD465DF8047B7047C9
:10030000B081E00F80B485B000AF786039607B6861
:100310000A225A603B681B781A063B68DB781B048C
:1003200003F4F8131A433B681B791B0203F4FE43E2
:100330001A433B685B781B011A433B689B78134365
:10034000FB603B685B79002B03D0FB6843F008033C
:10035000FB607B68FA681A601437BD465DF8047B61
:10036000704700BF80B584B000AF786039607B68AB
:1003700002225A603B689B7878681946FFF724FF91
:100380003B681B781A073B685B781B051A433B6880
:100390009B781B041A433B681B791B021A433B687A
:1003A000DB781B011343FB603B689B79002B03D078
:1003B000FB6843F08073FB603B68DB79002B03D064
:1003C000FB6843F00403FB603B685B79002B03D0C0
:1003D000FB6843F00203FB603B681B7A002B03D0F1
:1003E000FB6843F00103FB607B68FA68DA60103752
:1003F000BD4680BD80B584B000AF786039607A6852
:10040000134B9A4202D9124B7B6006E07B68B3F52E
:10041000FA4F02D24FF4FA437B603B68002B03D1C2
:100420000C4800F0FBF938603A687B6813445A1EA8
:100430007B68B2FBF3F3FB60FB68002B02D0FB6828
:10044000013BFB60FB68DBB218461037BD4680BD40
:10045000405DC6001081020080B582B000AF7860B8
:100460007B68002B08D1114800F0D8F978607B68D0
:10047000002B01D101237B607A680D4B9A4201D990
:100480000B4B7B607B6803F5742303F23F237B6097
:100490007A68084BA3FB02139B0C7B607B68DBB282
:1004A000013BDBB218460837BD4680BD1081020013
:1004B0000048E80183DE1B4380B487B000AFF860DA
:1004C000B9607A60FB6803F10473DA00BB68134417
:1004D0009B007B617B697A681A601C37BD465DF8BA
:1004E000047B704780B483B000AF1D4BDB6C03F41A
:1004F0007F031B0CFB71FB794A2B04D04B2B26D0BE
:10050000482B22D025E0174B1B699BB203F03F0319
:100510009BB21B02BB80134B9B699BB203F0F003A1
:100520009AB2BB881343BB800E4BDB6903F0F00328
:100530001B099AB2BB881343BB80BB88B3F5017F0C
:1005400001D3094B06E0094B04E0084B02E0064BDF
:1005500000E0002318460C37BD465DF8047B704769
:10056000B081E00FD0FF0FE000366E010048E801D7
:1005700080B483B000AF1A4B5B6903F4E063B3F55A
:10058000007F14D0B3F5007F05D8002B15D0B3F54C
:10059000807F0FD01AE0B3F5C06F14D0B3F5E06FD1
:1005A0000ED0B3F5407F11D10E4B7B6011E00E4BA6
:1005B0007B600EE00D4B7B600BE00D4B7B6008E039
:1005C0000C4B7B6005E00C4B7B6002E000237B6002
:1005D00000BF7B6818460C37BD465DF8047B70474A
:1005E00000800C4040420F00C0CF6A00C0D8A70076
:1005F000809FD500406F4001003FAB0180B582B0C5
:1006000000AF124800F0CAF90346FB70FB78072BD5
:100610000FD0082B11D101F045F878600C4B1B6806
:1006200003F4E0339B0B01337A68B2FBF3F37B6096
:1006300006E0FFF79DFF786002E000237B6000BFCB
:100640007B6818460837BD4680BD00BF040018000F
:1006500000800C4080B584B000AF78607B68002BD0
:1006600002D07B68012B00D100BF264B9A6A7B68C1
:100670005B0022FA03F303F00303032B3AD801A231
:1006800052F823F0D5060000950600009D060000F4
:10069000A506000001F084F8F8602EE001F094F85F
:1006A000F8602AE0174B5B6803F48073002B05D1D8
:1006B000144B1B6803F08043002B05D000F0CEFFE5
:1006C00003469B08FB6018E000F0C8FF03465B0888
:1006D000FB6012E00B4B9A6A7B6804339B0022FAA2
:1006E00003F3002B03D001F065F8F86005E0002368
:1006F000FB6002E00023FB6000BFFB681846103778
:10070000BD4680BD00800C4080B483B000AF7860EF
:10071000094B5B6D03F00103002B00D006E000BF26
:10072000054B1A6D7B681340002BF9D10C37BD4681
:100730005DF8047B704700BF00800C4090B587B027
:1007400000AF78600B46FB7000233B617B681B0A9F
:1007500003F00F03013B052B4AD801A252F823F006
:10076000790700007F07000085070000B30700003D
:10077000BD070000C70700001F4B7B6126E01F4B31
:100780007B6123E01E4B7B611E4800F047F8044666
:10079000FFF7A8FE03469C420AD91B481E210122EE
:1007A000FFF78AFE194808210122FFF785FE0DE0B8
:1007B0000CE0174B7B6101233B6107E0154B7B612C
:1007C00010233B6102E0144B7B6100BF7B681B0B75
:1007D00003F01F03FB603B69002B02D03869FFF771
:1007E00093FFFB787869F9681A46FFF765FE00E029
:1007F00000BF1C37BD4690BD08800C4044800C40B3
:1008000040800C402000040000800C4004800C401C
:1008100058800C4060800C4078800C4080B584B0DB
:1008200000AF78607B6803F47813B3F5202F67D0AE
:10083000B3F5202F12D8B3F5802F4AD0B3F5802F0F
:1008400005D8002B21D0B3F5003F2CD09BE0B3F5A9
:10085000C02F42D0B3F5002F44D094E0B3F5A01FD1
:100860006ED0B3F5A01F06D8B3F5801F56D0B3F5F0
:10087000901F60D087E0B3F5C01F7CD0B3F5D01FC8
:100880007DD0B3F5B01F68D07DE000F00BFFF860BD
:10089000414B1B6803F4E0339B0B0133FA68B2FB56
:1008A000F3F3FB6072E000F0FDFEF8603A4B1B686A
:1008B00003F4E0339B0B0133FA68B2FBF3F3FB6004
:1008C000354B9B6803F00F03FA6822FA03F3FB60D1
:1008D0005CE000F0C3FEF86058E00020FFF7BAFECD
:1008E000F86053E00020FFF7B5FEF8602A4B9B6EDE
:1008F00003F0F0031B09FA6822FA03F3FB6045E0FA
:100900000020FFF7A7FEF860234B9B6E03F4706393
:100910001B0AFA6822FA03F3FB6037E00020FFF7B6
:1009200099FEF8601C4B9B6E03F00303FA6822FAF1
:1009300003F3FB602AE00120FFF78CFEF86025E05E
:100940000120FFF787FEF860134B1B6F03F00303D2
:10095000FA6822FA03F3FB6018E00120FFF77AFE41
:10096000F8600D4B1B6F03F030031B09FA6822FA85
:1009700003F3FB600AE0FFF741FEF86006E0FFF7D3
:10098000F7FDF86002E00023FB6000BFFB6818463B
:100990001037BD4680BD00BF00800C4080B485B0DC
:1009A00000AF78600123FB737B6803F00F03BB602B
:1009B000BB68013B032B73D801A252F823F000BFA0
:1009C000D1090000070A0000430A00007F0A000066
:1009D000384BDB6A03F47053B3F5805F09D0B3F58D
:1009E000005F03D0B3F5006F06D008E00223FB736D
:1009F00008E00323FB7305E00423FB7302E00523F7
:100A0000FB7300BF4FE02B4B9B6A03F00303022BE9
:100A100006D0032B07D0012B08D10323FB730FE073
:100A20000223FB730CE00623FB7309E0214B9B6A56
:100A300003F48033002B02D00923FB7300E000BFD6
:100A400031E01C4B9B6A03F00C03082B06D00C2BE7
:100A500007D0042B08D10323FB730FE00223FB73A1
:100A60000CE00623FB7309E0124B9B6A03F480132E
:100A7000002B02D00923FB7300E000BF13E00D4BF5
:100A80001B6803F08053002B03D0B3F1805F03D0C9
:100A900009E00723FB7302E00823FB7300BF02E0B9
:100AA0000023FB7300BFFB7B18461437BD465DF87F
:100AB000047B704700800C4080B58AB000AF354B96
:100AC00003F580531B68BB61324B03F580530C3335
:100AD0001B68BA691340BB61BB69002B00DAFEE7F3
:100AE0002C4B9B6B7B61BA697B6913403B62002393
:100AF000FB6149E000237B623BE03B6A03F00103BA
:100B0000002B30D0234B9B683B6101227B6A02FAA9
:100B100003F3FB601F4B03F580530833FA681A6038
:100B20007B6A1B013A691344DB68BB60BB68002B1E
:100B300019D0BB681B7A7B60BB681B7A83F001030A
:100B4000DAB2BB681A72BB681B68002B0BD0BB689B
:100B50001B68786A7A68002A0CBF00220122D1B291
:100B6000BA68526898473B6A5B083B627B6A01330C
:100B70007B623B6A002BC0D17B69DA43BB691340BF
:100B80003B62FB690133FB61FB69012BB2DD283756
:100B9000BD4680BD00200C4080B485B000AF7860B9
:100BA000194B5B69DBB203F00F03DBB29B00FB73F5
:100BB000154B1B6903F0C0039B09DAB2FB7B13439F
:100BC000FB737B68FA7B9A700F4B1B69DBB203F0F7
:100BD0003F03DAB27B685A700B4B9B69DBB223F0A0
:100BE0000F03FB73084BDB6903F0F0031B09DAB258
:100BF000FB7B1343FB737B68FA7B1A701437BD468B
:100C00005DF8047B704700BFD0FF0FE080B586B071
:100C100000AFF860B9607A60BB68002B03D114485C
:100C2000FFF7FCFDB860BB685B007B617A687B699D
:100C30001344013B7B617A697B68B2FBF3F37B6110
:100C40007B69043B7B617B699B017B617B69C03372
:100C50007B617B6923F0FF037B617A69054B13405D
:100C60007B61FB687A695A611837BD4680BD00BF59
:100C700010810200C0FF1F0080B582B000AF786015
:100C800039607A682B4B9A4207D07A682A4B9A428D
:100C900003D07A68294B9A4200D100BF786800F0EF
:100CA0004FF87B681A683B681B8A43F001039BB2CC
:100CB00019463B689B7B002B02D04FF4806300E019
:100CC00000230B431A437B681A607B6819683B68F2
:100CD0009B7C002B01D0102200E000223B681B7D92
:100CE000002B02D04FF0005300E00023134341EAF1
:100CF00003027B681A603B681B7B43F480527B686D
:100D00005A603B685A683B689B68786811461A4687
:100D1000FFF77CFF3B685B7B002B02D07B681022D7
:100D2000DA603B681B781A467B68DA600837BD4694
:100D300080BD00BF00C0004000C4004000C80040AB
:100D400080B483B000AF78607A68244B9A420FD0A9
:100D50007A68234B9A420BD07A68224B9A4207D08A
:100D60007A68214B9A4203D07A68204B9A4200D18C
:100D700000BF7B6840F6AA62DA607B6800221A60D6
:100D80007B6841F205025A607B6800229A607B68AA
:100D900000225A617B680022DA647B6841F6F972AE
:100DA0009A647B6800225A657A680C4B9A4202D199
:100DB0007B6800221A657B6800229A657A68084B76
:100DC0009A4203D07A68074B9A4202D17B6800228C
:100DD000DA650C37BD465DF8047B704700C0004003
:100DE00000C4004000C8004000E0004000E40040B3
:100DF00080B582B000AF0C4B1B687B603B46184649
:100E0000FFF7CAFE7B681B0E0F2B0AD93B78032B1A
:100E100007D1064B054A126822F0500242F0100238
:100E20001A600837BD4680BDFC81E00FC0800C40D1
:100E300080B582B000AF00F0A7F8FFF7D9FF00F04F
:100E400023F800237B60024800F058F87860FAE746
:100E50000020004080B483B000AF78607B685B6A9C
:100E600018460C37BD465DF8047B704780B483B0EC
:100E700000AF78600B46FB70FA787B685A600C37DD
:100E8000BD465DF8047B704780B586B000AF002397
:100E90003B7400237B740023BB741F23FB7400236B
:100EA0003B7500237B7500233B7100237B7100237E
:100EB000BB710023FB7100233B7200237B72002374
:100EC000BB720023FB7200233B7307F110030A4837
:100ED0001946FFF717FA0123BB7104233B72002365
:100EE000FB7105237B713B1D03481946FFF73AFA56
:100EF0001837BD4680BD00BF0020004080B584B0DB
:100F000000AF786078680121FFF7B0FF00BF7B6811
:100F10009B6803F00103002BF9D17868FFF79AFF73
:100F2000F860FB6818461037BD4680BD80B582B0BA
:100F300000AF00233B7000237B700023BB701F2396
:100F4000FB7000233B7100237B7100233B70002367
:100F50007B700023BB700020FFF77EFA0346FB7016
:100F600007480021FFF746FA03463B7100237B71D7
:100F70003B4604481946FFF7C5F90837BD4680BD12
:100F8000C0CF6A000020004080B500AFA54BA54A45
:100F900012681A60A34BA34A126842F00C021A604E
:100FA000A04BA04A12681A609E4B9E4A126842F4F7
:100FB00000521A609C4B9C4A526A22F480725A6218
:100FC0009A480121FFF7BAFB994B994A526822F0DF
:100FD0000F0242F004025A60954B954A526822F083
:100FE000F00242F040025A60914B914A526822F45A
:100FF000706242F480625A608D4B8D4A526822F4CE
:10100000704242F480425A60894B894A526822F405
:10101000702242F480225A60854B854A526822F43D
:10102000700242F480025A60814B814A526822F079
:10103000706242F080625A607D4B7D4A526822F0B5
:10104000704242F080525A60794B794A926822F09D
:101050000F0242F006029A60754B754A926822F4BC
:10106000702242F480229A60714B714A926822F495
:10107000700242F480029A606D4B6D4A926822F0D1
:10108000706242F080629A60694B694A926822F00D
:10109000704242F080429A60654B654A926A22F043
:1010A0000F0242F004029A62614B614A926A22F096
:1010B000F00242F040029A625D4B5D4A926A22F46D
:1010C000706242F480629A62594B594A926A22F4E1
:1010D000704242F480429A62554B554A926A22F419
:1010E000702242F480229A62514B514A926A22F451
:1010F000700242F480029A624D4B4D4A926A22F08D
:10110000706242F080629A62494B494AD26A22F088
:10111000F00242F04002DA62454B454AD26A22F4BC
:10112000706242F48062DA62414B414AD26A22F430
:10113000702242F48022DA623D4B3D4AD26C22F0AA
:101140000F0242F00102DA64394B394AD26C22F0C4
:10115000F00242F01002DA64354B354A526D42F02B
:1011600004025A65324B324AD26C22F4706242F465
:101170008062DA642E4B2E4AD26C22F4704242F422
:101180008052DA642A4B2A4AD26C22F4702242F44A
:101190008022DA64264B264AD26C22F4700242F492
:1011A0008002DA64224B224AD26C22F0706242F052
:1011B0008062DA641E4B1E4AD26C22F0704242F00A
:1011C0008042DA641A4B1A4A126D22F00F0242F082
:1011D00004021A65164B164A126D22F0F00242F014
:1011E00040021A65124B124A126D22F4706242F4E8
:1011F00080721A650E4B0E4A126D22F4704242F450
:1012000080521A650A4B0A4A526D42F480525A655E
:10121000074B074A126D22F4702242F480221A65AD
:10122000034B07E000800C4000600C4000D202003D
:1012300000600040C24A126D22F4700242F4801233
:101240001A65BF4BBE4A126D22F0706242F0807286
:101250001A65BB4BBA4A926F42F001029A67B84BCB
:10126000B74A126F22F00F0242F004021A67B44B21
:10127000B34A126F22F0F00242F010021A67B04B2C
:10128000AF4A126F22F4706242F480621A67AC4B6C
:10129000AB4A126F22F4704242F480421A67A84BA4
:1012A000A74A126F22F4700242F400021A67A44B9C
:1012B000A34A126F22F0706242F030621A67A04BAC
:1012C0009F4A126F22F0704242F030421A679C4BE4
:1012D0009B4A526F22F00F0242F008025A67984B65
:1012E000974A526F22F0F00242F040025A67944B44
:1012F000934AD2F8942022F00F0242F00402C3F87D
:1013000094208F4B8E4AD2F8942022F0F00242F0C3
:101310004002C3F894208A4B894AD2F8942022F4E0
:10132000706242F48062C3F89420854B844AD2F8FC
:10133000942022F4704242F48042C3F89420804BFF
:101340007F4AD2F8942022F4702242F48022C3F81B
:1013500094207B4B7A4AD2F8942022F4700242F413
:101360008002C3F89420764B754AD2F8942022F07C
:10137000706242F08062C3F89420714B704AD2F8D8
:10138000942022F0704242F08042C3F894206C4BCB
:101390006B4AD2F8982022F00F0242F00402C3F800
:1013A0009820674B664AD2F8982022F0F00242F06B
:1013B0004002C3F89820624B614AD2F8982022F488
:1013C000706242F48062C3F898205D4B5C4AD2F8A8
:1013D000982022F4704242F48042C3F89820584B7F
:1013E000574AD2F8982022F4702242F48022C3F89F
:1013F0009820534B524AD2F8982022F4700242F4BB
:101400008002C3F898204E4B4D4AD2F8982022F023
:10141000706242F08062C3F89820494B484AD2F883
:10142000982022F0704242F08042C3F89820444B4A
:10143000434AD2F8B82022F4706242F48062C3F8C2
:10144000B8203F4B3E4AD2F8B82022F4704242F412
:101450000042C3F8B8203A4B394AD2F8B82022F4F7
:10146000702242F48022C3F8B820354B344AD2F8B7
:10147000B82022F4700242F48002C3F8B820304B46
:101480002F4AD2F8B82022F0706242F08062C3F88E
:10149000B8202B4B2A4AD2F8B82022F0704242F0F2
:1014A0008052C3F8B82027480121FFF747F9FFF71A
:1014B0003DFD234B224AD2F8202122F4407242F40F
:1014C0008072C3F820211E4B1D4AD2F8202142F021
:1014D0000402C3F820211C480121FFF72FF91B4A01
:1014E0001A4B5B6943F4A80343F043035361184864
:1014F0000121FFF723F9174B164A926B22F4E062A1
:1015000042F480729A63134B124A926B42F00302C8
:101510009A6311480121FFF711F9104B0F4A526DE0
:1015200042F003025A650E480121FFF707F900F067
:1015300037F80C4B0B4A526D22F4E06214E000BF06
:1015400000600040000203000053040000800040DF
:1015500000B2020000A000400042020000E400408F
:101560000012020000C4004042F480725A65094B28
:10157000084A526D42F00B025A6507480121FFF7F5
:10158000DDF800F035F8054B044A526D42F00B02CD
:101590005A6580BD00C400400022020000C800401F
:1015A000B0B586B000AF0F4B3C461D460FCD0FC403
:1015B00095E8030084E803000B4BBB600D233B73ED
:1015C0000023BB7301237B7300233B820023BB7486
:1015D00000233B753B4605481946FFF74DFB18377E
:1015E000BD46B0BD1819000040420F0000C40040C5
:1015F000B0B586B000AF104B3C461D460FCD0FC4B2
:1016000095E8030084E803004FF4E133BB60052351
:101610003B730123BB7301237B7300233B820023B5
:10162000BB7400233B753B4604481946FFF724FB77
:101630001837BD46B0BD00BF3019000000C80040DB
:1016400080B400AF044BDB6C1B0EDBB21846BD460A
:101650005DF8047B704700BFB081E00F80B582B0B9
:1016600000AF00F01FF878600C4B1B6803F4E03308
:101670009B0B01337A68B2FBF3F37B60074B5B682B
:1016800003F00F037A6822FA03F37B60044B7A6855
:101690001A607B6818460837BD4680BD00800C4044
:1016A0008C00002080B582B000AF2F4BDB6A03F4C2
:1016B0007053B3F5805F0AD0B3F5005F03D0B3F584
:1016C000006F08D00BE0294B1B687B6047E04FF4AC
:1016D00000437B6043E0264B1B687B603FE0224B6E
:1016E000DB6803F4E063B3F5007F1BD0B3F5007F44
:1016F00005D8002B24D0B3F5807F16D02BE0B3F5AE
:10170000806F09D0B3F5A06F03D0B3F5407F06D04A
:1017100021E0184B7B6021E0174B7B601EE0174BEC
:101720007B601BE0164B7B6018E0FFF789FF0346E8
:10173000122B02D9134B7B6010E0134B7B600DE042
:10174000FFF77EFF0346122B02D9104B7B6005E0AA
:101750000F4B7B6002E000237B6000BF00BF7B6813
:1017600018460837BD4680BD00800C4004000020AC
:1017700000000020003FAB01406F4001809FD5007A
:10178000C0D8A70040B56400C0CF6A00804F1200E7
:1017900040420F0080B400AFBD465DF8047B704747
:1017A00080B400AF4FF400431846BD465DF8047B9B
:1017B000704700BF80B400AF4FF47A731846BD463F
:1017C0005DF8047B704700BF80B400AF034B1B681B
:1017D0001846BD465DF8047B704700BF040000203A
:1017E000074880470749084A084B9B1A40F3058081
:1017F000043BC858D0503FF7FBAF054800470000F6
:10180000951700005C190000000000207000002007
:1018100055010000FEE7FEE7FEE7FEE7FEE7FEE714
:10182000FEE7FEE7FEE7FEE7FEE7FEE7FEE7FEE790
:10183000FEE7FEE7FEE7FEE7FEE7FEE7FEE7FEE780
:10184000FEE7FEE7FEE7FEE7FEE7FEE7FEE7FEE770
:10185000FEE7FEE7FEE7FEE7FEE7FEE7FEE7FEE760
:10186000FEE7FEE7FEE7FEE7FEE7FEE7FEE7FEE750
:10187000FEE7FEE7FEE700BF08B5074B044613B1DD
:101880000021AFF30080054B1868836A03B19847C5
:10189000204600F033F800BF000000004C190000A3
:1018A00070B50E4B0E4D0024ED1AAD101E46AC4225
:1018B00004D056F8242090470134F8E700F020F8CF
:1018C000084D094B0024ED1AAD101E46AC4204D061
:1018D00056F8242090470134F8E770BD68000020D6
:1018E000680000206C0000206800002002440346CD
:1018F000934202D003F8011BFAE77047FEE700BFEE
:10190000F8B500BFF8BC08BC9E467047F8B500BFEC
:10191000F8BC08BC9E4670470500000000000000AF
:1019200040420F0005010000000000000000000020
:10193000050000000000000040420F00050100000B
:10194000000000000000000043000000080000202C
:041950000000000093
:0819540000E8FF7F0100000024
:10195C00006CDC02008000000000000000000000B1
:10196C00000000000000000000000000000000006B
:10197C0000000000000000004819000000000000FA
:10198C00000000000000000000000000000000004B
:10199C00000000000000000000000000000000003B
:1019AC00000000000000000000000000000000002B
:1019BC0000000000000000002501000001010000F3
:04000003000017E101
:00000001FF
