:1000000000000220291700005F17000061170000A0
:100010006317000065170000671700005D170000F8
:100020005D1700005D1700005D17000069170000F4
:100030006B1700005D1700006D1700006F170000C0
:1000400045140000731700007517000077170000B3
:10005000791700007B1700007D1700007F17000054
:100060008117000083170000851700008717000024
:10007000891700008B1700008D1700008F170000F4
:1000800091170000931700009517000097170000C4
:10009000991700009B1700009D1700009F17000094
:1000A000A1170000A3170000A5170000A717000064
:1000B000A9170000AB170000AD170000AF17000034
:1000C000B1170000B3170000B5170000B717000004
:1000D000B9170000BB170000BD17000000000000AA
:1000E0000000000000000000000000000000000010
:1000F0000000000000000000000000000000000000
:1001000010B5054C237833B9044B13B10448AFF351
:1001100000800123237010BD70000020000000004B
:10012000501A000008B5064B1BB106480649AFF34C
:1001300000800648036813B1054B03B1984708BD1A
:1001400000000000501A0000740000207000002021
:1001500000000000154B002B08BF134B9D46A3F574
:10016000803A00218B460F461348144A121A01F0B8
:100170003DFC0F4B002B00D098470E4B002B00D0BE
:1001800098470020002104000D000D48002802D0EF
:100190000C48AFF3008001F003FC2000290000F0C0
:1001A000A7FB01F0E9FB00BF0000080000000220EF
:1001B00000000000000000007000002094000020FB
:1001C000000000000000000080B582B000AF0023F6
:1001D0003B7000237B700023BB701F23FB70002348
:1001E0003B7100237B7100233B7000237B70002355
:1001F000BB70002000F0E6FB0346FB7007480021BF
:1002000000F0AEFB03463B7100237B713B46044884
:10021000194600F075FB0837BD4680BDC0CF6A00A7
:100220000020004080B500AFA84BA84A12681A60B1
:10023000A64BA64A126842F00C021A605120042113
:1002400000F088FFA14BA14A12681A609F4B9F4A99
:10025000126842F400521A609D4B9D4A526A22F481
:1002600080725A6200200121012201F08BF8994826
:10027000012100F0B1FD984B974A526822F00F021D
:1002800042F004025A60944B934A526822F0F00202
:1002900042F040025A60904B8F4A526822F47062DA
:1002A00042F480625A608C4B8B4A526822F470424E
:1002B00042F480425A60884B874A526822F4702286
:1002C00042F480225A60844B834A526822F47002BE
:1002D00042F480025A60804B7F4A526822F070627A
:1002E00042F080625A607C4B7B4A526822F0704236
:1002F00042F080525A60784B774A926822F00F029F
:1003000042F006029A60744B734A926822F470229B
:1003100042F480229A60704B6F4A926822F4700215
:1003200042F480029A606C4B6B4A926822F07062D1
:1003300042F080629A60684B674A926822F070428D
:1003400042F080429A60644B634A926A22F00F0244
:1003500042F004029A62604B5F4A926A22F0F00215
:1003600042F040029A625C4B5B4A926A22F47062ED
:1003700042F480629A62584B574A926A22F4704261
:1003800042F480429A62544B534A926A22F4702299
:1003900042F480229A62504B4F4A926A22F47002D1
:1003A00042F480029A624C4B4B4A926A22F070628D
:1003B00042F080629A62484B474AD26A22F0F002C9
:1003C00042F04002DA62444B434AD26A22F470623D
:1003D00042F48062DA62404B3F4AD26A22F47022D1
:1003E00042F48022DA623C4B3B4AD26C22F00F028C
:1003F00042F00102DA64384B374AD26C22F0F00244
:1004000042F01002DA64344B334A526D42F0040277
:100410005A65314B304AD26C22F4706242F48062E9
:10042000DA642D4B2C4AD26C22F4704242F4805292
:10043000DA64294B284AD26C22F4702242F48022DA
:10044000DA64254B244AD26C22F4700242F4800212
:10045000DA64214B204AD26C22F0706242F0806252
:10046000DA641D4B1C4AD26C22F0704242F080428A
:10047000DA64194B184A126D22F00F0242F004029E
:100480001A65154B144A126D22F0F00242F0400238
:100490001A65114B104A126D22F4706242F4807298
:1004A0001A650D4B0C4A126D22F4704242F48052D0
:1004B0001A65094B084A526D42F480525A65064B40
:1004C000054A126D22F4702208E000BF00800C4043
:1004D00000600C4000D202000060004042F4802224
:1004E0001A65C24BC14A126D22F4700242F48012A6
:1004F0001A65BE4BBD4A126D22F0706242F08072E6
:100500001A65BA4BB94A926F42F001029A67B74B2B
:10051000B64A126F22F00F0242F004021A67B34B80
:10052000B24A126F22F0F00242F010021A67AF4B8B
:10053000AE4A126F22F4706242F480621A67AB4BCB
:10054000AA4A126F22F4704242F480421A67A74B03
:10055000A64A126F22F4700242F400021A67A34BFB
:10056000A24A126F22F0706242F030621A679F4B0B
:100570009E4A126F22F0704242F030421A679B4B43
:100580009A4A526F22F00F0242F008025A67974BC4
:10059000964A526F22F0F00242F040025A67934BA3
:1005A000924AD2F8942022F00F0242F00402C3F8DB
:1005B00094208E4B8D4AD2F8942022F0F00242F023
:1005C0004002C3F89420894B884AD2F8942022F440
:1005D000706242F48062C3F89420844B834AD2F85C
:1005E000942022F4704242F48042C3F894207F4B5E
:1005F0007E4AD2F8942022F4702242F48022C3F87A
:1006000094207A4B794AD2F8942022F4700242F472
:100610008002C3F89420754B744AD2F8942022F0DB
:10062000706242F08062C3F89420704B6F4AD2F837
:10063000942022F0704242F08042C3F894206B4B29
:100640006A4AD2F8982022F00F0242F00402C3F85E
:100650009820664B654AD2F8982022F0F00242F0CA
:100660004002C3F89820614B604AD2F8982022F4E7
:10067000706242F48062C3F898205C4B5B4AD2F807
:10068000982022F4704242F48042C3F89820574BDD
:10069000564AD2F8982022F4702242F48022C3F8FD
:1006A0009820524B514AD2F8982022F4700242F41A
:1006B0008002C3F898204D4B4C4AD2F8982022F083
:1006C000706242F08062C3F89820484B474AD2F8E3
:1006D000982022F0704242F08042C3F89820434BA9
:1006E000424AD2F8B82022F4706242F48062C3F821
:1006F000B8203E4B3D4AD2F8B82022F4704242F472
:100700000042C3F8B820394B384AD2F8B82022F456
:10071000702242F48022C3F8B820344B334AD2F816
:10072000B82022F4700242F48002C3F8B8202F4BA4
:100730002E4AD2F8B82022F0706242F08062C3F8EC
:10074000B8202A4B294AD2F8B82022F0704242F051
:100750008052C3F8B8202648012100F03DFBFFF786
:1007600033FD224B214AD2F8202122F4407242F478
:100770008072C3F820211D4B1C4AD2F8202142F080
:100780000402C3F820211B48012100F025FB1A4A6E
:10079000194B5B6943F4A80343F0430353611748C3
:1007A000012100F019FB164B154A926B22F4E0620E
:1007B00042F480729A63124B114A926B42F0030228
:1007C0009A631048012100F007FB0F4B0E4A526D4F
:1007D00042F003025A650D48012100F0FDFA00F0D5
:1007E00037F80B4B0A4A526D14E000BF006000401E
:1007F00000020300005304000080004000B2020029
:1008000000A000400042020000E40040001202008C
:1008100000C4004022F4E06242F480725A65094B41
:10082000084A526D42F00B025A650748012100F058
:10083000D3FA00F035F8054B044A526D42F00B0232
:100840005A6580BD00C400400022020000C800407C
:10085000B0B586B000AF0F4B3C461D460FCD0FC460
:1008600095E8030084E803000B4BBB600D233B734A
:100870000023BB7301237B7300233B820023BB74E3
:1008800000233B753B460548194600F091FE18379A
:10089000BD46B0BD181A000040420F0000C4004021
:1008A000B0B586B000AF104B3C461D460FCD0FC40F
:1008B00095E8030084E803004FF4E133BB600523AF
:1008C0003B730123BB7301237B7300233B82002313
:1008D000BB7400233B753B460448194600F068FE94
:1008E0001837BD46B0BD00BF301A000000C8004038
:1008F00080B500AFFFF796FC0023184680BD00BF0F
:1009000080B485B000AF786039607B680A225A6095
:100910003B681B781A063B68DB781B0403F4F8136A
:100920001A433B681B791B0203F4FE431A433B68DE
:100930005B781B011A433B689B781343FB603B6861
:100940005B79002B03D0FB6843F00803FB607B68F6
:10095000FA681A601437BD465DF8047B704700BF23
:1009600080B584B000AF786039607A68134B9A42E2
:1009700002D9124B7B6006E07B68B3F5FA4F02D2D6
:100980004FF4FA437B603B68002B03D10C4800F026
:1009900093FA38603A687B6813445A1E7B68B2FB4E
:1009A000F3F3FB60FB68002B02D0FB68013BFB60AC
:1009B000FB68DBB218461037BD4680BD405DC600FF
:1009C0001081020080B582B000AF78607B68002B98
:1009D00008D1114800F070FA78607B68002B01D1D3
:1009E00001237B607A680D4B9A4201D90B4B7B60E7
:1009F0007B6803F5742303F23F237B607A68084B1E
:100A0000A3FB02139B0C7B607B68DBB2013BDBB278
:100A100018460837BD4680BD108102000048E80135
:100A200083DE1B4380B487B000AFF860B9607A60A2
:100A3000FB6803F10473DA00BB6813449B007B611D
:100A40007B697A681A601C37BD465DF8047B704785
:100A500080B483B000AF1D4BDB6C03F47F031B0C31
:100A6000FB71FB794A2B04D04B2B26D0482B22D08C
:100A700025E0174B1B699BB203F03F039BB21B029F
:100A8000BB80134B9B699BB203F0F0039AB2BB8807
:100A90001343BB800E4BDB6903F0F0031B099AB2D2
:100AA000BB881343BB80BB88B3F5017F01D3094BDF
:100AB00006E0094B04E0084B02E0064B00E000238F
:100AC00018460C37BD465DF8047B7047B081E00FD7
:100AD000D0FF0FE000366E010048E80180B483B01B
:100AE00000AF164B5B687B607B6803F00703052B48
:100AF0001CD801A252F823F0110B0000110B0000CA
:100B00001F0B00001F0B0000110B00001F0B00004B
:100B10007B6823F0070343F004037B6006E07B68F7
:100B200023F0070343F005037B6000BF034B7A68A3
:100B30005A600C37BD465DF8047B704700000C40DE
:100B400080B485B000AF78602D4B5B68FB607A683D
:100B50002C4B9A4213D9FB6803F00703023B012B8D
:100B600006D8FB6823F0070343F00503FB6006E0AB
:100B7000FB6823F0070343F00403FB6000BF7A68BF
:100B8000214B9A421AD97A681E4B9A4216D8FB68B2
:100B900003F00703022B0AD3032B01D9052B06D13F
:100BA000FB6823F0070343F00303FB6006E0FB68E8
:100BB00023F0070343F00103FB6000BF7A68124B88
:100BC0009A4214D8FB6803F00703022B0AD3032BC5
:100BD00001D9052B06D1FB6823F0070343F002037C
:100BE000FB6004E0FB6823F00703FB6000BF044BDD
:100BF000FA685A601437BD465DF8047B704700BF41
:100C000000000C400048E8010024F40080B483B0E8
:100C100000AF1A4B5B6903F4E063B3F5007F14D0B7
:100C2000B3F5007F05D8002B15D0B3F5807F0FD02A
:100C30001AE0B3F5C06F14D0B3F5E06F0ED0B3F582
:100C4000407F11D10E4B7B6011E00E4B7B600EE0BC
:100C50000D4B7B600BE00D4B7B6008E00C4B7B6029
:100C600005E00C4B7B6002E000237B6000BF7B68EB
:100C700018460C37BD465DF8047B704700800C4079
:100C800040420F00C0CF6A00C0D8A700809FD500A7
:100C9000406F4001003FAB0180B582B000AF124809
:100CA00000F0CAF90346FB70FB78072B0FD0082B26
:100CB00011D100F0B7FD78600C4B1B6803F4E033F2
:100CC0009B0B01337A68B2FBF3F37B6006E0FFF71E
:100CD0009DFF786002E000237B6000BF7B681846C0
:100CE0000837BD4680BD00BF0400180000800C40DE
:100CF00080B584B000AF78607B68002B02D07B6841
:100D0000012B00D100BF264B9A6A7B685B0022FA58
:100D100003F303F00303032B3AD801A252F823F0A4
:100D2000710D0000310D0000390D0000410D000073
:100D300000F002FEF8602EE000F012FEF8602AE0FB
:100D4000174B5B6803F48073002B05D1144B1B68B1
:100D500003F08043002B05D000F040FD03469B08C4
:100D6000FB6018E000F03AFD03465B08FB6012E010
:100D70000B4B9A6A7B6804339B0022FA03F3002B27
:100D800003D000F0E3FDF86005E00023FB6002E023
:100D90000023FB6000BFFB6818461037BD4680BDCE
:100DA00000800C4080B483B000AF7860094B5B6D6D
:100DB00003F00103002B00D006E000BF054B1A6DC5
:100DC0007B681340002BF9D10C37BD465DF8047BDE
:100DD000704700BF00800C4090B587B000AF7860CE
:100DE0000B46FB7000233B617B681B0A03F00F037B
:100DF000013B052B4AD801A252F823F0150E000042
:100E00001B0E0000210E00004F0E0000590E0000C6
:100E1000630E00001F4B7B6126E01F4B7B6123E0CC
:100E20001E4B7B611E4800F047F80446FFF710FE9A
:100E300003469C420AD91B481E210122FFF7F2FDFE
:100E4000194808210122FFF7EDFD0DE00CE0174BDA
:100E50007B6101233B6107E0154B7B6110233B6104
:100E600002E0144B7B6100BF7B681B0B03F01F0388
:100E7000FB603B69002B02D03869FFF793FFFB78DA
:100E80007869F9681A46FFF7CDFD00E000BF1C370E
:100E9000BD4690BD08800C4044800C4040800C4012
:100EA0002000040000800C4004800C4058800C405E
:100EB00060800C4078800C4080B584B000AF7860D2
:100EC0007B6803F47813B3F5202F67D0B3F5202F98
:100ED00012D8B3F5802F4AD0B3F5802F05D8002B58
:100EE00021D0B3F5003F2CD09BE0B3F5C02F42D00A
:100EF000B3F5002F44D094E0B3F5A01F6ED0B3F546
:100F0000A01F06D8B3F5801F56D0B3F5901F60D050
:100F100087E0B3F5C01F7CD0B3F5D01F7DD0B3F50B
:100F2000B01F68D07DE000F07DFCF860414B1B688D
:100F300003F4E0339B0B0133FA68B2FBF3F3FB607D
:100F400072E000F06FFCF8603A4B1B6803F4E0338A
:100F50009B0B0133FA68B2FBF3F3FB60354B9B68E4
:100F600003F00F03FA6822FA03F3FB605CE000F081
:100F700035FCF86058E00020FFF7BAFEF86053E057
:100F80000020FFF7B5FEF8602A4B9B6E03F0F003DC
:100F90001B09FA6822FA03F3FB6045E00020FFF723
:100FA000A7FEF860234B9B6E03F470631B0AFA687C
:100FB00022FA03F3FB6037E00020FFF799FEF860A8
:100FC0001C4B9B6E03F00303FA6822FA03F3FB60E9
:100FD0002AE00120FFF78CFEF86025E00120FFF7F2
:100FE00087FEF860134B1B6F03F00303FA6822FAC5
:100FF00003F3FB6018E00120FFF77AFEF8600D4B69
:101000001B6F03F030031B09FA6822FA03F3FB603D
:101010000AE0FFF741FEF86006E0FFF7F7FDF86031
:1010200002E00023FB6000BFFB6818461037BD4696
:1010300080BD00BF00800C4080B485B000AF7860F8
:101040000123FB737B6803F00F03BB60BB68013BAC
:10105000032B73D801A252F823F000BF6D100000DB
:10106000A3100000DF1000001B110000384BDB6AEA
:1010700003F47053B3F5805F09D0B3F5005F03D07C
:10108000B3F5006F06D008E00223FB7308E00323EA
:10109000FB7305E00423FB7302E00523FB7300BF31
:1010A0004FE02B4B9B6A03F00303022B06D0032B6C
:1010B00007D0012B08D10323FB730FE00223FB733E
:1010C0000CE00623FB7309E0214B9B6A03F4803399
:1010D000002B02D00923FB7300E000BF31E01C4B62
:1010E0009B6A03F00C03082B06D00C2B07D0042BB3
:1010F00008D10323FB730FE00223FB730CE00623EC
:10110000FB7309E0124B9B6A03F48013002B02D09F
:101110000923FB7300E000BF13E00D4B1B6803F0D5
:101120008053002B03D0B3F1805F03D009E0072385
:10113000FB7302E00823FB7300BF02E00023FB7394
:1011400000BFFB7B18461437BD465DF8047B704733
:1011500000800C4090B589B000AF78600B46FB7002
:101160000323FB610323FB7600237B617B6803F091
:101170000F03FB60FB68013B032B00F2F48001A22C
:1011800052F823F095110000611200006112000076
:101190003D130000FB78023B072B00F2E68001A222
:1011A00052F823F0C5110000CF110000D911000042
:1011B0002D1200006B1300006B1300006B13000076
:1011C000371200000423FB610023FB7634E0032385
:1011D000FB610123FB762FE00223FB610223FB76F8
:1011E00000F098FB0446FFF733FC03469C4213D9FA
:1011F000614A614B1B6843F0804343F06003136016
:101200005D4B1B6C03F01003002B0ED05B480821D4
:101210000122FFF707FC0FE0574B574A126822F0F4
:10122000600242F020021A6006E005E00123FB6143
:101230000323FB7600E000BFFB7E1846012101225C
:1012400000F0A0F8FFF74AFC4B4BFA695A6200F035
:1012500069F900F0C3FAB860B868FFF771FC87E07D
:10126000FB78013B082B00F2828001A252F823F0A8
:10127000951200009B120000AB1200006F130000DB
:101280006F130000BB1200006F1300006F1300000B
:10129000F312000000233B6130E000200121012215
:1012A00000F070F802233B6128E0012001210122B7
:1012B00000F068F801233B6120E03148042101225D
:1012C000FFF7B0FB03233B6100F088FAB860FFF73B
:1012D000BFFB0246BB689A420AD227481E21012260
:1012E000FFF7A0FB254808210122FFF79BFB05E043
:1012F00004E000233B6101237B6100BFFB68022BFC
:101300000DD11D4A1C4B9B6A23F4803323F0030349
:10131000396919437B691B040B43936228E0164A21
:10132000154B9B6A23F4801323F00C033969890061
:1013300019437B691B050B43936219E0FB78072B6C
:1013400002D0082B07D013E00B4B0B4A126822F097
:1013500080521A6006E0084B074A126842F0805239
:101360001A6000BF04E000BF02E000BF00E000BF61
:101370002437BD4690BD00BF00800C4004800C4067
:1013800040800C4080B586B000AF13460246FA712B
:101390000A46BA717B71FB79052B4CD801A252F831
:1013A00023F000BFF5130000E7130000CB1300008B
:1013B000BD130000D91300003714000001233B6166
:1013C0000223FB6002237B611EE004233B610823B0
:1013D000FB6008237B6117E010233B612023FB6047
:1013E00020237B6110E040233B618023FB6080234E
:1013F0007B6109E04FF480733B614FF40073FB6045
:101400004FF400737B6100BFBB79002B0DD00C4BF8
:101410003A691A627B79002B0AD000BF084BDA6A5E
:101420007B691340002BF9D002E0054BFA681A6281
:1014300000F078F800E000BF1837BD4680BD00BF5F
:1014400000800C4080B58AB000AF354B03F5805367
:101450001B68BB61324B03F580530C331B68BA69C0
:101460001340BB61BB69002B00DAFEE72C4B9B6B82
:101470007B61BA697B6913403B620023FB6149E0F1
:1014800000237B623BE03B6A03F00103002B30D07A
:10149000234B9B683B6101227B6A02FA03F3FB60EA
:1014A0001F4B03F580530833FA681A607B6A1B01EF
:1014B0003A691344DB68BB60BB68002B19D0BB687A
:1014C0001B7A7B60BB681B7A83F00103DAB2BB68CE
:1014D0001A72BB681B68002B0BD0BB681B68786A4C
:1014E0007A68002A0CBF00220122D1B2BA68526881
:1014F00098473B6A5B083B627B6A01337B623B6ACD
:10150000002BC0D17B69DA43BB6913403B62FB69A6
:101510000133FB61FB69012BB2DD2837BD4680BD7D
:1015200000200C4080B400AF044BDB6A9AB2044B3D
:101530001A80BD465DF8047B704700BF00800C40F8
:101540008C00002080B586B000AFF860B9607A608A
:10155000BB68002B03D11448FFF7AEFCB860BB6832
:101560005B007B617A687B691344013B7B617A692C
:101570007B68B2FBF3F37B617B69043B7B617B6936
:101580009B017B617B69C0337B617B6923F0FF0337
:101590007B617A69054B13407B61FB687A695A610C
:1015A0001837BD4680BD00BF10810200C0FF1F007C
:1015B00080B582B000AF786039607A682B4B9A4270
:1015C00007D07A682A4B9A4203D07A68294B9A420C
:1015D00000D100BF786800F04FF87B681A683B685C
:1015E0001B8A43F001039BB219463B689B7B002B8F
:1015F00002D04FF4806300E000230B431A437B6862
:101600001A607B6819683B689B7C002B01D0102214
:1016100000E000223B681B7D002B02D04FF00053FE
:1016200000E00023134341EA03027B681A603B6831
:101630001B7B43F480527B685A603B685A683B6866
:101640009B68786811461A46FFF77CFF3B685B7B16
:10165000002B02D07B681022DA603B681B781A46A8
:101660007B68DA600837BD4680BD00BF00C000401F
:1016700000C4004000C8004080B483B000AF786070
:101680007A68244B9A420FD07A68234B9A420BD047
:101690007A68224B9A4207D07A68214B9A4203D04B
:1016A0007A68204B9A4200D100BF7B6840F6AA625C
:1016B000DA607B6800221A607B6841F205025A609A
:1016C0007B6800229A607B6800225A617B68002256
:1016D000DA647B6841F6F9729A647B6800225A6585
:1016E0007A680C4B9A4202D17B6800221A657B68AB
:1016F00000229A657A68084B9A4203D07A68074BB1
:101700009A4202D17B680022DA650C37BD465DF84B
:10171000047B704700C0004000C4004000C8004087
:1017200000E0004000E40040074880470749084ABD
:10173000084B9B1A40F30580043BC858D0503FF734
:10174000FBAF0548004700002D1900005C1A00009F
:10175000000000207000002055010000FEE7FEE7B9
:10176000FEE7FEE7FEE7FEE7FEE7FEE7FEE7FEE751
:10177000FEE7FEE7FEE7FEE7FEE7FEE7FEE7FEE741
:10178000FEE7FEE7FEE7FEE7FEE7FEE7FEE7FEE731
:10179000FEE7FEE7FEE7FEE7FEE7FEE7FEE7FEE721
:1017A000FEE7FEE7FEE7FEE7FEE7FEE7FEE7FEE711
:1017B000FEE7FEE7FEE7FEE7FEE7FEE7FEE700BF27
:1017C00080B400AF044BDB6C1B0EDBB21846BD4689
:1017D0005DF8047B704700BFB081E00F80B582B038
:1017E00000AF00F01FF878600C4B1B6803F4E03387
:1017F0009B0B01337A68B2FBF3F37B60074B5B68AA
:1018000003F00F037A6822FA03F37B60044B7A68D3
:101810001A607B6818460837BD4680BD00800C40C2
:101820009000002080B582B000AF2F4BDB6A03F43C
:101830007053B3F5805F0AD0B3F5005F03D0B3F502
:10184000006F08D00BE0294B1B687B6047E04FF42A
:1018500000437B6043E0264B1B687B603FE0224BEC
:10186000DB6803F4E063B3F5007F1BD0B3F5007FC2
:1018700005D8002B24D0B3F5807F16D02BE0B3F52C
:10188000806F09D0B3F5A06F03D0B3F5407F06D0C9
:1018900021E0184B7B6021E0174B7B601EE0174B6B
:1018A0007B601BE0164B7B6018E0FFF789FF034667
:1018B000122B02D9134B7B6010E0134B7B600DE0C1
:1018C000FFF77EFF0346122B02D9104B7B6005E029
:1018D0000F4B7B6002E000237B6000BF00BF7B6892
:1018E00018460837BD4680BD00800C40040000202B
:1018F00000000020003FAB01406F4001809FD500F9
:10190000C0D8A70040B56400C0CF6A00804F120065
:1019100040420F0080B400AF034B1B681846BD4621
:101920005DF8047B704700BF0000002080B400AF6A
:10193000BD465DF8047B704780B400AF4FF40043B0
:101940001846BD465DF8047B704700BF80B400AF09
:101950004FF47A731846BD465DF8047B704700BFAC
:1019600080B400AF034B1B681846BD465DF8047B8E
:10197000704700BF0400002008B5074B044613B1B0
:101980000021AFF30080054B1868836A03B19847C4
:10199000204600F033F800BF000000004C1A0000A1
:1019A00070B50E4B0E4D0024ED1AAD101E46AC4224
:1019B00004D056F8242090470134F8E700F020F8CE
:1019C000084D094B0024ED1AAD101E46AC4204D060
:1019D00056F8242090470134F8E770BD68000020D5
:1019E000680000206C0000206800002002440346CC
:1019F000934202D003F8011BFAE77047FEE700BFED
:101A0000F8B500BFF8BC08BC9E467047F8B500BFEB
:101A1000F8BC08BC9E4670470500000000000000AE
:101A200040420F000501000000000000000000001F
:101A3000050000000000000040420F00050100000A
:101A4000000000000000000043000000080000202B
:041A50000000000092
:081A540000E7FF7F0100000024
:101A5C00006CDC02008000000000000000000000B0
:101A6C00000000000000000000000000000000006A
:101A7C000000000000000000481A000000000000F8
:101A8C00000000000000000000000000000000004A
:101A9C00000000000000000000000000000000003A
:101AAC00000000000000000000000000000000002A
:101ABC0000000000000000002501000001010000F2
:0400000300001729B9
:00000001FF
